{
  "contractName": "TokenManager",
  "abi": [
    {
      "inputs": [
        {
          "internalType": "address",
          "name": "verusSerializerAddress",
          "type": "address"
        },
        {
          "components": [
            {
              "internalType": "address",
              "name": "iaddress",
              "type": "address"
            },
            {
              "internalType": "address",
              "name": "eth_contract",
              "type": "address"
            },
            {
              "internalType": "bool",
              "name": "mapped",
              "type": "bool"
            },
            {
              "internalType": "string",
              "name": "name",
              "type": "string"
            },
            {
              "internalType": "string",
              "name": "ticker",
              "type": "string"
            }
          ],
          "internalType": "struct TokenManager.deployTokens[]",
          "name": "tokensToLaunch",
          "type": "tuple[]"
        }
      ],
      "stateMutability": "nonpayable",
      "type": "constructor"
    },
    {
      "anonymous": false,
      "inputs": [
        {
          "indexed": false,
          "internalType": "address",
          "name": "tokenAddress",
          "type": "address"
        }
      ],
      "name": "TokenCreated",
      "type": "event"
    },
    {
      "inputs": [
        {
          "internalType": "uint256",
          "name": "",
          "type": "uint256"
        }
      ],
      "name": "tokenList",
      "outputs": [
        {
          "internalType": "address",
          "name": "iaddress",
          "type": "address"
        },
        {
          "internalType": "address",
          "name": "eth_contract",
          "type": "address"
        },
        {
          "internalType": "bool",
          "name": "mapped",
          "type": "bool"
        },
        {
          "internalType": "string",
          "name": "name",
          "type": "string"
        },
        {
          "internalType": "string",
          "name": "ticker",
          "type": "string"
        }
      ],
      "stateMutability": "view",
      "type": "function",
      "constant": true
    },
    {
      "inputs": [
        {
          "internalType": "address",
          "name": "",
          "type": "address"
        }
      ],
      "name": "verusToERC20mapping",
      "outputs": [
        {
          "internalType": "address",
          "name": "erc20ContractAddress",
          "type": "address"
        },
        {
          "internalType": "bool",
          "name": "VerusOwned",
          "type": "bool"
        },
        {
          "internalType": "bool",
          "name": "isRegistered",
          "type": "bool"
        }
      ],
      "stateMutability": "view",
      "type": "function",
      "constant": true
    },
    {
      "inputs": [],
      "name": "getTokenList",
      "outputs": [
        {
          "components": [
            {
              "internalType": "address",
              "name": "iaddress",
              "type": "address"
            },
            {
              "internalType": "address",
              "name": "eth_contract",
              "type": "address"
            },
            {
              "internalType": "bool",
              "name": "mapped",
              "type": "bool"
            },
            {
              "internalType": "string",
              "name": "name",
              "type": "string"
            },
            {
              "internalType": "string",
              "name": "ticker",
              "type": "string"
            }
          ],
          "internalType": "struct TokenManager.deployTokens[]",
          "name": "",
          "type": "tuple[]"
        }
      ],
      "stateMutability": "view",
      "type": "function",
      "constant": true
    },
    {
      "inputs": [
        {
          "internalType": "uint256",
          "name": "a",
          "type": "uint256"
        },
        {
          "internalType": "uint8",
          "name": "decimals",
          "type": "uint8"
        }
      ],
      "name": "convertFromVerusNumber",
      "outputs": [
        {
          "internalType": "uint256",
          "name": "",
          "type": "uint256"
        }
      ],
      "stateMutability": "pure",
      "type": "function",
      "constant": true
    },
    {
      "inputs": [
        {
          "internalType": "address",
          "name": "_verusBridgeContract",
          "type": "address"
        }
      ],
      "name": "setVerusBridgeContract",
      "outputs": [],
      "stateMutability": "nonpayable",
      "type": "function"
    },
    {
      "inputs": [
        {
          "internalType": "address",
          "name": "_iaddress",
          "type": "address"
        },
        {
          "internalType": "uint256",
          "name": "_tokenAmount",
          "type": "uint256"
        }
      ],
      "name": "exportERC20Tokens",
      "outputs": [],
      "stateMutability": "nonpayable",
      "type": "function"
    },
    {
      "inputs": [
        {
          "internalType": "address",
          "name": "_iaddress",
          "type": "address"
        },
        {
          "internalType": "uint64",
          "name": "_tokenAmount",
          "type": "uint64"
        },
        {
          "internalType": "address",
          "name": "_destination",
          "type": "address"
        }
      ],
      "name": "importERC20Tokens",
      "outputs": [],
      "stateMutability": "nonpayable",
      "type": "function"
    },
    {
      "inputs": [
        {
          "internalType": "address",
          "name": "hosted",
          "type": "address"
        }
      ],
      "name": "ERC20Registered",
      "outputs": [
        {
          "internalType": "bool",
          "name": "",
          "type": "bool"
        }
      ],
      "stateMutability": "view",
      "type": "function",
      "constant": true
    },
    {
      "inputs": [
        {
          "internalType": "address",
          "name": "VRSCAddress",
          "type": "address"
        }
      ],
      "name": "getTokenERC20",
      "outputs": [
        {
          "internalType": "contract Token",
          "name": "",
          "type": "address"
        }
      ],
      "stateMutability": "view",
      "type": "function",
      "constant": true
    },
    {
      "inputs": [
        {
          "components": [
            {
              "internalType": "address",
              "name": "parent",
              "type": "address"
            },
            {
              "internalType": "string",
              "name": "name",
              "type": "string"
            },
            {
              "internalType": "address",
              "name": "launchSystemID",
              "type": "address"
            },
            {
              "internalType": "address",
              "name": "systemID",
              "type": "address"
            },
            {
              "internalType": "address",
              "name": "nativeCurrencyID",
              "type": "address"
            }
          ],
          "internalType": "struct VerusObjects.CcurrencyDefinition",
          "name": "_ccd",
          "type": "tuple"
        }
      ],
      "name": "getIAddress",
      "outputs": [
        {
          "internalType": "address",
          "name": "",
          "type": "address"
        }
      ],
      "stateMutability": "pure",
      "type": "function",
      "constant": true
    },
    {
      "inputs": [
        {
          "internalType": "bytes",
          "name": "_serializedCcd",
          "type": "bytes"
        }
      ],
      "name": "deployToken",
      "outputs": [
        {
          "internalType": "address",
          "name": "",
          "type": "address"
        }
      ],
      "stateMutability": "nonpayable",
      "type": "function"
    }
  ],
  "bytecode": "0x60806040523480156200001157600080fd5b5060405162007a5438038062007a54833981810160405281019062000037919062000bfe565b6000600360006101000a81548173ffffffffffffffffffffffffffffffffffffffff021916908373ffffffffffffffffffffffffffffffffffffffff160217905550816000806101000a81548173ffffffffffffffffffffffffffffffffffffffff021916908373ffffffffffffffffffffffffffffffffffffffff160217905550620000ca81620000d260201b60201c565b505062000f40565b620000e26200020860201b60201c565b62000124576040517f08c379a00000000000000000000000000000000000000000000000000000000081526004016200011b9062000daf565b60405180910390fd5b60005b815181101562000204578181815181106200013e57fe5b602002602001015160400151156200019957620001928282815181106200016157fe5b6020026020010151600001518383815181106200017a57fe5b602002602001015160200151620002c260201b60201c565b50620001f6565b620001f4828281518110620001aa57fe5b602002602001015160000151838381518110620001c357fe5b602002602001015160600151848481518110620001dc57fe5b6020026020010151608001516200064e60201b60201c565b505b808060010191505062000127565b5050565b60008073ffffffffffffffffffffffffffffffffffffffff16600360009054906101000a900473ffffffffffffffffffffffffffffffffffffffff1673ffffffffffffffffffffffffffffffffffffffff1614156200026b5760019050620002bf565b600360009054906101000a900473ffffffffffffffffffffffffffffffffffffffff1673ffffffffffffffffffffffffffffffffffffffff163373ffffffffffffffffffffffffffffffffffffffff161490505b90565b600060405180606001604052808373ffffffffffffffffffffffffffffffffffffffff16815260200160001515815260200160011515815250600160008573ffffffffffffffffffffffffffffffffffffffff1673ffffffffffffffffffffffffffffffffffffffff16815260200190815260200160002060008201518160000160006101000a81548173ffffffffffffffffffffffffffffffffffffffff021916908373ffffffffffffffffffffffffffffffffffffffff16021790555060208201518160000160146101000a81548160ff02191690831515021790555060408201518160000160156101000a81548160ff021916908315150217905550905050600082905060026040518060a001604052808673ffffffffffffffffffffffffffffffffffffffff1681526020018573ffffffffffffffffffffffffffffffffffffffff1681526020016001151581526020018373ffffffffffffffffffffffffffffffffffffffff166306fdde036040518163ffffffff1660e01b815260040160006040518083038186803b1580156200045e57600080fd5b505afa15801562000473573d6000803e3d6000fd5b505050506040513d6000823e3d601f19601f820116820180604052508101906200049e919062000c58565b81526020018373ffffffffffffffffffffffffffffffffffffffff166395d89b416040518163ffffffff1660e01b815260040160006040518083038186803b158015620004ea57600080fd5b505afa158015620004ff573d6000803e3d6000fd5b505050506040513d6000823e3d601f19601f820116820180604052508101906200052a919062000c58565b815250908060018154018082558091505060019003906000526020600020906004020160009091909190915060008201518160000160006101000a81548173ffffffffffffffffffffffffffffffffffffffff021916908373ffffffffffffffffffffffffffffffffffffffff16021790555060208201518160010160006101000a81548173ffffffffffffffffffffffffffffffffffffffff021916908373ffffffffffffffffffffffffffffffffffffffff16021790555060408201518160010160146101000a81548160ff02191690831515021790555060608201518160020190805190602001906200062292919062000941565b5060808201518160030190805190602001906200064192919062000941565b5050508391505092915050565b60008083836040516200066190620009d8565b6200066e92919062000d74565b604051809103906000f0801580156200068b573d6000803e3d6000fd5b50905060405180606001604052808273ffffffffffffffffffffffffffffffffffffffff16815260200160011515815260200160011515815250600160008773ffffffffffffffffffffffffffffffffffffffff1673ffffffffffffffffffffffffffffffffffffffff16815260200190815260200160002060008201518160000160006101000a81548173ffffffffffffffffffffffffffffffffffffffff021916908373ffffffffffffffffffffffffffffffffffffffff16021790555060208201518160000160146101000a81548160ff02191690831515021790555060408201518160000160156101000a81548160ff02191690831515021790555090505060026040518060a001604052808773ffffffffffffffffffffffffffffffffffffffff1681526020018373ffffffffffffffffffffffffffffffffffffffff16815260200160001515815260200186815260200185815250908060018154018082558091505060019003906000526020600020906004020160009091909190915060008201518160000160006101000a81548173ffffffffffffffffffffffffffffffffffffffff021916908373ffffffffffffffffffffffffffffffffffffffff16021790555060208201518160010160006101000a81548173ffffffffffffffffffffffffffffffffffffffff021916908373ffffffffffffffffffffffffffffffffffffffff16021790555060408201518160010160146101000a81548160ff0219169083151502179055506060820151816002019080519060200190620008db92919062000941565b506080820151816003019080519060200190620008fa92919062000941565b5050507f2e2b3f61b70d2d131b2a807371103cc98d51adcaa5e9a8f9c32658ad8426e74e816040516200092e919062000d57565b60405180910390a1809150509392505050565b828054600181600116156101000203166002900490600052602060002090601f016020900481019282620009795760008555620009c5565b82601f106200099457805160ff1916838001178555620009c5565b82800160010185558215620009c5579182015b82811115620009c4578251825591602001919060010190620009a7565b5b509050620009d49190620009e6565b5090565b611aa38062005fb183390190565b5b8082111562000a01576000816000905550600101620009e7565b5090565b600062000a1c62000a168462000e05565b62000dd1565b9050808382526020820190508260005b8581101562000a60578151850162000a45888262000b37565b84526020840193506020830192505060018101905062000a2c565b5050509392505050565b600062000a8162000a7b8462000e34565b62000dd1565b90508281526020810184848401111562000a9a57600080fd5b62000aa784828562000ec3565b509392505050565b60008151905062000ac08162000f0c565b92915050565b600082601f83011262000ad857600080fd5b815162000aea84826020860162000a05565b91505092915050565b60008151905062000b048162000f26565b92915050565b600082601f83011262000b1c57600080fd5b815162000b2e84826020860162000a6a565b91505092915050565b600060a0828403121562000b4a57600080fd5b62000b5660a062000dd1565b9050600062000b688482850162000aaf565b600083015250602062000b7e8482850162000aaf565b602083015250604062000b948482850162000af3565b604083015250606082015167ffffffffffffffff81111562000bb557600080fd5b62000bc38482850162000b0a565b606083015250608082015167ffffffffffffffff81111562000be457600080fd5b62000bf28482850162000b0a565b60808301525092915050565b6000806040838503121562000c1257600080fd5b600062000c228582860162000aaf565b925050602083015167ffffffffffffffff81111562000c4057600080fd5b62000c4e8582860162000ac6565b9150509250929050565b60006020828403121562000c6b57600080fd5b600082015167ffffffffffffffff81111562000c8657600080fd5b62000c948482850162000b0a565b91505092915050565b62000ca88162000e83565b82525050565b600062000cbb8262000e67565b62000cc7818562000e72565b935062000cd981856020860162000ec3565b62000ce48162000efb565b840191505092915050565b600062000cfe60308362000e72565b91507f43616c6c2063616e206f6e6c79206265206d6164652066726f6d20566572757360008301527f2042726964676520436f6e7472616374000000000000000000000000000000006020830152604082019050919050565b600060208201905062000d6e600083018462000c9d565b92915050565b6000604082019050818103600083015262000d90818562000cae565b9050818103602083015262000da6818462000cae565b90509392505050565b6000602082019050818103600083015262000dca8162000cef565b9050919050565b6000604051905081810181811067ffffffffffffffff8211171562000dfb5762000dfa62000ef9565b5b8060405250919050565b600067ffffffffffffffff82111562000e235762000e2262000ef9565b5b602082029050602081019050919050565b600067ffffffffffffffff82111562000e525762000e5162000ef9565b5b601f19601f8301169050602081019050919050565b600081519050919050565b600082825260208201905092915050565b600062000e908262000ea3565b9050919050565b60008115159050919050565b600073ffffffffffffffffffffffffffffffffffffffff82169050919050565b60005b8381101562000ee357808201518184015260208101905062000ec6565b8381111562000ef3576000848401525b50505050565bfe5b6000601f19601f8301169050919050565b62000f178162000e83565b811462000f2357600080fd5b50565b62000f318162000e97565b811462000f3d57600080fd5b50565b6150618062000f506000396000f3fe60806040523480156200001157600080fd5b5060043610620000b85760003560e01c8063abe900e4116200007b578063abe900e414620001a5578063b17f15a214620001c5578063d5b91a9214620001fd578063e4ce575d1462000233578063f79338de1462000269578063ff409190146200029f57620000b8565b8063273cbaa014620000bd5780633cd6ee6d14620000df5780636e56d44314620001155780639033ef3f146200014b5780639ead7222146200016b575b600080fd5b620000c7620002bf565b604051620000d69190620030a4565b60405180910390f35b620000fd6004803603810190620000f79190620027d0565b6200059a565b6040516200010c919062002f48565b60405180910390f35b6200013360048036038101906200012d91906200285a565b62000808565b60405162000142919062002f48565b60405180910390f35b620001696004803603810190620001639190620026e1565b62000a5a565b005b620001896004803603810190620001839190620028e4565b62000eb6565b6040516200019c95949392919062002fcf565b60405180910390f35b620001c36004803603810190620001bd919062002722565b62001082565b005b620001e36004803603810190620001dd9190620026b5565b62001396565b604051620001f4939291906200303a565b60405180910390f35b6200021b60048036038101906200021591906200293c565b620013fa565b6040516200022a91906200322d565b60405180910390f35b6200025160048036038101906200024b9190620026b5565b6200145d565b604051620002609190620030c8565b60405180910390f35b620002876004803603810190620002819190620026b5565b620014b6565b60405162000296919062003109565b60405180910390f35b620002bd6004803603810190620002b79190620026b5565b620015eb565b005b6060600060028054905067ffffffffffffffff81118015620002e057600080fd5b506040519080825280602002602001820160405280156200031e57816020015b6200030a62002213565b815260200190600190039081620003005790505b50905060005b6002805490508110156200059257600281815481106200034057fe5b90600052602060002090600402016040518060a00160405290816000820160009054906101000a900473ffffffffffffffffffffffffffffffffffffffff1673ffffffffffffffffffffffffffffffffffffffff1673ffffffffffffffffffffffffffffffffffffffff1681526020016001820160009054906101000a900473ffffffffffffffffffffffffffffffffffffffff1673ffffffffffffffffffffffffffffffffffffffff1673ffffffffffffffffffffffffffffffffffffffff1681526020016001820160149054906101000a900460ff16151515158152602001600282018054600181600116156101000203166002900480601f016020809104026020016040519081016040528092919081815260200182805460018160011615610100020316600290048015620004bd5780601f106200049157610100808354040283529160200191620004bd565b820191906000526020600020905b8154815290600101906020018083116200049f57829003601f168201915b50505050508152602001600382018054600181600116156101000203166002900480601f016020809104026020016040519081016040528092919081815260200182805460018160011615610100020316600290048015620005635780601f10620005375761010080835404028352916020019162000563565b820191906000526020600020905b8154815290600101906020018083116200054557829003601f168201915b5050505050815250508282815181106200057957fe5b6020026020010181905250808060010191505062000324565b508091505090565b6000620005a6620016c3565b620005e8576040517f08c379a0000000000000000000000000000000000000000000000000000000008152600401620005df906200320b565b60405180910390fd5b60008060009054906101000a900473ffffffffffffffffffffffffffffffffffffffff1673ffffffffffffffffffffffffffffffffffffffff1663fa7acd87846040518263ffffffff1660e01b8152600401620006469190620030e5565b60006040518083038186803b1580156200065f57600080fd5b505afa15801562000674573d6000803e3d6000fd5b505050506040513d6000823e3d601f19601f820116820180604052508101906200069f91906200289f565b90506000620006ae8262000808565b9050600160008273ffffffffffffffffffffffffffffffffffffffff1673ffffffffffffffffffffffffffffffffffffffff16815260200190815260200160002060000160159054906101000a900460ff16156200077357600160008273ffffffffffffffffffffffffffffffffffffffff1673ffffffffffffffffffffffffffffffffffffffff16815260200190815260200160002060000160009054906101000a900473ffffffffffffffffffffffffffffffffffffffff169250505062000803565b7367460c2f56774ed27eeb8685f29f6cec0b090b0073ffffffffffffffffffffffffffffffffffffffff16826060015173ffffffffffffffffffffffffffffffffffffffff1614620007e857620007de818360200151620007d885602001516200177d565b62001824565b9250505062000803565b620007f881836080015162001b17565b508160800151925050505b919050565b60008073ffffffffffffffffffffffffffffffffffffffff16826000015173ffffffffffffffffffffffffffffffffffffffff161415620009365760036002620008606200085a856020015162001ea3565b6200202d565b60405160200162000872919062002ef9565b60405160208183030381529060405260405162000890919062002f16565b602060405180830381855afa158015620008ae573d6000803e3d6000fd5b5050506040513d601f19601f82011682018060405250810190620008d39190620027a4565b604051602001620008e5919062002ef9565b60405160208183030381529060405260405162000903919062002f16565b602060405180830381855afa15801562000921573d6000803e3d6000fd5b5050506040515160601b60601c905062000a55565b600360026200098484600001516200095c62000956876020015162001ea3565b6200202d565b6040516020016200096f92919062002ec9565b60405160208183030381529060405262002120565b60405160200162000996919062002ef9565b604051602081830303815290604052604051620009b4919062002f16565b602060405180830381855afa158015620009d2573d6000803e3d6000fd5b5050506040513d601f19601f82011682018060405250810190620009f79190620027a4565b60405160200162000a09919062002ef9565b60405160208183030381529060405260405162000a27919062002f16565b602060405180830381855afa15801562000a45573d6000803e3d6000fd5b5050506040515160601b60601c90505b919050565b62000a64620016c3565b62000aa6576040517f08c379a000000000000000000000000000000000000000000000000000000000815260040162000a9d906200320b565b60405180910390fd5b600160008373ffffffffffffffffffffffffffffffffffffffff1673ffffffffffffffffffffffffffffffffffffffff16815260200190815260200160002060000160159054906101000a900460ff1662000b38576040517f08c379a000000000000000000000000000000000000000000000000000000000815260040162000b2f9062003161565b60405180910390fd5b6000600160008473ffffffffffffffffffffffffffffffffffffffff1673ffffffffffffffffffffffffffffffffffffffff16815260200190815260200160002060000160009054906101000a900473ffffffffffffffffffffffffffffffffffffffff16905060008173ffffffffffffffffffffffffffffffffffffffff1663dd62ed3e33306040518363ffffffff1660e01b815260040162000bde92919062002f65565b60206040518083038186803b15801562000bf757600080fd5b505afa15801562000c0c573d6000803e3d6000fd5b505050506040513d601f19601f8201168201806040525081019062000c32919062002910565b90508281101562000c7a576040517f08c379a000000000000000000000000000000000000000000000000000000000815260040162000c7190620031e9565b60405180910390fd5b8173ffffffffffffffffffffffffffffffffffffffff166323b872dd3330866040518463ffffffff1660e01b815260040162000cb99392919062002f92565b602060405180830381600087803b15801562000cd457600080fd5b505af115801562000ce9573d6000803e3d6000fd5b505050506040513d601f19601f8201168201806040525081019062000d0f919062002778565b50600160008573ffffffffffffffffffffffffffffffffffffffff1673ffffffffffffffffffffffffffffffffffffffff16815260200190815260200160002060000160149054906101000a900460ff161562000eaf57828273ffffffffffffffffffffffffffffffffffffffff166370a08231306040518263ffffffff1660e01b815260040162000da2919062002f48565b60206040518083038186803b15801562000dbb57600080fd5b505afa15801562000dd0573d6000803e3d6000fd5b505050506040513d601f19601f8201168201806040525081019062000df6919062002910565b101562000e3a576040517f08c379a000000000000000000000000000000000000000000000000000000000815260040162000e319062003183565b60405180910390fd5b8173ffffffffffffffffffffffffffffffffffffffff166342966c68846040518263ffffffff1660e01b815260040162000e7591906200322d565b600060405180830381600087803b15801562000e9057600080fd5b505af115801562000ea5573d6000803e3d6000fd5b5050505062000eb0565b5b50505050565b6002818154811062000ec757600080fd5b90600052602060002090600402016000915090508060000160009054906101000a900473ffffffffffffffffffffffffffffffffffffffff16908060010160009054906101000a900473ffffffffffffffffffffffffffffffffffffffff16908060010160149054906101000a900460ff1690806002018054600181600116156101000203166002900480601f01602080910402602001604051908101604052809291908181526020018280546001816001161561010002031660029004801562000fd65780601f1062000faa5761010080835404028352916020019162000fd6565b820191906000526020600020905b81548152906001019060200180831162000fb857829003601f168201915b505050505090806003018054600181600116156101000203166002900480601f016020809104026020016040519081016040528092919081815260200182805460018160011615610100020316600290048015620010785780601f106200104c5761010080835404028352916020019162001078565b820191906000526020600020905b8154815290600101906020018083116200105a57829003601f168201915b5050505050905085565b6200108c620016c3565b620010ce576040517f08c379a0000000000000000000000000000000000000000000000000000000008152600401620010c5906200320b565b60405180910390fd5b6000600160008573ffffffffffffffffffffffffffffffffffffffff1673ffffffffffffffffffffffffffffffffffffffff16815260200190815260200160002060000160159054906101000a900460ff16156200139057600160008573ffffffffffffffffffffffffffffffffffffffff1673ffffffffffffffffffffffffffffffffffffffff16815260200190815260200160002060000160009054906101000a900473ffffffffffffffffffffffffffffffffffffffff16905060008190506000620012298567ffffffffffffffff168373ffffffffffffffffffffffffffffffffffffffff1663313ce5676040518163ffffffff1660e01b815260040160206040518083038186803b158015620011e857600080fd5b505afa158015620011fd573d6000803e3d6000fd5b505050506040513d601f19601f820116820180604052508101906200122391906200297d565b620013fa565b9050600160008773ffffffffffffffffffffffffffffffffffffffff1673ffffffffffffffffffffffffffffffffffffffff16815260200190815260200160002060000160149054906101000a900460ff1615620012f8578173ffffffffffffffffffffffffffffffffffffffff166340c10f1985836040518363ffffffff1660e01b8152600401620012be92919062003077565b600060405180830381600087803b158015620012d957600080fd5b505af1158015620012ee573d6000803e3d6000fd5b505050506200138d565b8173ffffffffffffffffffffffffffffffffffffffff1663a9059cbb85836040518363ffffffff1660e01b81526004016200133592919062003077565b602060405180830381600087803b1580156200135057600080fd5b505af115801562001365573d6000803e3d6000fd5b505050506040513d601f19601f820116820180604052508101906200138b919062002778565b505b50505b50505050565b60016020528060005260406000206000915090508060000160009054906101000a900473ffffffffffffffffffffffffffffffffffffffff16908060000160149054906101000a900460ff16908060000160159054906101000a900460ff16905083565b600080600a9050600084905060088460ff1611156200142a576008840391508160ff16600a0a8502905062001452565b60088460ff16101562001451578360080391508160ff16600a0a85816200144d57fe5b0490505b5b809250505092915050565b6000600160008373ffffffffffffffffffffffffffffffffffffffff1673ffffffffffffffffffffffffffffffffffffffff16815260200190815260200160002060000160159054906101000a900460ff169050919050565b600080600160008473ffffffffffffffffffffffffffffffffffffffff1673ffffffffffffffffffffffffffffffffffffffff1681526020019081526020016000206040518060600160405290816000820160009054906101000a900473ffffffffffffffffffffffffffffffffffffffff1673ffffffffffffffffffffffffffffffffffffffff1673ffffffffffffffffffffffffffffffffffffffff1681526020016000820160149054906101000a900460ff161515151581526020016000820160159054906101000a900460ff16151515158152505090508060400151620015d8576040517f08c379a0000000000000000000000000000000000000000000000000000000008152600401620015cf90620031c7565b60405180910390fd5b6000816000015190508092505050919050565b600073ffffffffffffffffffffffffffffffffffffffff16600360009054906101000a900473ffffffffffffffffffffffffffffffffffffffff1673ffffffffffffffffffffffffffffffffffffffff16146200167f576040517f08c379a00000000000000000000000000000000000000000000000000000000081526004016200167690620031a5565b60405180910390fd5b80600360006101000a81548173ffffffffffffffffffffffffffffffffffffffff021916908373ffffffffffffffffffffffffffffffffffffffff16021790555050565b60008073ffffffffffffffffffffffffffffffffffffffff16600360009054906101000a900473ffffffffffffffffffffffffffffffffffffffff1673ffffffffffffffffffffffffffffffffffffffff1614156200172657600190506200177a565b600360009054906101000a900473ffffffffffffffffffffffffffffffffffffffff1673ffffffffffffffffffffffffffffffffffffffff163373ffffffffffffffffffffffffffffffffffffffff161490505b90565b60606000600467ffffffffffffffff811180156200179a57600080fd5b506040519080825280601f01601f191660200182016040528015620017ce5781602001600182028036833780820191505090505b50905060008390506000601f6004835111620017ef57825160ff16620017f2565b60045b0190506000602090505b81811162001818578083015181850152602081019050620017fc565b50829350505050919050565b6000808383604051620018379062002270565b6200184492919062003126565b604051809103906000f08015801562001861573d6000803e3d6000fd5b50905060405180606001604052808273ffffffffffffffffffffffffffffffffffffffff16815260200160011515815260200160011515815250600160008773ffffffffffffffffffffffffffffffffffffffff1673ffffffffffffffffffffffffffffffffffffffff16815260200190815260200160002060008201518160000160006101000a81548173ffffffffffffffffffffffffffffffffffffffff021916908373ffffffffffffffffffffffffffffffffffffffff16021790555060208201518160000160146101000a81548160ff02191690831515021790555060408201518160000160156101000a81548160ff02191690831515021790555090505060026040518060a001604052808773ffffffffffffffffffffffffffffffffffffffff1681526020018373ffffffffffffffffffffffffffffffffffffffff16815260200160001515815260200186815260200185815250908060018154018082558091505060019003906000526020600020906004020160009091909190915060008201518160000160006101000a81548173ffffffffffffffffffffffffffffffffffffffff021916908373ffffffffffffffffffffffffffffffffffffffff16021790555060208201518160010160006101000a81548173ffffffffffffffffffffffffffffffffffffffff021916908373ffffffffffffffffffffffffffffffffffffffff16021790555060408201518160010160146101000a81548160ff021916908315150217905550606082015181600201908051906020019062001ab19291906200227e565b50608082015181600301908051906020019062001ad09291906200227e565b5050507f2e2b3f61b70d2d131b2a807371103cc98d51adcaa5e9a8f9c32658ad8426e74e8160405162001b04919062002f48565b60405180910390a1809150509392505050565b600060405180606001604052808373ffffffffffffffffffffffffffffffffffffffff16815260200160001515815260200160011515815250600160008573ffffffffffffffffffffffffffffffffffffffff1673ffffffffffffffffffffffffffffffffffffffff16815260200190815260200160002060008201518160000160006101000a81548173ffffffffffffffffffffffffffffffffffffffff021916908373ffffffffffffffffffffffffffffffffffffffff16021790555060208201518160000160146101000a81548160ff02191690831515021790555060408201518160000160156101000a81548160ff021916908315150217905550905050600082905060026040518060a001604052808673ffffffffffffffffffffffffffffffffffffffff1681526020018573ffffffffffffffffffffffffffffffffffffffff1681526020016001151581526020018373ffffffffffffffffffffffffffffffffffffffff166306fdde036040518163ffffffff1660e01b815260040160006040518083038186803b15801562001cb357600080fd5b505afa15801562001cc8573d6000803e3d6000fd5b505050506040513d6000823e3d601f19601f8201168201806040525081019062001cf3919062002815565b81526020018373ffffffffffffffffffffffffffffffffffffffff166395d89b416040518163ffffffff1660e01b815260040160006040518083038186803b15801562001d3f57600080fd5b505afa15801562001d54573d6000803e3d6000fd5b505050506040513d6000823e3d601f19601f8201168201806040525081019062001d7f919062002815565b815250908060018154018082558091505060019003906000526020600020906004020160009091909190915060008201518160000160006101000a81548173ffffffffffffffffffffffffffffffffffffffff021916908373ffffffffffffffffffffffffffffffffffffffff16021790555060208201518160010160006101000a81548173ffffffffffffffffffffffffffffffffffffffff021916908373ffffffffffffffffffffffffffffffffffffffff16021790555060408201518160010160146101000a81548160ff021916908315150217905550606082015181600201908051906020019062001e779291906200227e565b50608082015181600301908051906020019062001e969291906200227e565b5050508391505092915050565b606060008290506000815167ffffffffffffffff8111801562001ec557600080fd5b506040519080825280601f01601f19166020018201604052801562001ef95781602001600182028036833780820191505090505b50905060005b82518110156200202257604183828151811062001f1857fe5b602001015160f81c60f81b60f81c60ff161015801562001f565750605a83828151811062001f4257fe5b602001015160f81c60f81b60f81c60ff1611155b1562001fbf57602083828151811062001f6b57fe5b602001015160f81c60f81b60f81c0160f81b82828151811062001f8a57fe5b60200101907effffffffffffffffffffffffffffffffffffffffffffffffffffffffffffff1916908160001a90535062002014565b82818151811062001fcc57fe5b602001015160f81c60f81b82828151811062001fe457fe5b60200101907effffffffffffffffffffffffffffffffffffffffffffffffffffffffffffff1916908160001a9053505b808060010191505062001eff565b508092505050919050565b60006002808360405160200162002045919062002f2f565b60405160208183030381529060405260405162002063919062002f16565b602060405180830381855afa15801562002081573d6000803e3d6000fd5b5050506040513d601f19601f82011682018060405250810190620020a69190620027a4565b604051602001620020b8919062002ef9565b604051602081830303815290604052604051620020d6919062002f16565b602060405180830381855afa158015620020f4573d6000803e3d6000fd5b5050506040513d601f19601f82011682018060405250810190620021199190620027a4565b9050919050565b60006002808360405160200162002138919062002f16565b60405160208183030381529060405260405162002156919062002f16565b602060405180830381855afa15801562002174573d6000803e3d6000fd5b5050506040513d601f19601f82011682018060405250810190620021999190620027a4565b604051602001620021ab919062002ef9565b604051602081830303815290604052604051620021c9919062002f16565b602060405180830381855afa158015620021e7573d6000803e3d6000fd5b5050506040513d601f19601f820116820180604052508101906200220c9190620027a4565b9050919050565b6040518060a00160405280600073ffffffffffffffffffffffffffffffffffffffff168152602001600073ffffffffffffffffffffffffffffffffffffffff16815260200160001515815260200160608152602001606081525090565b611aa3806200358983390190565b828054600181600116156101000203166002900490600052602060002090601f016020900481019282620022b6576000855562002302565b82601f10620022d157805160ff191683800117855562002302565b8280016001018555821562002302579182015b8281111562002301578251825591602001919060010190620022e4565b5b50905062002311919062002315565b5090565b5b808211156200233057600081600090555060010162002316565b5090565b60006200234b62002345846200327e565b6200324a565b9050828152602081018484840111156200236457600080fd5b6200237184828562003455565b509392505050565b6000620023906200238a84620032b1565b6200324a565b905082815260208101848484011115620023a957600080fd5b620023b684828562003455565b509392505050565b6000620023d5620023cf84620032b1565b6200324a565b905082815260208101848484011115620023ee57600080fd5b620023fb84828562003464565b509392505050565b6000813590506200241481620034ec565b92915050565b6000815190506200242b81620034ec565b92915050565b600081519050620024428162003506565b92915050565b600081519050620024598162003520565b92915050565b600082601f8301126200247157600080fd5b81356200248384826020860162002334565b91505092915050565b600082601f8301126200249e57600080fd5b8135620024b084826020860162002379565b91505092915050565b600082601f830112620024cb57600080fd5b8151620024dd848260208601620023be565b91505092915050565b600060a08284031215620024f957600080fd5b6200250560a06200324a565b90506000620025178482850162002403565b600083015250602082013567ffffffffffffffff8111156200253857600080fd5b62002546848285016200248c565b60208301525060406200255c8482850162002403565b6040830152506060620025728482850162002403565b6060830152506080620025888482850162002403565b60808301525092915050565b600060a08284031215620025a757600080fd5b620025b360a06200324a565b90506000620025c5848285016200241a565b600083015250602082015167ffffffffffffffff811115620025e657600080fd5b620025f484828501620024b9565b60208301525060406200260a848285016200241a565b604083015250606062002620848285016200241a565b606083015250608062002636848285016200241a565b60808301525092915050565b60008135905062002653816200353a565b92915050565b6000815190506200266a816200353a565b92915050565b600081359050620026818162003554565b92915050565b60008135905062002698816200356e565b92915050565b600081519050620026af816200356e565b92915050565b600060208284031215620026c857600080fd5b6000620026d88482850162002403565b91505092915050565b60008060408385031215620026f557600080fd5b6000620027058582860162002403565b9250506020620027188582860162002642565b9150509250929050565b6000806000606084860312156200273857600080fd5b6000620027488682870162002403565b93505060206200275b8682870162002670565b92505060406200276e8682870162002403565b9150509250925092565b6000602082840312156200278b57600080fd5b60006200279b8482850162002431565b91505092915050565b600060208284031215620027b757600080fd5b6000620027c78482850162002448565b91505092915050565b600060208284031215620027e357600080fd5b600082013567ffffffffffffffff811115620027fe57600080fd5b6200280c848285016200245f565b91505092915050565b6000602082840312156200282857600080fd5b600082015167ffffffffffffffff8111156200284357600080fd5b6200285184828501620024b9565b91505092915050565b6000602082840312156200286d57600080fd5b600082013567ffffffffffffffff8111156200288857600080fd5b6200289684828501620024e6565b91505092915050565b600060208284031215620028b257600080fd5b600082015167ffffffffffffffff811115620028cd57600080fd5b620028db8482850162002594565b91505092915050565b600060208284031215620028f757600080fd5b6000620029078482850162002642565b91505092915050565b6000602082840312156200292357600080fd5b6000620029338482850162002659565b91505092915050565b600080604083850312156200295057600080fd5b6000620029608582860162002642565b9250506020620029738582860162002687565b9150509250929050565b6000602082840312156200299057600080fd5b6000620029a0848285016200269e565b91505092915050565b6000620029b7838362002e31565b905092915050565b620029ca81620033f1565b82525050565b620029db816200337c565b82525050565b620029ec816200337c565b82525050565b62002a0762002a01826200337c565b6200349a565b82525050565b600062002a1a82620032f4565b62002a26818562003322565b93508360208202850162002a3a85620032e4565b8060005b8581101562002a7c578484038952815162002a5a8582620029a9565b945062002a678362003315565b925060208a0199505060018101905062002a3e565b50829750879550505050505092915050565b62002a998162003390565b82525050565b62002aaa8162003390565b82525050565b62002ac562002abf826200339c565b620034ae565b82525050565b600062002ad882620032ff565b62002ae4818562003333565b935062002af681856020860162003464565b62002b0181620034ce565b840191505092915050565b600062002b1982620032ff565b62002b25818562003344565b935062002b3781856020860162003464565b80840191505092915050565b62002b4e8162003405565b82525050565b600062002b61826200330a565b62002b6d81856200334f565b935062002b7f81856020860162003464565b62002b8a81620034ce565b840191505092915050565b600062002ba2826200330a565b62002bae818562003360565b935062002bc081856020860162003464565b62002bcb81620034ce565b840191505092915050565b600062002be3826200330a565b62002bef818562003371565b935062002c0181856020860162003464565b80840191505092915050565b600062002c1c60218362003360565b91507f546f6b656e20686173206e6f74206265656e207265676973746572656420796560008301527f74000000000000000000000000000000000000000000000000000000000000006020830152604082019050919050565b600062002c8460158362003360565b91507f546f6b656e73206469646e74207472616e7366657200000000000000000000006000830152602082019050919050565b600062002cc660318362003360565b91507f7665727573427269646765436f6e74726163742041646472657373206861732060008301527f616c7265616479206265656e207365742e0000000000000000000000000000006020830152604082019050919050565b600062002d2e601b8362003360565b91507f54686520746f6b656e206973206e6f74207265676973746572656400000000006000830152602082019050919050565b600062002d7060248362003360565b91507f4e6f7420656e6f75676820746f6b656e732068617665206265656e206170707260008301527f6f766564000000000000000000000000000000000000000000000000000000006020830152604082019050919050565b600062002dd860308362003360565b91507f43616c6c2063616e206f6e6c79206265206d6164652066726f6d20566572757360008301527f2042726964676520436f6e7472616374000000000000000000000000000000006020830152604082019050919050565b600060a08301600083015162002e4b6000860182620029d0565b50602083015162002e606020860182620029d0565b50604083015162002e75604086018262002a8e565b506060830151848203606086015262002e8f828262002b54565b9150506080830151848203608086015262002eab828262002b54565b9150508091505092915050565b62002ec381620033c6565b82525050565b600062002ed78285620029f2565b60148201915062002ee9828462002ab0565b6020820191508190509392505050565b600062002f07828462002ab0565b60208201915081905092915050565b600062002f24828462002b0c565b915081905092915050565b600062002f3d828462002bd6565b915081905092915050565b600060208201905062002f5f6000830184620029e1565b92915050565b600060408201905062002f7c6000830185620029bf565b62002f8b6020830184620029e1565b9392505050565b600060608201905062002fa96000830186620029bf565b62002fb86020830185620029e1565b62002fc7604083018462002eb8565b949350505050565b600060a08201905062002fe66000830188620029e1565b62002ff56020830187620029e1565b62003004604083018662002a9f565b818103606083015262003018818562002b95565b905081810360808301526200302e818462002b95565b90509695505050505050565b6000606082019050620030516000830186620029e1565b62003060602083018562002a9f565b6200306f604083018462002a9f565b949350505050565b60006040820190506200308e6000830185620029e1565b6200309d602083018462002eb8565b9392505050565b60006020820190508181036000830152620030c0818462002a0d565b905092915050565b6000602082019050620030df600083018462002a9f565b92915050565b6000602082019050818103600083015262003101818462002acb565b905092915050565b600060208201905062003120600083018462002b43565b92915050565b6000604082019050818103600083015262003142818562002b95565b9050818103602083015262003158818462002b95565b90509392505050565b600060208201905081810360008301526200317c8162002c0d565b9050919050565b600060208201905081810360008301526200319e8162002c75565b9050919050565b60006020820190508181036000830152620031c08162002cb7565b9050919050565b60006020820190508181036000830152620031e28162002d1f565b9050919050565b60006020820190508181036000830152620032048162002d61565b9050919050565b60006020820190508181036000830152620032268162002dc9565b9050919050565b600060208201905062003244600083018462002eb8565b92915050565b6000604051905081810181811067ffffffffffffffff82111715620032745762003273620034cc565b5b8060405250919050565b600067ffffffffffffffff8211156200329c576200329b620034cc565b5b601f19601f8301169050602081019050919050565b600067ffffffffffffffff821115620032cf57620032ce620034cc565b5b601f19601f8301169050602081019050919050565b6000819050602082019050919050565b600081519050919050565b600081519050919050565b600081519050919050565b6000602082019050919050565b600082825260208201905092915050565b600082825260208201905092915050565b600081905092915050565b600082825260208201905092915050565b600082825260208201905092915050565b600081905092915050565b60006200338982620033a6565b9050919050565b60008115159050919050565b6000819050919050565b600073ffffffffffffffffffffffffffffffffffffffff82169050919050565b6000819050919050565b600067ffffffffffffffff82169050919050565b600060ff82169050919050565b6000620033fe826200342d565b9050919050565b6000620034128262003419565b9050919050565b60006200342682620033a6565b9050919050565b60006200343a8262003441565b9050919050565b60006200344e82620033a6565b9050919050565b82818337600083830152505050565b60005b838110156200348457808201518184015260208101905062003467565b8381111562003494576000848401525b50505050565b6000620034a782620034b8565b9050919050565b6000819050919050565b6000620034c582620034df565b9050919050565bfe5b6000601f19601f8301169050919050565b60008160601b9050919050565b620034f7816200337c565b81146200350357600080fd5b50565b620035118162003390565b81146200351d57600080fd5b50565b6200352b816200339c565b81146200353757600080fd5b50565b6200354581620033c6565b81146200355157600080fd5b50565b6200355f81620033d0565b81146200356b57600080fd5b50565b6200357981620033e4565b81146200358557600080fd5b5056fe60806040523480156200001157600080fd5b5060405162001aa338038062001aa3833981810160405260408110156200003757600080fd5b81019080805160405193929190846401000000008211156200005857600080fd5b838201915060208201858111156200006f57600080fd5b82518660018202830111640100000000821117156200008d57600080fd5b8083526020830192505050908051906020019080838360005b83811015620000c3578082015181840152602081019050620000a6565b50505050905090810190601f168015620000f15780820380516001836020036101000a031916815260200191505b50604052602001805160405193929190846401000000008211156200011557600080fd5b838201915060208201858111156200012c57600080fd5b82518660018202830111640100000000821117156200014a57600080fd5b8083526020830192505050908051906020019080838360005b838110156200018057808201518184015260208101905062000163565b50505050905090810190601f168015620001ae5780820380516001836020036101000a031916815260200191505b5060405250505081818160039080519060200190620001cf92919062000250565b508060049080519060200190620001e892919062000250565b506012600560006101000a81548160ff021916908360ff160217905550505033600560016101000a81548173ffffffffffffffffffffffffffffffffffffffff021916908373ffffffffffffffffffffffffffffffffffffffff160217905550505062000306565b828054600181600116156101000203166002900490600052602060002090601f016020900481019282620002885760008555620002d4565b82601f10620002a357805160ff1916838001178555620002d4565b82800160010185558215620002d4579182015b82811115620002d3578251825591602001919060010190620002b6565b5b509050620002e39190620002e7565b5090565b5b8082111562000302576000816000905550600101620002e8565b5090565b61178d80620003166000396000f3fe608060405234801561001057600080fd5b50600436106100cf5760003560e01c806340c10f191161008c57806395d89b411161006657806395d89b41146103b6578063a457c2d714610439578063a9059cbb1461049d578063dd62ed3e14610501576100cf565b806340c10f19146102e257806342966c681461033057806370a082311461035e576100cf565b806306fdde03146100d4578063095ea7b31461015757806318160ddd146101bb57806323b872dd146101d9578063313ce5671461025d578063395093511461027e575b600080fd5b6100dc610579565b6040518080602001828103825283818151815260200191508051906020019080838360005b8381101561011c578082015181840152602081019050610101565b50505050905090810190601f1680156101495780820380516001836020036101000a031916815260200191505b509250505060405180910390f35b6101a36004803603604081101561016d57600080fd5b81019080803573ffffffffffffffffffffffffffffffffffffffff1690602001909291908035906020019092919050505061061b565b60405180821515815260200191505060405180910390f35b6101c3610639565b6040518082815260200191505060405180910390f35b610245600480360360608110156101ef57600080fd5b81019080803573ffffffffffffffffffffffffffffffffffffffff169060200190929190803573ffffffffffffffffffffffffffffffffffffffff16906020019092919080359060200190929190505050610643565b60405180821515815260200191505060405180910390f35b61026561071c565b604051808260ff16815260200191505060405180910390f35b6102ca6004803603604081101561029457600080fd5b81019080803573ffffffffffffffffffffffffffffffffffffffff16906020019092919080359060200190929190505050610733565b60405180821515815260200191505060405180910390f35b61032e600480360360408110156102f857600080fd5b81019080803573ffffffffffffffffffffffffffffffffffffffff169060200190929190803590602001909291905050506107e6565b005b61035c6004803603602081101561034657600080fd5b810190808035906020019092919050505061089a565b005b6103a06004803603602081101561037457600080fd5b81019080803573ffffffffffffffffffffffffffffffffffffffff169060200190929190505050610954565b6040518082815260200191505060405180910390f35b6103be61099c565b6040518080602001828103825283818151815260200191508051906020019080838360005b838110156103fe5780820151818401526020810190506103e3565b50505050905090810190601f16801561042b5780820380516001836020036101000a031916815260200191505b509250505060405180910390f35b6104856004803603604081101561044f57600080fd5b81019080803573ffffffffffffffffffffffffffffffffffffffff16906020019092919080359060200190929190505050610a3e565b60405180821515815260200191505060405180910390f35b6104e9600480360360408110156104b357600080fd5b81019080803573ffffffffffffffffffffffffffffffffffffffff16906020019092919080359060200190929190505050610b0b565b60405180821515815260200191505060405180910390f35b6105636004803603604081101561051757600080fd5b81019080803573ffffffffffffffffffffffffffffffffffffffff169060200190929190803573ffffffffffffffffffffffffffffffffffffffff169060200190929190505050610b29565b6040518082815260200191505060405180910390f35b606060038054600181600116156101000203166002900480601f0160208091040260200160405190810160405280929190818152602001828054600181600116156101000203166002900480156106115780601f106105e657610100808354040283529160200191610611565b820191906000526020600020905b8154815290600101906020018083116105f457829003601f168201915b5050505050905090565b600061062f610628610bb0565b8484610bb8565b6001905092915050565b6000600254905090565b6000610650848484610daf565b6107118461065c610bb0565b61070c856040518060600160405280602881526020016116a160289139600160008b73ffffffffffffffffffffffffffffffffffffffff1673ffffffffffffffffffffffffffffffffffffffff16815260200190815260200160002060006106c2610bb0565b73ffffffffffffffffffffffffffffffffffffffff1673ffffffffffffffffffffffffffffffffffffffff168152602001908152602001600020546110709092919063ffffffff16565b610bb8565b600190509392505050565b6000600560009054906101000a900460ff16905090565b60006107dc610740610bb0565b846107d78560016000610751610bb0565b73ffffffffffffffffffffffffffffffffffffffff1673ffffffffffffffffffffffffffffffffffffffff16815260200190815260200160002060008973ffffffffffffffffffffffffffffffffffffffff1673ffffffffffffffffffffffffffffffffffffffff1681526020019081526020016000205461112a90919063ffffffff16565b610bb8565b6001905092915050565b600560019054906101000a900473ffffffffffffffffffffffffffffffffffffffff1673ffffffffffffffffffffffffffffffffffffffff163373ffffffffffffffffffffffffffffffffffffffff161461088c576040517f08c379a00000000000000000000000000000000000000000000000000000000081526004018080602001828103825260278152602001806116536027913960400191505060405180910390fd5b61089682826111b2565b5050565b600560019054906101000a900473ffffffffffffffffffffffffffffffffffffffff1673ffffffffffffffffffffffffffffffffffffffff163373ffffffffffffffffffffffffffffffffffffffff1614610940576040517f08c379a000000000000000000000000000000000000000000000000000000000815260040180806020018281038252602781526020018061167a6027913960400191505060405180910390fd5b61095161094b610bb0565b82611379565b50565b60008060008373ffffffffffffffffffffffffffffffffffffffff1673ffffffffffffffffffffffffffffffffffffffff168152602001908152602001600020549050919050565b606060048054600181600116156101000203166002900480601f016020809104026020016040519081016040528092919081815260200182805460018160011615610100020316600290048015610a345780601f10610a0957610100808354040283529160200191610a34565b820191906000526020600020905b815481529060010190602001808311610a1757829003601f168201915b5050505050905090565b6000610b01610a4b610bb0565b84610afc856040518060600160405280602581526020016117336025913960016000610a75610bb0565b73ffffffffffffffffffffffffffffffffffffffff1673ffffffffffffffffffffffffffffffffffffffff16815260200190815260200160002060008a73ffffffffffffffffffffffffffffffffffffffff1673ffffffffffffffffffffffffffffffffffffffff168152602001908152602001600020546110709092919063ffffffff16565b610bb8565b6001905092915050565b6000610b1f610b18610bb0565b8484610daf565b6001905092915050565b6000600160008473ffffffffffffffffffffffffffffffffffffffff1673ffffffffffffffffffffffffffffffffffffffff16815260200190815260200160002060008373ffffffffffffffffffffffffffffffffffffffff1673ffffffffffffffffffffffffffffffffffffffff16815260200190815260200160002054905092915050565b600033905090565b600073ffffffffffffffffffffffffffffffffffffffff168373ffffffffffffffffffffffffffffffffffffffff161415610c3e576040517f08c379a000000000000000000000000000000000000000000000000000000000815260040180806020018281038252602481526020018061170f6024913960400191505060405180910390fd5b600073ffffffffffffffffffffffffffffffffffffffff168273ffffffffffffffffffffffffffffffffffffffff161415610cc4576040517f08c379a000000000000000000000000000000000000000000000000000000000815260040180806020018281038252602281526020018061160b6022913960400191505060405180910390fd5b80600160008573ffffffffffffffffffffffffffffffffffffffff1673ffffffffffffffffffffffffffffffffffffffff16815260200190815260200160002060008473ffffffffffffffffffffffffffffffffffffffff1673ffffffffffffffffffffffffffffffffffffffff168152602001908152602001600020819055508173ffffffffffffffffffffffffffffffffffffffff168373ffffffffffffffffffffffffffffffffffffffff167f8c5be1e5ebec7d5bd14f71427d1e84f3dd0314c0f7b2291e5b200ac8c7c3b925836040518082815260200191505060405180910390a3505050565b600073ffffffffffffffffffffffffffffffffffffffff168373ffffffffffffffffffffffffffffffffffffffff161415610e35576040517f08c379a00000000000000000000000000000000000000000000000000000000081526004018080602001828103825260258152602001806116ea6025913960400191505060405180910390fd5b600073ffffffffffffffffffffffffffffffffffffffff168273ffffffffffffffffffffffffffffffffffffffff161415610ebb576040517f08c379a00000000000000000000000000000000000000000000000000000000081526004018080602001828103825260238152602001806115c66023913960400191505060405180910390fd5b610ec683838361153d565b610f318160405180606001604052806026815260200161162d602691396000808773ffffffffffffffffffffffffffffffffffffffff1673ffffffffffffffffffffffffffffffffffffffff168152602001908152602001600020546110709092919063ffffffff16565b6000808573ffffffffffffffffffffffffffffffffffffffff1673ffffffffffffffffffffffffffffffffffffffff16815260200190815260200160002081905550610fc4816000808573ffffffffffffffffffffffffffffffffffffffff1673ffffffffffffffffffffffffffffffffffffffff1681526020019081526020016000205461112a90919063ffffffff16565b6000808473ffffffffffffffffffffffffffffffffffffffff1673ffffffffffffffffffffffffffffffffffffffff168152602001908152602001600020819055508173ffffffffffffffffffffffffffffffffffffffff168373ffffffffffffffffffffffffffffffffffffffff167fddf252ad1be2c89b69c2b068fc378daa952ba7f163c4a11628f55a4df523b3ef836040518082815260200191505060405180910390a3505050565b600083831115829061111d576040517f08c379a00000000000000000000000000000000000000000000000000000000081526004018080602001828103825283818151815260200191508051906020019080838360005b838110156110e25780820151818401526020810190506110c7565b50505050905090810190601f16801561110f5780820380516001836020036101000a031916815260200191505b509250505060405180910390fd5b5082840390509392505050565b6000808284019050838110156111a8576040517f08c379a000000000000000000000000000000000000000000000000000000000815260040180806020018281038252601b8152602001807f536166654d6174683a206164646974696f6e206f766572666c6f77000000000081525060200191505060405180910390fd5b8091505092915050565b600073ffffffffffffffffffffffffffffffffffffffff168273ffffffffffffffffffffffffffffffffffffffff161415611255576040517f08c379a000000000000000000000000000000000000000000000000000000000815260040180806020018281038252601f8152602001807f45524332303a206d696e7420746f20746865207a65726f20616464726573730081525060200191505060405180910390fd5b6112616000838361153d565b6112768160025461112a90919063ffffffff16565b6002819055506112cd816000808573ffffffffffffffffffffffffffffffffffffffff1673ffffffffffffffffffffffffffffffffffffffff1681526020019081526020016000205461112a90919063ffffffff16565b6000808473ffffffffffffffffffffffffffffffffffffffff1673ffffffffffffffffffffffffffffffffffffffff168152602001908152602001600020819055508173ffffffffffffffffffffffffffffffffffffffff16600073ffffffffffffffffffffffffffffffffffffffff167fddf252ad1be2c89b69c2b068fc378daa952ba7f163c4a11628f55a4df523b3ef836040518082815260200191505060405180910390a35050565b600073ffffffffffffffffffffffffffffffffffffffff168273ffffffffffffffffffffffffffffffffffffffff1614156113ff576040517f08c379a00000000000000000000000000000000000000000000000000000000081526004018080602001828103825260218152602001806116c96021913960400191505060405180910390fd5b61140b8260008361153d565b611476816040518060600160405280602281526020016115e9602291396000808673ffffffffffffffffffffffffffffffffffffffff1673ffffffffffffffffffffffffffffffffffffffff168152602001908152602001600020546110709092919063ffffffff16565b6000808473ffffffffffffffffffffffffffffffffffffffff1673ffffffffffffffffffffffffffffffffffffffff168152602001908152602001600020819055506114cd8160025461154290919063ffffffff16565b600281905550600073ffffffffffffffffffffffffffffffffffffffff168273ffffffffffffffffffffffffffffffffffffffff167fddf252ad1be2c89b69c2b068fc378daa952ba7f163c4a11628f55a4df523b3ef836040518082815260200191505060405180910390a35050565b505050565b6000828211156115ba576040517f08c379a000000000000000000000000000000000000000000000000000000000815260040180806020018281038252601e8152602001807f536166654d6174683a207375627472616374696f6e206f766572666c6f77000081525060200191505060405180910390fd5b81830390509291505056fe45524332303a207472616e7366657220746f20746865207a65726f206164647265737345524332303a206275726e20616d6f756e7420657863656564732062616c616e636545524332303a20617070726f766520746f20746865207a65726f206164647265737345524332303a207472616e7366657220616d6f756e7420657863656564732062616c616e63654f6e6c792074686520636f6e7472616374206f776e65722063616e204d696e7420546f6b656e734f6e6c792074686520636f6e7472616374206f776e65722063616e204275726e20546f6b656e7345524332303a207472616e7366657220616d6f756e74206578636565647320616c6c6f77616e636545524332303a206275726e2066726f6d20746865207a65726f206164647265737345524332303a207472616e736665722066726f6d20746865207a65726f206164647265737345524332303a20617070726f76652066726f6d20746865207a65726f206164647265737345524332303a2064656372656173656420616c6c6f77616e63652062656c6f77207a65726fa2646970667358221220373224cc144aea0f0c94e2f311bbcc0dd4391432e0a195dfada92bddcf26ecdd64736f6c63430007060033a264697066735822122085c30506f103f4540ee50b26d349aace0a301603d827d01222080dba52c858a764736f6c6343000706003360806040523480156200001157600080fd5b5060405162001aa338038062001aa3833981810160405260408110156200003757600080fd5b81019080805160405193929190846401000000008211156200005857600080fd5b838201915060208201858111156200006f57600080fd5b82518660018202830111640100000000821117156200008d57600080fd5b8083526020830192505050908051906020019080838360005b83811015620000c3578082015181840152602081019050620000a6565b50505050905090810190601f168015620000f15780820380516001836020036101000a031916815260200191505b50604052602001805160405193929190846401000000008211156200011557600080fd5b838201915060208201858111156200012c57600080fd5b82518660018202830111640100000000821117156200014a57600080fd5b8083526020830192505050908051906020019080838360005b838110156200018057808201518184015260208101905062000163565b50505050905090810190601f168015620001ae5780820380516001836020036101000a031916815260200191505b5060405250505081818160039080519060200190620001cf92919062000250565b508060049080519060200190620001e892919062000250565b506012600560006101000a81548160ff021916908360ff160217905550505033600560016101000a81548173ffffffffffffffffffffffffffffffffffffffff021916908373ffffffffffffffffffffffffffffffffffffffff160217905550505062000306565b828054600181600116156101000203166002900490600052602060002090601f016020900481019282620002885760008555620002d4565b82601f10620002a357805160ff1916838001178555620002d4565b82800160010185558215620002d4579182015b82811115620002d3578251825591602001919060010190620002b6565b5b509050620002e39190620002e7565b5090565b5b8082111562000302576000816000905550600101620002e8565b5090565b61178d80620003166000396000f3fe608060405234801561001057600080fd5b50600436106100cf5760003560e01c806340c10f191161008c57806395d89b411161006657806395d89b41146103b6578063a457c2d714610439578063a9059cbb1461049d578063dd62ed3e14610501576100cf565b806340c10f19146102e257806342966c681461033057806370a082311461035e576100cf565b806306fdde03146100d4578063095ea7b31461015757806318160ddd146101bb57806323b872dd146101d9578063313ce5671461025d578063395093511461027e575b600080fd5b6100dc610579565b6040518080602001828103825283818151815260200191508051906020019080838360005b8381101561011c578082015181840152602081019050610101565b50505050905090810190601f1680156101495780820380516001836020036101000a031916815260200191505b509250505060405180910390f35b6101a36004803603604081101561016d57600080fd5b81019080803573ffffffffffffffffffffffffffffffffffffffff1690602001909291908035906020019092919050505061061b565b60405180821515815260200191505060405180910390f35b6101c3610639565b6040518082815260200191505060405180910390f35b610245600480360360608110156101ef57600080fd5b81019080803573ffffffffffffffffffffffffffffffffffffffff169060200190929190803573ffffffffffffffffffffffffffffffffffffffff16906020019092919080359060200190929190505050610643565b60405180821515815260200191505060405180910390f35b61026561071c565b604051808260ff16815260200191505060405180910390f35b6102ca6004803603604081101561029457600080fd5b81019080803573ffffffffffffffffffffffffffffffffffffffff16906020019092919080359060200190929190505050610733565b60405180821515815260200191505060405180910390f35b61032e600480360360408110156102f857600080fd5b81019080803573ffffffffffffffffffffffffffffffffffffffff169060200190929190803590602001909291905050506107e6565b005b61035c6004803603602081101561034657600080fd5b810190808035906020019092919050505061089a565b005b6103a06004803603602081101561037457600080fd5b81019080803573ffffffffffffffffffffffffffffffffffffffff169060200190929190505050610954565b6040518082815260200191505060405180910390f35b6103be61099c565b6040518080602001828103825283818151815260200191508051906020019080838360005b838110156103fe5780820151818401526020810190506103e3565b50505050905090810190601f16801561042b5780820380516001836020036101000a031916815260200191505b509250505060405180910390f35b6104856004803603604081101561044f57600080fd5b81019080803573ffffffffffffffffffffffffffffffffffffffff16906020019092919080359060200190929190505050610a3e565b60405180821515815260200191505060405180910390f35b6104e9600480360360408110156104b357600080fd5b81019080803573ffffffffffffffffffffffffffffffffffffffff16906020019092919080359060200190929190505050610b0b565b60405180821515815260200191505060405180910390f35b6105636004803603604081101561051757600080fd5b81019080803573ffffffffffffffffffffffffffffffffffffffff169060200190929190803573ffffffffffffffffffffffffffffffffffffffff169060200190929190505050610b29565b6040518082815260200191505060405180910390f35b606060038054600181600116156101000203166002900480601f0160208091040260200160405190810160405280929190818152602001828054600181600116156101000203166002900480156106115780601f106105e657610100808354040283529160200191610611565b820191906000526020600020905b8154815290600101906020018083116105f457829003601f168201915b5050505050905090565b600061062f610628610bb0565b8484610bb8565b6001905092915050565b6000600254905090565b6000610650848484610daf565b6107118461065c610bb0565b61070c856040518060600160405280602881526020016116a160289139600160008b73ffffffffffffffffffffffffffffffffffffffff1673ffffffffffffffffffffffffffffffffffffffff16815260200190815260200160002060006106c2610bb0565b73ffffffffffffffffffffffffffffffffffffffff1673ffffffffffffffffffffffffffffffffffffffff168152602001908152602001600020546110709092919063ffffffff16565b610bb8565b600190509392505050565b6000600560009054906101000a900460ff16905090565b60006107dc610740610bb0565b846107d78560016000610751610bb0565b73ffffffffffffffffffffffffffffffffffffffff1673ffffffffffffffffffffffffffffffffffffffff16815260200190815260200160002060008973ffffffffffffffffffffffffffffffffffffffff1673ffffffffffffffffffffffffffffffffffffffff1681526020019081526020016000205461112a90919063ffffffff16565b610bb8565b6001905092915050565b600560019054906101000a900473ffffffffffffffffffffffffffffffffffffffff1673ffffffffffffffffffffffffffffffffffffffff163373ffffffffffffffffffffffffffffffffffffffff161461088c576040517f08c379a00000000000000000000000000000000000000000000000000000000081526004018080602001828103825260278152602001806116536027913960400191505060405180910390fd5b61089682826111b2565b5050565b600560019054906101000a900473ffffffffffffffffffffffffffffffffffffffff1673ffffffffffffffffffffffffffffffffffffffff163373ffffffffffffffffffffffffffffffffffffffff1614610940576040517f08c379a000000000000000000000000000000000000000000000000000000000815260040180806020018281038252602781526020018061167a6027913960400191505060405180910390fd5b61095161094b610bb0565b82611379565b50565b60008060008373ffffffffffffffffffffffffffffffffffffffff1673ffffffffffffffffffffffffffffffffffffffff168152602001908152602001600020549050919050565b606060048054600181600116156101000203166002900480601f016020809104026020016040519081016040528092919081815260200182805460018160011615610100020316600290048015610a345780601f10610a0957610100808354040283529160200191610a34565b820191906000526020600020905b815481529060010190602001808311610a1757829003601f168201915b5050505050905090565b6000610b01610a4b610bb0565b84610afc856040518060600160405280602581526020016117336025913960016000610a75610bb0565b73ffffffffffffffffffffffffffffffffffffffff1673ffffffffffffffffffffffffffffffffffffffff16815260200190815260200160002060008a73ffffffffffffffffffffffffffffffffffffffff1673ffffffffffffffffffffffffffffffffffffffff168152602001908152602001600020546110709092919063ffffffff16565b610bb8565b6001905092915050565b6000610b1f610b18610bb0565b8484610daf565b6001905092915050565b6000600160008473ffffffffffffffffffffffffffffffffffffffff1673ffffffffffffffffffffffffffffffffffffffff16815260200190815260200160002060008373ffffffffffffffffffffffffffffffffffffffff1673ffffffffffffffffffffffffffffffffffffffff16815260200190815260200160002054905092915050565b600033905090565b600073ffffffffffffffffffffffffffffffffffffffff168373ffffffffffffffffffffffffffffffffffffffff161415610c3e576040517f08c379a000000000000000000000000000000000000000000000000000000000815260040180806020018281038252602481526020018061170f6024913960400191505060405180910390fd5b600073ffffffffffffffffffffffffffffffffffffffff168273ffffffffffffffffffffffffffffffffffffffff161415610cc4576040517f08c379a000000000000000000000000000000000000000000000000000000000815260040180806020018281038252602281526020018061160b6022913960400191505060405180910390fd5b80600160008573ffffffffffffffffffffffffffffffffffffffff1673ffffffffffffffffffffffffffffffffffffffff16815260200190815260200160002060008473ffffffffffffffffffffffffffffffffffffffff1673ffffffffffffffffffffffffffffffffffffffff168152602001908152602001600020819055508173ffffffffffffffffffffffffffffffffffffffff168373ffffffffffffffffffffffffffffffffffffffff167f8c5be1e5ebec7d5bd14f71427d1e84f3dd0314c0f7b2291e5b200ac8c7c3b925836040518082815260200191505060405180910390a3505050565b600073ffffffffffffffffffffffffffffffffffffffff168373ffffffffffffffffffffffffffffffffffffffff161415610e35576040517f08c379a00000000000000000000000000000000000000000000000000000000081526004018080602001828103825260258152602001806116ea6025913960400191505060405180910390fd5b600073ffffffffffffffffffffffffffffffffffffffff168273ffffffffffffffffffffffffffffffffffffffff161415610ebb576040517f08c379a00000000000000000000000000000000000000000000000000000000081526004018080602001828103825260238152602001806115c66023913960400191505060405180910390fd5b610ec683838361153d565b610f318160405180606001604052806026815260200161162d602691396000808773ffffffffffffffffffffffffffffffffffffffff1673ffffffffffffffffffffffffffffffffffffffff168152602001908152602001600020546110709092919063ffffffff16565b6000808573ffffffffffffffffffffffffffffffffffffffff1673ffffffffffffffffffffffffffffffffffffffff16815260200190815260200160002081905550610fc4816000808573ffffffffffffffffffffffffffffffffffffffff1673ffffffffffffffffffffffffffffffffffffffff1681526020019081526020016000205461112a90919063ffffffff16565b6000808473ffffffffffffffffffffffffffffffffffffffff1673ffffffffffffffffffffffffffffffffffffffff168152602001908152602001600020819055508173ffffffffffffffffffffffffffffffffffffffff168373ffffffffffffffffffffffffffffffffffffffff167fddf252ad1be2c89b69c2b068fc378daa952ba7f163c4a11628f55a4df523b3ef836040518082815260200191505060405180910390a3505050565b600083831115829061111d576040517f08c379a00000000000000000000000000000000000000000000000000000000081526004018080602001828103825283818151815260200191508051906020019080838360005b838110156110e25780820151818401526020810190506110c7565b50505050905090810190601f16801561110f5780820380516001836020036101000a031916815260200191505b509250505060405180910390fd5b5082840390509392505050565b6000808284019050838110156111a8576040517f08c379a000000000000000000000000000000000000000000000000000000000815260040180806020018281038252601b8152602001807f536166654d6174683a206164646974696f6e206f766572666c6f77000000000081525060200191505060405180910390fd5b8091505092915050565b600073ffffffffffffffffffffffffffffffffffffffff168273ffffffffffffffffffffffffffffffffffffffff161415611255576040517f08c379a000000000000000000000000000000000000000000000000000000000815260040180806020018281038252601f8152602001807f45524332303a206d696e7420746f20746865207a65726f20616464726573730081525060200191505060405180910390fd5b6112616000838361153d565b6112768160025461112a90919063ffffffff16565b6002819055506112cd816000808573ffffffffffffffffffffffffffffffffffffffff1673ffffffffffffffffffffffffffffffffffffffff1681526020019081526020016000205461112a90919063ffffffff16565b6000808473ffffffffffffffffffffffffffffffffffffffff1673ffffffffffffffffffffffffffffffffffffffff168152602001908152602001600020819055508173ffffffffffffffffffffffffffffffffffffffff16600073ffffffffffffffffffffffffffffffffffffffff167fddf252ad1be2c89b69c2b068fc378daa952ba7f163c4a11628f55a4df523b3ef836040518082815260200191505060405180910390a35050565b600073ffffffffffffffffffffffffffffffffffffffff168273ffffffffffffffffffffffffffffffffffffffff1614156113ff576040517f08c379a00000000000000000000000000000000000000000000000000000000081526004018080602001828103825260218152602001806116c96021913960400191505060405180910390fd5b61140b8260008361153d565b611476816040518060600160405280602281526020016115e9602291396000808673ffffffffffffffffffffffffffffffffffffffff1673ffffffffffffffffffffffffffffffffffffffff168152602001908152602001600020546110709092919063ffffffff16565b6000808473ffffffffffffffffffffffffffffffffffffffff1673ffffffffffffffffffffffffffffffffffffffff168152602001908152602001600020819055506114cd8160025461154290919063ffffffff16565b600281905550600073ffffffffffffffffffffffffffffffffffffffff168273ffffffffffffffffffffffffffffffffffffffff167fddf252ad1be2c89b69c2b068fc378daa952ba7f163c4a11628f55a4df523b3ef836040518082815260200191505060405180910390a35050565b505050565b6000828211156115ba576040517f08c379a000000000000000000000000000000000000000000000000000000000815260040180806020018281038252601e8152602001807f536166654d6174683a207375627472616374696f6e206f766572666c6f77000081525060200191505060405180910390fd5b81830390509291505056fe45524332303a207472616e7366657220746f20746865207a65726f206164647265737345524332303a206275726e20616d6f756e7420657863656564732062616c616e636545524332303a20617070726f766520746f20746865207a65726f206164647265737345524332303a207472616e7366657220616d6f756e7420657863656564732062616c616e63654f6e6c792074686520636f6e7472616374206f776e65722063616e204d696e7420546f6b656e734f6e6c792074686520636f6e7472616374206f776e65722063616e204275726e20546f6b656e7345524332303a207472616e7366657220616d6f756e74206578636565647320616c6c6f77616e636545524332303a206275726e2066726f6d20746865207a65726f206164647265737345524332303a207472616e736665722066726f6d20746865207a65726f206164647265737345524332303a20617070726f76652066726f6d20746865207a65726f206164647265737345524332303a2064656372656173656420616c6c6f77616e63652062656c6f77207a65726fa2646970667358221220373224cc144aea0f0c94e2f311bbcc0dd4391432e0a195dfada92bddcf26ecdd64736f6c63430007060033",
  "immutableReferences": {},
  "source": "// SPDX-License-Identifier: MIT\n// Bridge between ethereum and verus\n\npragma solidity >=0.4.20;\npragma experimental ABIEncoderV2;\n\nimport \"./Token.sol\";\nimport \"../Libraries/VerusConstants.sol\";\nimport \"../Libraries/VerusObjects.sol\";\nimport \"./VerusSerializer.sol\";\n\ncontract TokenManager {\n    event TokenCreated(address tokenAddress);\n    VerusSerializer verusSerializer;\n    uint256 constant TICKER_LENGTH_MAX = 4;\n\n    //array of contracts address mapped to the token name\n    struct hostedToken {\n        address erc20ContractAddress;\n        bool VerusOwned;\n        bool isRegistered;\n    }\n\n    struct deployTokens {\n        address iaddress;\n        address eth_contract;\n        bool mapped;\n        string name;\n        string ticker;\n    }\n\n    mapping(address => hostedToken) public verusToERC20mapping;\n    deployTokens[] public tokenList;\n    address verusBridgeContract;\n\n    constructor(\n        address verusSerializerAddress,\n        deployTokens[] memory tokensToLaunch\n    ) {\n        verusBridgeContract = address(0);\n        verusSerializer = VerusSerializer(verusSerializerAddress);\n        launchTokens(tokensToLaunch);\n    }\n\n    function getTokenList() public view returns(deployTokens[] memory ) {\n\n        deployTokens[] memory temp = new deployTokens[](tokenList.length);\n\n        for(uint i=0; i< tokenList.length; i++)\n            temp[i] = tokenList[i];\n\n        return temp;\n    }\n\n    function convertFromVerusNumber(uint256 a, uint8 decimals)\n        public\n        pure\n        returns (uint256)\n    {\n        uint8 power = 10; //default value for 18\n        uint256 c = a;\n        if (decimals > 8) {\n            power = decimals - 8; // number of decimals in verus\n            c = a * (10**power);\n        } else if (decimals < 8) {\n            power = 8 - decimals; // number of decimals in verus\n            c = a / (10**power);\n        }\n\n        return c;\n    }\n\n    function setVerusBridgeContract(address _verusBridgeContract) public {\n        require(\n            verusBridgeContract == address(0),\n            \"verusBridgeContract Address has already been set.\"\n        );\n        verusBridgeContract = _verusBridgeContract;\n    }\n\n    function isVerusBridgeContract() private view returns (bool) {\n        if (verusBridgeContract == address(0)) return true;\n        else return msg.sender == verusBridgeContract;\n    }\n\n    //Tokens that are being exported from the eth blockchain are either destroyed or held until imported\n    function exportERC20Tokens(address _iaddress, uint256 _tokenAmount) public {\n        require(\n            isVerusBridgeContract(),\n            \"Call can only be made from Verus Bridge Contract\"\n        );\n        //check that the erc20 token is registered with the tokenManager\n        require(verusToERC20mapping[_iaddress].isRegistered, \"Token has not been registered yet\");\n\n        Token token = Token(verusToERC20mapping[_iaddress].erc20ContractAddress);\n\n        //transfer the tokens to the contract address\n        uint256 allowedTokens = token.allowance(msg.sender, address(this));\n        require(\n            allowedTokens >= _tokenAmount,              //values in wei\n            \"Not enough tokens have been approved\"\n        ); \n        //if its not approved it wont work\n        token.transferFrom(msg.sender, address(this), _tokenAmount);\n\n        if (verusToERC20mapping[_iaddress].VerusOwned) {\n\n            require(token.balanceOf(address(this)) >= _tokenAmount,\n                \"Tokens didnt transfer\"\n            );\n            token.burn(_tokenAmount);\n\n        } else {\n            //the contract stores the token\n        }\n    }\n\n    function importERC20Tokens(\n        address _iaddress,\n        uint64 _tokenAmount,\n        address _destination\n    ) public {\n        require(\n            isVerusBridgeContract(),\n            \"Call can only be made from Verus Bridge Contract\"\n        );\n        address contractAddress;\n        // if the token has not been previously created then it must be deployed\n\n        // if token that has been sent from verus is not registered on ETH burn the tokens\n        if (verusToERC20mapping[_iaddress].isRegistered) {\n            contractAddress = verusToERC20mapping[_iaddress]\n                .erc20ContractAddress;\n\n            Token token = Token(contractAddress);\n            uint256 processedTokenAmount = convertFromVerusNumber(\n                _tokenAmount,\n                token.decimals()\n            );\n            //if the token has been created by this contract then burn the token\n            if (verusToERC20mapping[_iaddress].VerusOwned) {\n\n                token.mint(address(_destination), processedTokenAmount);\n\n            } else {\n                //transfer from the contract\n                token.transfer(address(_destination), processedTokenAmount);\n            }\n        }\n    }\n\n    function ERC20Registered(address hosted) public view returns (bool) {\n\n        return verusToERC20mapping[hosted].isRegistered;\n        \n    }\n\n    function getTokenERC20(address VRSCAddress) public view returns (Token) {\n        hostedToken memory internalToken = verusToERC20mapping[VRSCAddress];\n        require(internalToken.isRegistered, \"The token is not registered\");\n        Token token = Token(internalToken.erc20ContractAddress);\n        return token;\n    }\n\n    function getSymbol(string memory _text)\n        private\n        pure\n        returns (string memory)\n    {\n        bytes memory copy = new bytes(TICKER_LENGTH_MAX);\n        bytes memory textAsBytes = bytes(_text);\n        uint256 max = (\n            textAsBytes.length > TICKER_LENGTH_MAX\n                ? TICKER_LENGTH_MAX\n                : uint8(textAsBytes.length)\n        ) + 31;\n        for (uint256 i = 32; i <= max; i += 32) {\n            assembly {\n                mstore(add(copy, i), mload(add(textAsBytes, i)))\n            }\n        }\n        return string(copy);\n    }\n\n    function sha256d(bytes32 _bytes) internal pure returns (bytes32) {\n        return sha256(abi.encodePacked(sha256(abi.encodePacked(_bytes))));\n    }\n\n    function sha256d(string memory _string) internal pure returns (bytes32) {\n        return sha256(abi.encodePacked(sha256(abi.encodePacked(_string))));\n    }\n\n    function sha256d(bytes memory _bytes) internal pure returns (bytes32) {\n        return sha256(abi.encodePacked(sha256(abi.encodePacked(_bytes))));\n    }\n\n    function _toLower(string memory str) internal pure returns (string memory) {\n        bytes memory bStr = bytes(str);\n        bytes memory bLower = new bytes(bStr.length);\n        for (uint256 i = 0; i < bStr.length; i++) {\n            // Uppercase character...\n            if ((uint8(bStr[i]) >= 65) && (uint8(bStr[i]) <= 90)) {\n                // So we add 32 to make it lowercase\n                bLower[i] = bytes1(uint8(bStr[i]) + 32);\n            } else {\n                bLower[i] = bStr[i];\n            }\n        }\n        return string(bLower);\n    }\n\n    function getIAddress(VerusObjects.CcurrencyDefinition memory _ccd) public pure returns (address){\n\n        if(_ccd.parent == 0x0000000000000000000000000000000000000000) {\n            return address(ripemd160(abi.encodePacked(sha256(abi.encodePacked(sha256d(_toLower(_ccd.name)))))));\n        }\n        else {\n            return address(ripemd160(abi.encodePacked(sha256(abi.encodePacked(sha256d(abi.encodePacked(_ccd.parent,sha256d(_toLower(_ccd.name)))))))));\n        }\n    }\n\n    function deployToken(bytes memory _serializedCcd) public returns (address) {\n        \n        require(isVerusBridgeContract(),\"Call can only be made from Verus Bridge Contract\");\n\n        VerusObjects.CcurrencyDefinition memory ccd = verusSerializer\n            .deSerializeCurrencyDefinition(_serializedCcd);\n        address destinationCurrencyID = getIAddress(ccd);\n\n        if (verusToERC20mapping[destinationCurrencyID].isRegistered)\n            return\n                verusToERC20mapping[destinationCurrencyID].erc20ContractAddress;\n\n        if (ccd.systemID != VerusConstants.VEth) {\n            //we are minting a new ERC20 token\n\n            return\n                recordCreatedToken(\n                    destinationCurrencyID,\n                    ccd.name,\n                    getSymbol(ccd.name)\n                );\n        } else {\n            // we are adding an existing token to the list\n\n            recordMappedToken(destinationCurrencyID, ccd.nativeCurrencyID);\n            // destinationToAddress[destinationCurrencyID] = ccd.nativeCurrencyID;\n            return ccd.nativeCurrencyID;\n        }\n    }\n\n    // Called from constructor to launch pre-defined currencies.\n    function launchTokens(deployTokens[] memory tokensToDeploy) private {\n        require(\n            isVerusBridgeContract(),\n            \"Call can only be made from Verus Bridge Contract\"\n        );\n\n        for (uint256 i = 0; i < tokensToDeploy.length; i++) {\n            if (tokensToDeploy[i].mapped) {\n                recordMappedToken(\n                    tokensToDeploy[i].iaddress,\n                    tokensToDeploy[i].eth_contract\n                );\n                // destinationToAddress[tokensToDeploy[i].verusID] = tokensToDeploy[i].eth_contract;\n            } else {\n                recordCreatedToken(\n                    tokensToDeploy[i].iaddress,\n                    tokensToDeploy[i].name,\n                    tokensToDeploy[i].ticker\n                );\n            }\n        }\n    }\n\n    function recordMappedToken(address _iaddress, address ethContractAddress)\n        private\n        returns (address)\n    {\n        verusToERC20mapping[_iaddress] = hostedToken(\n            address(ethContractAddress),\n            false,\n            true\n        );\n        Token token = Token(ethContractAddress);\n        tokenList.push(deployTokens(_iaddress, ethContractAddress, true, token.name(), token.symbol()));\n        return _iaddress;\n    }\n\n    function recordCreatedToken(\n        address _iaddress,\n        string memory name,\n        string memory ticker\n    ) private returns (address) {\n        Token t = new Token(name, ticker);\n        verusToERC20mapping[_iaddress] = hostedToken(address(t), true, true);\n        tokenList.push(deployTokens(_iaddress, address(t), false, name, ticker));\n        emit TokenCreated(address(t));\n        return address(t);\n    }\n\n}\n",
  "sourcePath": "/home/chris/Verus-Ethereum-contracts/contracts/VerusBridge/TokenManager.sol",
  "compiler": {
    "name": "solc",
    "version": "0.7.6+commit.7338295f.Emscripten.clang"
  },
  "schemaVersion": "3.4.4",
  "updatedAt": "2022-03-01T15:45:15.240Z",
  "networkType": "ethereum",
  "devdoc": {
    "kind": "dev",
    "methods": {},
    "version": 1
  },
  "userdoc": {
    "kind": "user",
    "methods": {},
    "version": 1
  }
}