{
  "contractName": "TokenManager",
  "abi": [
    {
      "inputs": [
        {
          "internalType": "address",
          "name": "verusSerializerAddress",
          "type": "address"
        },
        {
          "components": [
            {
              "internalType": "address",
              "name": "iaddress",
              "type": "address"
            },
            {
              "internalType": "address",
              "name": "eth_contract",
              "type": "address"
            },
            {
              "internalType": "bool",
              "name": "mapped",
              "type": "bool"
            },
            {
              "internalType": "string",
              "name": "name",
              "type": "string"
            },
            {
              "internalType": "string",
              "name": "ticker",
              "type": "string"
            }
          ],
          "internalType": "struct TokenManager.deployTokens[]",
          "name": "tokensToLaunch",
          "type": "tuple[]"
        }
      ],
      "stateMutability": "nonpayable",
      "type": "constructor"
    },
    {
      "anonymous": false,
      "inputs": [
        {
          "indexed": false,
          "internalType": "address",
          "name": "tokenAddress",
          "type": "address"
        }
      ],
      "name": "TokenCreated",
      "type": "event"
    },
    {
      "inputs": [
        {
          "internalType": "address",
          "name": "",
          "type": "address"
        }
      ],
      "name": "verusToERC20mapping",
      "outputs": [
        {
          "internalType": "address",
          "name": "erc20ContractAddress",
          "type": "address"
        },
        {
          "internalType": "bool",
          "name": "VerusOwned",
          "type": "bool"
        },
        {
          "internalType": "bool",
          "name": "isRegistered",
          "type": "bool"
        }
      ],
      "stateMutability": "view",
      "type": "function",
      "constant": true
    },
    {
      "inputs": [
        {
          "internalType": "uint256",
          "name": "a",
          "type": "uint256"
        },
        {
          "internalType": "uint8",
          "name": "decimals",
          "type": "uint8"
        }
      ],
      "name": "convertFromVerusNumber",
      "outputs": [
        {
          "internalType": "uint256",
          "name": "",
          "type": "uint256"
        }
      ],
      "stateMutability": "pure",
      "type": "function",
      "constant": true
    },
    {
      "inputs": [
        {
          "internalType": "address",
          "name": "_verusBridgeContract",
          "type": "address"
        }
      ],
      "name": "setVerusBridgeContract",
      "outputs": [],
      "stateMutability": "nonpayable",
      "type": "function"
    },
    {
      "inputs": [
        {
          "internalType": "address",
          "name": "_iaddress",
          "type": "address"
        },
        {
          "internalType": "uint256",
          "name": "_tokenAmount",
          "type": "uint256"
        }
      ],
      "name": "exportERC20Tokens",
      "outputs": [],
      "stateMutability": "nonpayable",
      "type": "function"
    },
    {
      "inputs": [
        {
          "internalType": "address",
          "name": "_iaddress",
          "type": "address"
        },
        {
          "internalType": "uint64",
          "name": "_tokenAmount",
          "type": "uint64"
        },
        {
          "internalType": "address",
          "name": "_destination",
          "type": "address"
        }
      ],
      "name": "importERC20Tokens",
      "outputs": [],
      "stateMutability": "nonpayable",
      "type": "function"
    },
    {
      "inputs": [
        {
          "internalType": "address",
          "name": "VRSCAddress",
          "type": "address"
        }
      ],
      "name": "getTokenERC20",
      "outputs": [
        {
          "internalType": "contract Token",
          "name": "",
          "type": "address"
        }
      ],
      "stateMutability": "view",
      "type": "function",
      "constant": true
    },
    {
      "inputs": [
        {
          "components": [
            {
              "internalType": "address",
              "name": "parent",
              "type": "address"
            },
            {
              "internalType": "string",
              "name": "name",
              "type": "string"
            },
            {
              "internalType": "address",
              "name": "launchSystemID",
              "type": "address"
            },
            {
              "internalType": "address",
              "name": "systemID",
              "type": "address"
            },
            {
              "internalType": "address",
              "name": "nativeCurrencyID",
              "type": "address"
            }
          ],
          "internalType": "struct VerusObjects.CcurrencyDefinition",
          "name": "_ccd",
          "type": "tuple"
        }
      ],
      "name": "getIAddress",
      "outputs": [
        {
          "internalType": "address",
          "name": "",
          "type": "address"
        }
      ],
      "stateMutability": "pure",
      "type": "function",
      "constant": true
    },
    {
      "inputs": [
        {
          "internalType": "bytes",
          "name": "_serializedCcd",
          "type": "bytes"
        }
      ],
      "name": "deployToken",
      "outputs": [
        {
          "internalType": "address",
          "name": "",
          "type": "address"
        }
      ],
      "stateMutability": "nonpayable",
      "type": "function"
    }
  ],
  "bytecode": "0x60806040523480156200001157600080fd5b50604051620067c8380380620067c8833981810160405281019062000037919062000758565b6000600260006101000a81548173ffffffffffffffffffffffffffffffffffffffff021916908373ffffffffffffffffffffffffffffffffffffffff160217905550816000806101000a81548173ffffffffffffffffffffffffffffffffffffffff021916908373ffffffffffffffffffffffffffffffffffffffff160217905550620000ca81620000d260201b60201c565b505062000a55565b620000e26200020860201b60201c565b62000124576040517f08c379a00000000000000000000000000000000000000000000000000000000081526004016200011b90620008c4565b60405180910390fd5b60005b815181101562000204578181815181106200013e57fe5b602002602001015160400151156200019957620001928282815181106200016157fe5b6020026020010151600001518383815181106200017a57fe5b602002602001015160200151620002c260201b60201c565b50620001f6565b620001f4828281518110620001aa57fe5b602002602001015160000151838381518110620001c357fe5b602002602001015160600151848481518110620001dc57fe5b602002602001015160800151620003cd60201b60201c565b505b808060010191505062000127565b5050565b60008073ffffffffffffffffffffffffffffffffffffffff16600260009054906101000a900473ffffffffffffffffffffffffffffffffffffffff1673ffffffffffffffffffffffffffffffffffffffff1614156200026b5760019050620002bf565b600260009054906101000a900473ffffffffffffffffffffffffffffffffffffffff1673ffffffffffffffffffffffffffffffffffffffff163373ffffffffffffffffffffffffffffffffffffffff161490505b90565b600060405180606001604052808373ffffffffffffffffffffffffffffffffffffffff16815260200160001515815260200160011515815250600160008573ffffffffffffffffffffffffffffffffffffffff1673ffffffffffffffffffffffffffffffffffffffff16815260200190815260200160002060008201518160000160006101000a81548173ffffffffffffffffffffffffffffffffffffffff021916908373ffffffffffffffffffffffffffffffffffffffff16021790555060208201518160000160146101000a81548160ff02191690831515021790555060408201518160000160156101000a81548160ff02191690831515021790555090505082905092915050565b6000808383604051620003e09062000551565b620003ed92919062000889565b604051809103906000f0801580156200040a573d6000803e3d6000fd5b50905060405180606001604052808273ffffffffffffffffffffffffffffffffffffffff16815260200160011515815260200160011515815250600160008773ffffffffffffffffffffffffffffffffffffffff1673ffffffffffffffffffffffffffffffffffffffff16815260200190815260200160002060008201518160000160006101000a81548173ffffffffffffffffffffffffffffffffffffffff021916908373ffffffffffffffffffffffffffffffffffffffff16021790555060208201518160000160146101000a81548160ff02191690831515021790555060408201518160000160156101000a81548160ff0219169083151502179055509050507f2e2b3f61b70d2d131b2a807371103cc98d51adcaa5e9a8f9c32658ad8426e74e816040516200053e91906200086c565b60405180910390a1809150509392505050565b611aa38062004d2583390190565b60006200057662000570846200091a565b620008e6565b9050808382526020820190508260005b85811015620005ba57815185016200059f888262000691565b84526020840193506020830192505060018101905062000586565b5050509392505050565b6000620005db620005d58462000949565b620008e6565b905082815260208101848484011115620005f457600080fd5b62000601848285620009d8565b509392505050565b6000815190506200061a8162000a21565b92915050565b600082601f8301126200063257600080fd5b8151620006448482602086016200055f565b91505092915050565b6000815190506200065e8162000a3b565b92915050565b600082601f8301126200067657600080fd5b815162000688848260208601620005c4565b91505092915050565b600060a08284031215620006a457600080fd5b620006b060a0620008e6565b90506000620006c28482850162000609565b6000830152506020620006d88482850162000609565b6020830152506040620006ee848285016200064d565b604083015250606082015167ffffffffffffffff8111156200070f57600080fd5b6200071d8482850162000664565b606083015250608082015167ffffffffffffffff8111156200073e57600080fd5b6200074c8482850162000664565b60808301525092915050565b600080604083850312156200076c57600080fd5b60006200077c8582860162000609565b925050602083015167ffffffffffffffff8111156200079a57600080fd5b620007a88582860162000620565b9150509250929050565b620007bd8162000998565b82525050565b6000620007d0826200097c565b620007dc818562000987565b9350620007ee818560208601620009d8565b620007f98162000a10565b840191505092915050565b60006200081360308362000987565b91507f43616c6c2063616e206f6e6c79206265206d6164652066726f6d20566572757360008301527f2042726964676520436f6e7472616374000000000000000000000000000000006020830152604082019050919050565b6000602082019050620008836000830184620007b2565b92915050565b60006040820190508181036000830152620008a58185620007c3565b90508181036020830152620008bb8184620007c3565b90509392505050565b60006020820190508181036000830152620008df8162000804565b9050919050565b6000604051905081810181811067ffffffffffffffff8211171562000910576200090f62000a0e565b5b8060405250919050565b600067ffffffffffffffff82111562000938576200093762000a0e565b5b602082029050602081019050919050565b600067ffffffffffffffff82111562000967576200096662000a0e565b5b601f19601f8301169050602081019050919050565b600081519050919050565b600082825260208201905092915050565b6000620009a582620009b8565b9050919050565b60008115159050919050565b600073ffffffffffffffffffffffffffffffffffffffff82169050919050565b60005b83811015620009f8578082015181840152602081019050620009db565b8381111562000a08576000848401525b50505050565bfe5b6000601f19601f8301169050919050565b62000a2c8162000998565b811462000a3857600080fd5b50565b62000a4681620009ac565b811462000a5257600080fd5b50565b6142c08062000a656000396000f3fe60806040523480156200001157600080fd5b5060043610620000945760003560e01c8063b17f15a21162000063578063b17f15a21462000145578063d5b91a92146200017d578063f79338de14620001b3578063ff40919014620001e95762000094565b80633cd6ee6d14620000995780636e56d44314620000cf5780639033ef3f1462000105578063abe900e41462000125575b600080fd5b620000b76004803603810190620000b1919062001d17565b62000209565b604051620000c691906200229d565b60405180910390f35b620000ed6004803603810190620000e7919062001d5c565b62000477565b604051620000fc91906200229d565b60405180910390f35b6200012360048036038101906200011d919062001c28565b620006c9565b005b6200014360048036038101906200013d919062001c69565b62000b25565b005b6200016360048036038101906200015d919062001bfc565b62000e39565b604051620001749392919062002324565b60405180910390f35b6200019b600480360381019062000195919062001e12565b62000e9d565b604051620001aa9190620024d6565b60405180910390f35b620001d16004803603810190620001cb919062001bfc565b62000f00565b604051620001e09190620023b2565b60405180910390f35b62000207600480360381019062000201919062001bfc565b62001035565b005b6000620002156200110d565b62000257576040517f08c379a00000000000000000000000000000000000000000000000000000000081526004016200024e90620024b4565b60405180910390fd5b60008060009054906101000a900473ffffffffffffffffffffffffffffffffffffffff1673ffffffffffffffffffffffffffffffffffffffff1663fa7acd87846040518263ffffffff1660e01b8152600401620002b591906200238e565b60006040518083038186803b158015620002ce57600080fd5b505afa158015620002e3573d6000803e3d6000fd5b505050506040513d6000823e3d601f19601f820116820180604052508101906200030e919062001da1565b905060006200031d8262000477565b9050600160008273ffffffffffffffffffffffffffffffffffffffff1673ffffffffffffffffffffffffffffffffffffffff16815260200190815260200160002060000160159054906101000a900460ff1615620003e257600160008273ffffffffffffffffffffffffffffffffffffffff1673ffffffffffffffffffffffffffffffffffffffff16815260200190815260200160002060000160009054906101000a900473ffffffffffffffffffffffffffffffffffffffff169250505062000472565b7367460c2f56774ed27eeb8685f29f6cec0b090b0073ffffffffffffffffffffffffffffffffffffffff16826060015173ffffffffffffffffffffffffffffffffffffffff161462000457576200044d818360200151620004478560200151620011c7565b6200126e565b9250505062000472565b62000467818360800151620013f2565b508160800151925050505b919050565b60008073ffffffffffffffffffffffffffffffffffffffff16826000015173ffffffffffffffffffffffffffffffffffffffff161415620005a55760036002620004cf620004c98560200151620014fd565b62001687565b604051602001620004e191906200224e565b604051602081830303815290604052604051620004ff91906200226b565b602060405180830381855afa1580156200051d573d6000803e3d6000fd5b5050506040513d601f19601f8201168201806040525081019062000542919062001ceb565b6040516020016200055491906200224e565b6040516020818303038152906040526040516200057291906200226b565b602060405180830381855afa15801562000590573d6000803e3d6000fd5b5050506040515160601b60601c9050620006c4565b60036002620005f38460000151620005cb620005c58760200151620014fd565b62001687565b604051602001620005de9291906200221e565b6040516020818303038152906040526200177a565b6040516020016200060591906200224e565b6040516020818303038152906040526040516200062391906200226b565b602060405180830381855afa15801562000641573d6000803e3d6000fd5b5050506040513d601f19601f8201168201806040525081019062000666919062001ceb565b6040516020016200067891906200224e565b6040516020818303038152906040526040516200069691906200226b565b602060405180830381855afa158015620006b4573d6000803e3d6000fd5b5050506040515160601b60601c90505b919050565b620006d36200110d565b62000715576040517f08c379a00000000000000000000000000000000000000000000000000000000081526004016200070c90620024b4565b60405180910390fd5b600160008373ffffffffffffffffffffffffffffffffffffffff1673ffffffffffffffffffffffffffffffffffffffff16815260200190815260200160002060000160159054906101000a900460ff16620007a7576040517f08c379a00000000000000000000000000000000000000000000000000000000081526004016200079e906200240a565b60405180910390fd5b6000600160008473ffffffffffffffffffffffffffffffffffffffff1673ffffffffffffffffffffffffffffffffffffffff16815260200190815260200160002060000160009054906101000a900473ffffffffffffffffffffffffffffffffffffffff16905060008173ffffffffffffffffffffffffffffffffffffffff1663dd62ed3e33306040518363ffffffff1660e01b81526004016200084d929190620022ba565b60206040518083038186803b1580156200086657600080fd5b505afa1580156200087b573d6000803e3d6000fd5b505050506040513d601f19601f82011682018060405250810190620008a1919062001de6565b905082811015620008e9576040517f08c379a0000000000000000000000000000000000000000000000000000000008152600401620008e09062002492565b60405180910390fd5b8173ffffffffffffffffffffffffffffffffffffffff166323b872dd3330866040518463ffffffff1660e01b81526004016200092893929190620022e7565b602060405180830381600087803b1580156200094357600080fd5b505af115801562000958573d6000803e3d6000fd5b505050506040513d601f19601f820116820180604052508101906200097e919062001cbf565b50600160008573ffffffffffffffffffffffffffffffffffffffff1673ffffffffffffffffffffffffffffffffffffffff16815260200190815260200160002060000160149054906101000a900460ff161562000b1e57828273ffffffffffffffffffffffffffffffffffffffff166370a08231306040518263ffffffff1660e01b815260040162000a1191906200229d565b60206040518083038186803b15801562000a2a57600080fd5b505afa15801562000a3f573d6000803e3d6000fd5b505050506040513d601f19601f8201168201806040525081019062000a65919062001de6565b101562000aa9576040517f08c379a000000000000000000000000000000000000000000000000000000000815260040162000aa0906200242c565b60405180910390fd5b8173ffffffffffffffffffffffffffffffffffffffff166342966c68846040518263ffffffff1660e01b815260040162000ae49190620024d6565b600060405180830381600087803b15801562000aff57600080fd5b505af115801562000b14573d6000803e3d6000fd5b5050505062000b1f565b5b50505050565b62000b2f6200110d565b62000b71576040517f08c379a000000000000000000000000000000000000000000000000000000000815260040162000b6890620024b4565b60405180910390fd5b6000600160008573ffffffffffffffffffffffffffffffffffffffff1673ffffffffffffffffffffffffffffffffffffffff16815260200190815260200160002060000160159054906101000a900460ff161562000e3357600160008573ffffffffffffffffffffffffffffffffffffffff1673ffffffffffffffffffffffffffffffffffffffff16815260200190815260200160002060000160009054906101000a900473ffffffffffffffffffffffffffffffffffffffff1690506000819050600062000ccc8567ffffffffffffffff168373ffffffffffffffffffffffffffffffffffffffff1663313ce5676040518163ffffffff1660e01b815260040160206040518083038186803b15801562000c8b57600080fd5b505afa15801562000ca0573d6000803e3d6000fd5b505050506040513d601f19601f8201168201806040525081019062000cc6919062001e53565b62000e9d565b9050600160008773ffffffffffffffffffffffffffffffffffffffff1673ffffffffffffffffffffffffffffffffffffffff16815260200190815260200160002060000160149054906101000a900460ff161562000d9b578173ffffffffffffffffffffffffffffffffffffffff166340c10f1985836040518363ffffffff1660e01b815260040162000d6192919062002361565b600060405180830381600087803b15801562000d7c57600080fd5b505af115801562000d91573d6000803e3d6000fd5b5050505062000e30565b8173ffffffffffffffffffffffffffffffffffffffff1663a9059cbb85836040518363ffffffff1660e01b815260040162000dd892919062002361565b602060405180830381600087803b15801562000df357600080fd5b505af115801562000e08573d6000803e3d6000fd5b505050506040513d601f19601f8201168201806040525081019062000e2e919062001cbf565b505b50505b50505050565b60016020528060005260406000206000915090508060000160009054906101000a900473ffffffffffffffffffffffffffffffffffffffff16908060000160149054906101000a900460ff16908060000160159054906101000a900460ff16905083565b600080600a9050600084905060088460ff16111562000ecd576008840391508160ff16600a0a8502905062000ef5565b60088460ff16101562000ef4578360080391508160ff16600a0a858162000ef057fe5b0490505b5b809250505092915050565b600080600160008473ffffffffffffffffffffffffffffffffffffffff1673ffffffffffffffffffffffffffffffffffffffff1681526020019081526020016000206040518060600160405290816000820160009054906101000a900473ffffffffffffffffffffffffffffffffffffffff1673ffffffffffffffffffffffffffffffffffffffff1673ffffffffffffffffffffffffffffffffffffffff1681526020016000820160149054906101000a900460ff161515151581526020016000820160159054906101000a900460ff1615151515815250509050806040015162001022576040517f08c379a0000000000000000000000000000000000000000000000000000000008152600401620010199062002470565b60405180910390fd5b6000816000015190508092505050919050565b600073ffffffffffffffffffffffffffffffffffffffff16600260009054906101000a900473ffffffffffffffffffffffffffffffffffffffff1673ffffffffffffffffffffffffffffffffffffffff1614620010c9576040517f08c379a0000000000000000000000000000000000000000000000000000000008152600401620010c0906200244e565b60405180910390fd5b80600260006101000a81548173ffffffffffffffffffffffffffffffffffffffff021916908373ffffffffffffffffffffffffffffffffffffffff16021790555050565b60008073ffffffffffffffffffffffffffffffffffffffff16600260009054906101000a900473ffffffffffffffffffffffffffffffffffffffff1673ffffffffffffffffffffffffffffffffffffffff161415620011705760019050620011c4565b600260009054906101000a900473ffffffffffffffffffffffffffffffffffffffff1673ffffffffffffffffffffffffffffffffffffffff163373ffffffffffffffffffffffffffffffffffffffff161490505b90565b60606000600467ffffffffffffffff81118015620011e457600080fd5b506040519080825280601f01601f191660200182016040528015620012185781602001600182028036833780820191505090505b50905060008390506000601f60048351116200123957825160ff166200123c565b60045b0190506000602090505b8181116200126257808301518185015260208101905062001246565b50829350505050919050565b600080838360405162001281906200186d565b6200128e929190620023cf565b604051809103906000f080158015620012ab573d6000803e3d6000fd5b50905060405180606001604052808273ffffffffffffffffffffffffffffffffffffffff16815260200160011515815260200160011515815250600160008773ffffffffffffffffffffffffffffffffffffffff1673ffffffffffffffffffffffffffffffffffffffff16815260200190815260200160002060008201518160000160006101000a81548173ffffffffffffffffffffffffffffffffffffffff021916908373ffffffffffffffffffffffffffffffffffffffff16021790555060208201518160000160146101000a81548160ff02191690831515021790555060408201518160000160156101000a81548160ff0219169083151502179055509050507f2e2b3f61b70d2d131b2a807371103cc98d51adcaa5e9a8f9c32658ad8426e74e81604051620013df91906200229d565b60405180910390a1809150509392505050565b600060405180606001604052808373ffffffffffffffffffffffffffffffffffffffff16815260200160001515815260200160011515815250600160008573ffffffffffffffffffffffffffffffffffffffff1673ffffffffffffffffffffffffffffffffffffffff16815260200190815260200160002060008201518160000160006101000a81548173ffffffffffffffffffffffffffffffffffffffff021916908373ffffffffffffffffffffffffffffffffffffffff16021790555060208201518160000160146101000a81548160ff02191690831515021790555060408201518160000160156101000a81548160ff02191690831515021790555090505082905092915050565b606060008290506000815167ffffffffffffffff811180156200151f57600080fd5b506040519080825280601f01601f191660200182016040528015620015535781602001600182028036833780820191505090505b50905060005b82518110156200167c5760418382815181106200157257fe5b602001015160f81c60f81b60f81c60ff1610158015620015b05750605a8382815181106200159c57fe5b602001015160f81c60f81b60f81c60ff1611155b1562001619576020838281518110620015c557fe5b602001015160f81c60f81b60f81c0160f81b828281518110620015e457fe5b60200101907effffffffffffffffffffffffffffffffffffffffffffffffffffffffffffff1916908160001a9053506200166e565b8281815181106200162657fe5b602001015160f81c60f81b8282815181106200163e57fe5b60200101907effffffffffffffffffffffffffffffffffffffffffffffffffffffffffffff1916908160001a9053505b808060010191505062001559565b508092505050919050565b6000600280836040516020016200169f919062002284565b604051602081830303815290604052604051620016bd91906200226b565b602060405180830381855afa158015620016db573d6000803e3d6000fd5b5050506040513d601f19601f8201168201806040525081019062001700919062001ceb565b6040516020016200171291906200224e565b6040516020818303038152906040526040516200173091906200226b565b602060405180830381855afa1580156200174e573d6000803e3d6000fd5b5050506040513d601f19601f8201168201806040525081019062001773919062001ceb565b9050919050565b6000600280836040516020016200179291906200226b565b604051602081830303815290604052604051620017b091906200226b565b602060405180830381855afa158015620017ce573d6000803e3d6000fd5b5050506040513d601f19601f82011682018060405250810190620017f3919062001ceb565b6040516020016200180591906200224e565b6040516020818303038152906040526040516200182391906200226b565b602060405180830381855afa15801562001841573d6000803e3d6000fd5b5050506040513d601f19601f8201168201806040525081019062001866919062001ceb565b9050919050565b611aa380620027e883390190565b6000620018926200188c8462002527565b620024f3565b905082815260208101848484011115620018ab57600080fd5b620018b8848285620026b4565b509392505050565b6000620018d7620018d1846200255a565b620024f3565b905082815260208101848484011115620018f057600080fd5b620018fd848285620026b4565b509392505050565b60006200191c62001916846200255a565b620024f3565b9050828152602081018484840111156200193557600080fd5b62001942848285620026c3565b509392505050565b6000813590506200195b816200274b565b92915050565b60008151905062001972816200274b565b92915050565b600081519050620019898162002765565b92915050565b600081519050620019a0816200277f565b92915050565b600082601f830112620019b857600080fd5b8135620019ca8482602086016200187b565b91505092915050565b600082601f830112620019e557600080fd5b8135620019f7848260208601620018c0565b91505092915050565b600082601f83011262001a1257600080fd5b815162001a2484826020860162001905565b91505092915050565b600060a0828403121562001a4057600080fd5b62001a4c60a0620024f3565b9050600062001a5e848285016200194a565b600083015250602082013567ffffffffffffffff81111562001a7f57600080fd5b62001a8d84828501620019d3565b602083015250604062001aa3848285016200194a565b604083015250606062001ab9848285016200194a565b606083015250608062001acf848285016200194a565b60808301525092915050565b600060a0828403121562001aee57600080fd5b62001afa60a0620024f3565b9050600062001b0c8482850162001961565b600083015250602082015167ffffffffffffffff81111562001b2d57600080fd5b62001b3b8482850162001a00565b602083015250604062001b518482850162001961565b604083015250606062001b678482850162001961565b606083015250608062001b7d8482850162001961565b60808301525092915050565b60008135905062001b9a8162002799565b92915050565b60008151905062001bb18162002799565b92915050565b60008135905062001bc881620027b3565b92915050565b60008135905062001bdf81620027cd565b92915050565b60008151905062001bf681620027cd565b92915050565b60006020828403121562001c0f57600080fd5b600062001c1f848285016200194a565b91505092915050565b6000806040838503121562001c3c57600080fd5b600062001c4c858286016200194a565b925050602062001c5f8582860162001b89565b9150509250929050565b60008060006060848603121562001c7f57600080fd5b600062001c8f868287016200194a565b935050602062001ca28682870162001bb7565b925050604062001cb5868287016200194a565b9150509250925092565b60006020828403121562001cd257600080fd5b600062001ce28482850162001978565b91505092915050565b60006020828403121562001cfe57600080fd5b600062001d0e848285016200198f565b91505092915050565b60006020828403121562001d2a57600080fd5b600082013567ffffffffffffffff81111562001d4557600080fd5b62001d5384828501620019a6565b91505092915050565b60006020828403121562001d6f57600080fd5b600082013567ffffffffffffffff81111562001d8a57600080fd5b62001d988482850162001a2d565b91505092915050565b60006020828403121562001db457600080fd5b600082015167ffffffffffffffff81111562001dcf57600080fd5b62001ddd8482850162001adb565b91505092915050565b60006020828403121562001df957600080fd5b600062001e098482850162001ba0565b91505092915050565b6000806040838503121562001e2657600080fd5b600062001e368582860162001b89565b925050602062001e498582860162001bce565b9150509250929050565b60006020828403121562001e6657600080fd5b600062001e768482850162001be5565b91505092915050565b62001e8a8162002650565b82525050565b62001e9b81620025db565b82525050565b62001eb662001eb082620025db565b620026f9565b82525050565b62001ec781620025ef565b82525050565b62001ee262001edc82620025fb565b6200270d565b82525050565b600062001ef5826200258d565b62001f018185620025a3565b935062001f13818560208601620026c3565b62001f1e816200272d565b840191505092915050565b600062001f36826200258d565b62001f428185620025b4565b935062001f54818560208601620026c3565b80840191505092915050565b62001f6b8162002664565b82525050565b600062001f7e8262002598565b62001f8a8185620025bf565b935062001f9c818560208601620026c3565b62001fa7816200272d565b840191505092915050565b600062001fbf8262002598565b62001fcb8185620025d0565b935062001fdd818560208601620026c3565b80840191505092915050565b600062001ff8602183620025bf565b91507f546f6b656e20686173206e6f74206265656e207265676973746572656420796560008301527f74000000000000000000000000000000000000000000000000000000000000006020830152604082019050919050565b600062002060601583620025bf565b91507f546f6b656e73206469646e74207472616e7366657200000000000000000000006000830152602082019050919050565b6000620020a2603183620025bf565b91507f7665727573427269646765436f6e74726163742041646472657373206861732060008301527f616c7265616479206265656e207365742e0000000000000000000000000000006020830152604082019050919050565b60006200210a601b83620025bf565b91507f54686520746f6b656e206973206e6f74207265676973746572656400000000006000830152602082019050919050565b60006200214c602483620025bf565b91507f4e6f7420656e6f75676820746f6b656e732068617665206265656e206170707260008301527f6f766564000000000000000000000000000000000000000000000000000000006020830152604082019050919050565b6000620021b4603083620025bf565b91507f43616c6c2063616e206f6e6c79206265206d6164652066726f6d20566572757360008301527f2042726964676520436f6e7472616374000000000000000000000000000000006020830152604082019050919050565b620022188162002625565b82525050565b60006200222c828562001ea1565b6014820191506200223e828462001ecd565b6020820191508190509392505050565b60006200225c828462001ecd565b60208201915081905092915050565b600062002279828462001f29565b915081905092915050565b600062002292828462001fb2565b915081905092915050565b6000602082019050620022b4600083018462001e90565b92915050565b6000604082019050620022d1600083018562001e7f565b620022e0602083018462001e90565b9392505050565b6000606082019050620022fe600083018662001e7f565b6200230d602083018562001e90565b6200231c60408301846200220d565b949350505050565b60006060820190506200233b600083018662001e90565b6200234a602083018562001ebc565b62002359604083018462001ebc565b949350505050565b600060408201905062002378600083018562001e90565b6200238760208301846200220d565b9392505050565b60006020820190508181036000830152620023aa818462001ee8565b905092915050565b6000602082019050620023c9600083018462001f60565b92915050565b60006040820190508181036000830152620023eb818562001f71565b9050818103602083015262002401818462001f71565b90509392505050565b60006020820190508181036000830152620024258162001fe9565b9050919050565b60006020820190508181036000830152620024478162002051565b9050919050565b60006020820190508181036000830152620024698162002093565b9050919050565b600060208201905081810360008301526200248b81620020fb565b9050919050565b60006020820190508181036000830152620024ad816200213d565b9050919050565b60006020820190508181036000830152620024cf81620021a5565b9050919050565b6000602082019050620024ed60008301846200220d565b92915050565b6000604051905081810181811067ffffffffffffffff821117156200251d576200251c6200272b565b5b8060405250919050565b600067ffffffffffffffff8211156200254557620025446200272b565b5b601f19601f8301169050602081019050919050565b600067ffffffffffffffff8211156200257857620025776200272b565b5b601f19601f8301169050602081019050919050565b600081519050919050565b600081519050919050565b600082825260208201905092915050565b600081905092915050565b600082825260208201905092915050565b600081905092915050565b6000620025e88262002605565b9050919050565b60008115159050919050565b6000819050919050565b600073ffffffffffffffffffffffffffffffffffffffff82169050919050565b6000819050919050565b600067ffffffffffffffff82169050919050565b600060ff82169050919050565b60006200265d826200268c565b9050919050565b6000620026718262002678565b9050919050565b6000620026858262002605565b9050919050565b60006200269982620026a0565b9050919050565b6000620026ad8262002605565b9050919050565b82818337600083830152505050565b60005b83811015620026e3578082015181840152602081019050620026c6565b83811115620026f3576000848401525b50505050565b6000620027068262002717565b9050919050565b6000819050919050565b600062002724826200273e565b9050919050565bfe5b6000601f19601f8301169050919050565b60008160601b9050919050565b6200275681620025db565b81146200276257600080fd5b50565b6200277081620025ef565b81146200277c57600080fd5b50565b6200278a81620025fb565b81146200279657600080fd5b50565b620027a48162002625565b8114620027b057600080fd5b50565b620027be816200262f565b8114620027ca57600080fd5b50565b620027d88162002643565b8114620027e457600080fd5b5056fe60806040523480156200001157600080fd5b5060405162001aa338038062001aa3833981810160405260408110156200003757600080fd5b81019080805160405193929190846401000000008211156200005857600080fd5b838201915060208201858111156200006f57600080fd5b82518660018202830111640100000000821117156200008d57600080fd5b8083526020830192505050908051906020019080838360005b83811015620000c3578082015181840152602081019050620000a6565b50505050905090810190601f168015620000f15780820380516001836020036101000a031916815260200191505b50604052602001805160405193929190846401000000008211156200011557600080fd5b838201915060208201858111156200012c57600080fd5b82518660018202830111640100000000821117156200014a57600080fd5b8083526020830192505050908051906020019080838360005b838110156200018057808201518184015260208101905062000163565b50505050905090810190601f168015620001ae5780820380516001836020036101000a031916815260200191505b5060405250505081818160039080519060200190620001cf92919062000250565b508060049080519060200190620001e892919062000250565b506012600560006101000a81548160ff021916908360ff160217905550505033600560016101000a81548173ffffffffffffffffffffffffffffffffffffffff021916908373ffffffffffffffffffffffffffffffffffffffff160217905550505062000306565b828054600181600116156101000203166002900490600052602060002090601f016020900481019282620002885760008555620002d4565b82601f10620002a357805160ff1916838001178555620002d4565b82800160010185558215620002d4579182015b82811115620002d3578251825591602001919060010190620002b6565b5b509050620002e39190620002e7565b5090565b5b8082111562000302576000816000905550600101620002e8565b5090565b61178d80620003166000396000f3fe608060405234801561001057600080fd5b50600436106100cf5760003560e01c806340c10f191161008c57806395d89b411161006657806395d89b41146103b6578063a457c2d714610439578063a9059cbb1461049d578063dd62ed3e14610501576100cf565b806340c10f19146102e257806342966c681461033057806370a082311461035e576100cf565b806306fdde03146100d4578063095ea7b31461015757806318160ddd146101bb57806323b872dd146101d9578063313ce5671461025d578063395093511461027e575b600080fd5b6100dc610579565b6040518080602001828103825283818151815260200191508051906020019080838360005b8381101561011c578082015181840152602081019050610101565b50505050905090810190601f1680156101495780820380516001836020036101000a031916815260200191505b509250505060405180910390f35b6101a36004803603604081101561016d57600080fd5b81019080803573ffffffffffffffffffffffffffffffffffffffff1690602001909291908035906020019092919050505061061b565b60405180821515815260200191505060405180910390f35b6101c3610639565b6040518082815260200191505060405180910390f35b610245600480360360608110156101ef57600080fd5b81019080803573ffffffffffffffffffffffffffffffffffffffff169060200190929190803573ffffffffffffffffffffffffffffffffffffffff16906020019092919080359060200190929190505050610643565b60405180821515815260200191505060405180910390f35b61026561071c565b604051808260ff16815260200191505060405180910390f35b6102ca6004803603604081101561029457600080fd5b81019080803573ffffffffffffffffffffffffffffffffffffffff16906020019092919080359060200190929190505050610733565b60405180821515815260200191505060405180910390f35b61032e600480360360408110156102f857600080fd5b81019080803573ffffffffffffffffffffffffffffffffffffffff169060200190929190803590602001909291905050506107e6565b005b61035c6004803603602081101561034657600080fd5b810190808035906020019092919050505061089a565b005b6103a06004803603602081101561037457600080fd5b81019080803573ffffffffffffffffffffffffffffffffffffffff169060200190929190505050610954565b6040518082815260200191505060405180910390f35b6103be61099c565b6040518080602001828103825283818151815260200191508051906020019080838360005b838110156103fe5780820151818401526020810190506103e3565b50505050905090810190601f16801561042b5780820380516001836020036101000a031916815260200191505b509250505060405180910390f35b6104856004803603604081101561044f57600080fd5b81019080803573ffffffffffffffffffffffffffffffffffffffff16906020019092919080359060200190929190505050610a3e565b60405180821515815260200191505060405180910390f35b6104e9600480360360408110156104b357600080fd5b81019080803573ffffffffffffffffffffffffffffffffffffffff16906020019092919080359060200190929190505050610b0b565b60405180821515815260200191505060405180910390f35b6105636004803603604081101561051757600080fd5b81019080803573ffffffffffffffffffffffffffffffffffffffff169060200190929190803573ffffffffffffffffffffffffffffffffffffffff169060200190929190505050610b29565b6040518082815260200191505060405180910390f35b606060038054600181600116156101000203166002900480601f0160208091040260200160405190810160405280929190818152602001828054600181600116156101000203166002900480156106115780601f106105e657610100808354040283529160200191610611565b820191906000526020600020905b8154815290600101906020018083116105f457829003601f168201915b5050505050905090565b600061062f610628610bb0565b8484610bb8565b6001905092915050565b6000600254905090565b6000610650848484610daf565b6107118461065c610bb0565b61070c856040518060600160405280602881526020016116a160289139600160008b73ffffffffffffffffffffffffffffffffffffffff1673ffffffffffffffffffffffffffffffffffffffff16815260200190815260200160002060006106c2610bb0565b73ffffffffffffffffffffffffffffffffffffffff1673ffffffffffffffffffffffffffffffffffffffff168152602001908152602001600020546110709092919063ffffffff16565b610bb8565b600190509392505050565b6000600560009054906101000a900460ff16905090565b60006107dc610740610bb0565b846107d78560016000610751610bb0565b73ffffffffffffffffffffffffffffffffffffffff1673ffffffffffffffffffffffffffffffffffffffff16815260200190815260200160002060008973ffffffffffffffffffffffffffffffffffffffff1673ffffffffffffffffffffffffffffffffffffffff1681526020019081526020016000205461112a90919063ffffffff16565b610bb8565b6001905092915050565b600560019054906101000a900473ffffffffffffffffffffffffffffffffffffffff1673ffffffffffffffffffffffffffffffffffffffff163373ffffffffffffffffffffffffffffffffffffffff161461088c576040517f08c379a00000000000000000000000000000000000000000000000000000000081526004018080602001828103825260278152602001806116536027913960400191505060405180910390fd5b61089682826111b2565b5050565b600560019054906101000a900473ffffffffffffffffffffffffffffffffffffffff1673ffffffffffffffffffffffffffffffffffffffff163373ffffffffffffffffffffffffffffffffffffffff1614610940576040517f08c379a000000000000000000000000000000000000000000000000000000000815260040180806020018281038252602781526020018061167a6027913960400191505060405180910390fd5b61095161094b610bb0565b82611379565b50565b60008060008373ffffffffffffffffffffffffffffffffffffffff1673ffffffffffffffffffffffffffffffffffffffff168152602001908152602001600020549050919050565b606060048054600181600116156101000203166002900480601f016020809104026020016040519081016040528092919081815260200182805460018160011615610100020316600290048015610a345780601f10610a0957610100808354040283529160200191610a34565b820191906000526020600020905b815481529060010190602001808311610a1757829003601f168201915b5050505050905090565b6000610b01610a4b610bb0565b84610afc856040518060600160405280602581526020016117336025913960016000610a75610bb0565b73ffffffffffffffffffffffffffffffffffffffff1673ffffffffffffffffffffffffffffffffffffffff16815260200190815260200160002060008a73ffffffffffffffffffffffffffffffffffffffff1673ffffffffffffffffffffffffffffffffffffffff168152602001908152602001600020546110709092919063ffffffff16565b610bb8565b6001905092915050565b6000610b1f610b18610bb0565b8484610daf565b6001905092915050565b6000600160008473ffffffffffffffffffffffffffffffffffffffff1673ffffffffffffffffffffffffffffffffffffffff16815260200190815260200160002060008373ffffffffffffffffffffffffffffffffffffffff1673ffffffffffffffffffffffffffffffffffffffff16815260200190815260200160002054905092915050565b600033905090565b600073ffffffffffffffffffffffffffffffffffffffff168373ffffffffffffffffffffffffffffffffffffffff161415610c3e576040517f08c379a000000000000000000000000000000000000000000000000000000000815260040180806020018281038252602481526020018061170f6024913960400191505060405180910390fd5b600073ffffffffffffffffffffffffffffffffffffffff168273ffffffffffffffffffffffffffffffffffffffff161415610cc4576040517f08c379a000000000000000000000000000000000000000000000000000000000815260040180806020018281038252602281526020018061160b6022913960400191505060405180910390fd5b80600160008573ffffffffffffffffffffffffffffffffffffffff1673ffffffffffffffffffffffffffffffffffffffff16815260200190815260200160002060008473ffffffffffffffffffffffffffffffffffffffff1673ffffffffffffffffffffffffffffffffffffffff168152602001908152602001600020819055508173ffffffffffffffffffffffffffffffffffffffff168373ffffffffffffffffffffffffffffffffffffffff167f8c5be1e5ebec7d5bd14f71427d1e84f3dd0314c0f7b2291e5b200ac8c7c3b925836040518082815260200191505060405180910390a3505050565b600073ffffffffffffffffffffffffffffffffffffffff168373ffffffffffffffffffffffffffffffffffffffff161415610e35576040517f08c379a00000000000000000000000000000000000000000000000000000000081526004018080602001828103825260258152602001806116ea6025913960400191505060405180910390fd5b600073ffffffffffffffffffffffffffffffffffffffff168273ffffffffffffffffffffffffffffffffffffffff161415610ebb576040517f08c379a00000000000000000000000000000000000000000000000000000000081526004018080602001828103825260238152602001806115c66023913960400191505060405180910390fd5b610ec683838361153d565b610f318160405180606001604052806026815260200161162d602691396000808773ffffffffffffffffffffffffffffffffffffffff1673ffffffffffffffffffffffffffffffffffffffff168152602001908152602001600020546110709092919063ffffffff16565b6000808573ffffffffffffffffffffffffffffffffffffffff1673ffffffffffffffffffffffffffffffffffffffff16815260200190815260200160002081905550610fc4816000808573ffffffffffffffffffffffffffffffffffffffff1673ffffffffffffffffffffffffffffffffffffffff1681526020019081526020016000205461112a90919063ffffffff16565b6000808473ffffffffffffffffffffffffffffffffffffffff1673ffffffffffffffffffffffffffffffffffffffff168152602001908152602001600020819055508173ffffffffffffffffffffffffffffffffffffffff168373ffffffffffffffffffffffffffffffffffffffff167fddf252ad1be2c89b69c2b068fc378daa952ba7f163c4a11628f55a4df523b3ef836040518082815260200191505060405180910390a3505050565b600083831115829061111d576040517f08c379a00000000000000000000000000000000000000000000000000000000081526004018080602001828103825283818151815260200191508051906020019080838360005b838110156110e25780820151818401526020810190506110c7565b50505050905090810190601f16801561110f5780820380516001836020036101000a031916815260200191505b509250505060405180910390fd5b5082840390509392505050565b6000808284019050838110156111a8576040517f08c379a000000000000000000000000000000000000000000000000000000000815260040180806020018281038252601b8152602001807f536166654d6174683a206164646974696f6e206f766572666c6f77000000000081525060200191505060405180910390fd5b8091505092915050565b600073ffffffffffffffffffffffffffffffffffffffff168273ffffffffffffffffffffffffffffffffffffffff161415611255576040517f08c379a000000000000000000000000000000000000000000000000000000000815260040180806020018281038252601f8152602001807f45524332303a206d696e7420746f20746865207a65726f20616464726573730081525060200191505060405180910390fd5b6112616000838361153d565b6112768160025461112a90919063ffffffff16565b6002819055506112cd816000808573ffffffffffffffffffffffffffffffffffffffff1673ffffffffffffffffffffffffffffffffffffffff1681526020019081526020016000205461112a90919063ffffffff16565b6000808473ffffffffffffffffffffffffffffffffffffffff1673ffffffffffffffffffffffffffffffffffffffff168152602001908152602001600020819055508173ffffffffffffffffffffffffffffffffffffffff16600073ffffffffffffffffffffffffffffffffffffffff167fddf252ad1be2c89b69c2b068fc378daa952ba7f163c4a11628f55a4df523b3ef836040518082815260200191505060405180910390a35050565b600073ffffffffffffffffffffffffffffffffffffffff168273ffffffffffffffffffffffffffffffffffffffff1614156113ff576040517f08c379a00000000000000000000000000000000000000000000000000000000081526004018080602001828103825260218152602001806116c96021913960400191505060405180910390fd5b61140b8260008361153d565b611476816040518060600160405280602281526020016115e9602291396000808673ffffffffffffffffffffffffffffffffffffffff1673ffffffffffffffffffffffffffffffffffffffff168152602001908152602001600020546110709092919063ffffffff16565b6000808473ffffffffffffffffffffffffffffffffffffffff1673ffffffffffffffffffffffffffffffffffffffff168152602001908152602001600020819055506114cd8160025461154290919063ffffffff16565b600281905550600073ffffffffffffffffffffffffffffffffffffffff168273ffffffffffffffffffffffffffffffffffffffff167fddf252ad1be2c89b69c2b068fc378daa952ba7f163c4a11628f55a4df523b3ef836040518082815260200191505060405180910390a35050565b505050565b6000828211156115ba576040517f08c379a000000000000000000000000000000000000000000000000000000000815260040180806020018281038252601e8152602001807f536166654d6174683a207375627472616374696f6e206f766572666c6f77000081525060200191505060405180910390fd5b81830390509291505056fe45524332303a207472616e7366657220746f20746865207a65726f206164647265737345524332303a206275726e20616d6f756e7420657863656564732062616c616e636545524332303a20617070726f766520746f20746865207a65726f206164647265737345524332303a207472616e7366657220616d6f756e7420657863656564732062616c616e63654f6e6c792074686520636f6e7472616374206f776e65722063616e204d696e7420546f6b656e734f6e6c792074686520636f6e7472616374206f776e65722063616e204275726e20546f6b656e7345524332303a207472616e7366657220616d6f756e74206578636565647320616c6c6f77616e636545524332303a206275726e2066726f6d20746865207a65726f206164647265737345524332303a207472616e736665722066726f6d20746865207a65726f206164647265737345524332303a20617070726f76652066726f6d20746865207a65726f206164647265737345524332303a2064656372656173656420616c6c6f77616e63652062656c6f77207a65726fa2646970667358221220373224cc144aea0f0c94e2f311bbcc0dd4391432e0a195dfada92bddcf26ecdd64736f6c63430007060033a2646970667358221220d8e124b488d0a912fd452c8d74f077cc4d8556af3eed08f9b39393d80644fbcf64736f6c6343000706003360806040523480156200001157600080fd5b5060405162001aa338038062001aa3833981810160405260408110156200003757600080fd5b81019080805160405193929190846401000000008211156200005857600080fd5b838201915060208201858111156200006f57600080fd5b82518660018202830111640100000000821117156200008d57600080fd5b8083526020830192505050908051906020019080838360005b83811015620000c3578082015181840152602081019050620000a6565b50505050905090810190601f168015620000f15780820380516001836020036101000a031916815260200191505b50604052602001805160405193929190846401000000008211156200011557600080fd5b838201915060208201858111156200012c57600080fd5b82518660018202830111640100000000821117156200014a57600080fd5b8083526020830192505050908051906020019080838360005b838110156200018057808201518184015260208101905062000163565b50505050905090810190601f168015620001ae5780820380516001836020036101000a031916815260200191505b5060405250505081818160039080519060200190620001cf92919062000250565b508060049080519060200190620001e892919062000250565b506012600560006101000a81548160ff021916908360ff160217905550505033600560016101000a81548173ffffffffffffffffffffffffffffffffffffffff021916908373ffffffffffffffffffffffffffffffffffffffff160217905550505062000306565b828054600181600116156101000203166002900490600052602060002090601f016020900481019282620002885760008555620002d4565b82601f10620002a357805160ff1916838001178555620002d4565b82800160010185558215620002d4579182015b82811115620002d3578251825591602001919060010190620002b6565b5b509050620002e39190620002e7565b5090565b5b8082111562000302576000816000905550600101620002e8565b5090565b61178d80620003166000396000f3fe608060405234801561001057600080fd5b50600436106100cf5760003560e01c806340c10f191161008c57806395d89b411161006657806395d89b41146103b6578063a457c2d714610439578063a9059cbb1461049d578063dd62ed3e14610501576100cf565b806340c10f19146102e257806342966c681461033057806370a082311461035e576100cf565b806306fdde03146100d4578063095ea7b31461015757806318160ddd146101bb57806323b872dd146101d9578063313ce5671461025d578063395093511461027e575b600080fd5b6100dc610579565b6040518080602001828103825283818151815260200191508051906020019080838360005b8381101561011c578082015181840152602081019050610101565b50505050905090810190601f1680156101495780820380516001836020036101000a031916815260200191505b509250505060405180910390f35b6101a36004803603604081101561016d57600080fd5b81019080803573ffffffffffffffffffffffffffffffffffffffff1690602001909291908035906020019092919050505061061b565b60405180821515815260200191505060405180910390f35b6101c3610639565b6040518082815260200191505060405180910390f35b610245600480360360608110156101ef57600080fd5b81019080803573ffffffffffffffffffffffffffffffffffffffff169060200190929190803573ffffffffffffffffffffffffffffffffffffffff16906020019092919080359060200190929190505050610643565b60405180821515815260200191505060405180910390f35b61026561071c565b604051808260ff16815260200191505060405180910390f35b6102ca6004803603604081101561029457600080fd5b81019080803573ffffffffffffffffffffffffffffffffffffffff16906020019092919080359060200190929190505050610733565b60405180821515815260200191505060405180910390f35b61032e600480360360408110156102f857600080fd5b81019080803573ffffffffffffffffffffffffffffffffffffffff169060200190929190803590602001909291905050506107e6565b005b61035c6004803603602081101561034657600080fd5b810190808035906020019092919050505061089a565b005b6103a06004803603602081101561037457600080fd5b81019080803573ffffffffffffffffffffffffffffffffffffffff169060200190929190505050610954565b6040518082815260200191505060405180910390f35b6103be61099c565b6040518080602001828103825283818151815260200191508051906020019080838360005b838110156103fe5780820151818401526020810190506103e3565b50505050905090810190601f16801561042b5780820380516001836020036101000a031916815260200191505b509250505060405180910390f35b6104856004803603604081101561044f57600080fd5b81019080803573ffffffffffffffffffffffffffffffffffffffff16906020019092919080359060200190929190505050610a3e565b60405180821515815260200191505060405180910390f35b6104e9600480360360408110156104b357600080fd5b81019080803573ffffffffffffffffffffffffffffffffffffffff16906020019092919080359060200190929190505050610b0b565b60405180821515815260200191505060405180910390f35b6105636004803603604081101561051757600080fd5b81019080803573ffffffffffffffffffffffffffffffffffffffff169060200190929190803573ffffffffffffffffffffffffffffffffffffffff169060200190929190505050610b29565b6040518082815260200191505060405180910390f35b606060038054600181600116156101000203166002900480601f0160208091040260200160405190810160405280929190818152602001828054600181600116156101000203166002900480156106115780601f106105e657610100808354040283529160200191610611565b820191906000526020600020905b8154815290600101906020018083116105f457829003601f168201915b5050505050905090565b600061062f610628610bb0565b8484610bb8565b6001905092915050565b6000600254905090565b6000610650848484610daf565b6107118461065c610bb0565b61070c856040518060600160405280602881526020016116a160289139600160008b73ffffffffffffffffffffffffffffffffffffffff1673ffffffffffffffffffffffffffffffffffffffff16815260200190815260200160002060006106c2610bb0565b73ffffffffffffffffffffffffffffffffffffffff1673ffffffffffffffffffffffffffffffffffffffff168152602001908152602001600020546110709092919063ffffffff16565b610bb8565b600190509392505050565b6000600560009054906101000a900460ff16905090565b60006107dc610740610bb0565b846107d78560016000610751610bb0565b73ffffffffffffffffffffffffffffffffffffffff1673ffffffffffffffffffffffffffffffffffffffff16815260200190815260200160002060008973ffffffffffffffffffffffffffffffffffffffff1673ffffffffffffffffffffffffffffffffffffffff1681526020019081526020016000205461112a90919063ffffffff16565b610bb8565b6001905092915050565b600560019054906101000a900473ffffffffffffffffffffffffffffffffffffffff1673ffffffffffffffffffffffffffffffffffffffff163373ffffffffffffffffffffffffffffffffffffffff161461088c576040517f08c379a00000000000000000000000000000000000000000000000000000000081526004018080602001828103825260278152602001806116536027913960400191505060405180910390fd5b61089682826111b2565b5050565b600560019054906101000a900473ffffffffffffffffffffffffffffffffffffffff1673ffffffffffffffffffffffffffffffffffffffff163373ffffffffffffffffffffffffffffffffffffffff1614610940576040517f08c379a000000000000000000000000000000000000000000000000000000000815260040180806020018281038252602781526020018061167a6027913960400191505060405180910390fd5b61095161094b610bb0565b82611379565b50565b60008060008373ffffffffffffffffffffffffffffffffffffffff1673ffffffffffffffffffffffffffffffffffffffff168152602001908152602001600020549050919050565b606060048054600181600116156101000203166002900480601f016020809104026020016040519081016040528092919081815260200182805460018160011615610100020316600290048015610a345780601f10610a0957610100808354040283529160200191610a34565b820191906000526020600020905b815481529060010190602001808311610a1757829003601f168201915b5050505050905090565b6000610b01610a4b610bb0565b84610afc856040518060600160405280602581526020016117336025913960016000610a75610bb0565b73ffffffffffffffffffffffffffffffffffffffff1673ffffffffffffffffffffffffffffffffffffffff16815260200190815260200160002060008a73ffffffffffffffffffffffffffffffffffffffff1673ffffffffffffffffffffffffffffffffffffffff168152602001908152602001600020546110709092919063ffffffff16565b610bb8565b6001905092915050565b6000610b1f610b18610bb0565b8484610daf565b6001905092915050565b6000600160008473ffffffffffffffffffffffffffffffffffffffff1673ffffffffffffffffffffffffffffffffffffffff16815260200190815260200160002060008373ffffffffffffffffffffffffffffffffffffffff1673ffffffffffffffffffffffffffffffffffffffff16815260200190815260200160002054905092915050565b600033905090565b600073ffffffffffffffffffffffffffffffffffffffff168373ffffffffffffffffffffffffffffffffffffffff161415610c3e576040517f08c379a000000000000000000000000000000000000000000000000000000000815260040180806020018281038252602481526020018061170f6024913960400191505060405180910390fd5b600073ffffffffffffffffffffffffffffffffffffffff168273ffffffffffffffffffffffffffffffffffffffff161415610cc4576040517f08c379a000000000000000000000000000000000000000000000000000000000815260040180806020018281038252602281526020018061160b6022913960400191505060405180910390fd5b80600160008573ffffffffffffffffffffffffffffffffffffffff1673ffffffffffffffffffffffffffffffffffffffff16815260200190815260200160002060008473ffffffffffffffffffffffffffffffffffffffff1673ffffffffffffffffffffffffffffffffffffffff168152602001908152602001600020819055508173ffffffffffffffffffffffffffffffffffffffff168373ffffffffffffffffffffffffffffffffffffffff167f8c5be1e5ebec7d5bd14f71427d1e84f3dd0314c0f7b2291e5b200ac8c7c3b925836040518082815260200191505060405180910390a3505050565b600073ffffffffffffffffffffffffffffffffffffffff168373ffffffffffffffffffffffffffffffffffffffff161415610e35576040517f08c379a00000000000000000000000000000000000000000000000000000000081526004018080602001828103825260258152602001806116ea6025913960400191505060405180910390fd5b600073ffffffffffffffffffffffffffffffffffffffff168273ffffffffffffffffffffffffffffffffffffffff161415610ebb576040517f08c379a00000000000000000000000000000000000000000000000000000000081526004018080602001828103825260238152602001806115c66023913960400191505060405180910390fd5b610ec683838361153d565b610f318160405180606001604052806026815260200161162d602691396000808773ffffffffffffffffffffffffffffffffffffffff1673ffffffffffffffffffffffffffffffffffffffff168152602001908152602001600020546110709092919063ffffffff16565b6000808573ffffffffffffffffffffffffffffffffffffffff1673ffffffffffffffffffffffffffffffffffffffff16815260200190815260200160002081905550610fc4816000808573ffffffffffffffffffffffffffffffffffffffff1673ffffffffffffffffffffffffffffffffffffffff1681526020019081526020016000205461112a90919063ffffffff16565b6000808473ffffffffffffffffffffffffffffffffffffffff1673ffffffffffffffffffffffffffffffffffffffff168152602001908152602001600020819055508173ffffffffffffffffffffffffffffffffffffffff168373ffffffffffffffffffffffffffffffffffffffff167fddf252ad1be2c89b69c2b068fc378daa952ba7f163c4a11628f55a4df523b3ef836040518082815260200191505060405180910390a3505050565b600083831115829061111d576040517f08c379a00000000000000000000000000000000000000000000000000000000081526004018080602001828103825283818151815260200191508051906020019080838360005b838110156110e25780820151818401526020810190506110c7565b50505050905090810190601f16801561110f5780820380516001836020036101000a031916815260200191505b509250505060405180910390fd5b5082840390509392505050565b6000808284019050838110156111a8576040517f08c379a000000000000000000000000000000000000000000000000000000000815260040180806020018281038252601b8152602001807f536166654d6174683a206164646974696f6e206f766572666c6f77000000000081525060200191505060405180910390fd5b8091505092915050565b600073ffffffffffffffffffffffffffffffffffffffff168273ffffffffffffffffffffffffffffffffffffffff161415611255576040517f08c379a000000000000000000000000000000000000000000000000000000000815260040180806020018281038252601f8152602001807f45524332303a206d696e7420746f20746865207a65726f20616464726573730081525060200191505060405180910390fd5b6112616000838361153d565b6112768160025461112a90919063ffffffff16565b6002819055506112cd816000808573ffffffffffffffffffffffffffffffffffffffff1673ffffffffffffffffffffffffffffffffffffffff1681526020019081526020016000205461112a90919063ffffffff16565b6000808473ffffffffffffffffffffffffffffffffffffffff1673ffffffffffffffffffffffffffffffffffffffff168152602001908152602001600020819055508173ffffffffffffffffffffffffffffffffffffffff16600073ffffffffffffffffffffffffffffffffffffffff167fddf252ad1be2c89b69c2b068fc378daa952ba7f163c4a11628f55a4df523b3ef836040518082815260200191505060405180910390a35050565b600073ffffffffffffffffffffffffffffffffffffffff168273ffffffffffffffffffffffffffffffffffffffff1614156113ff576040517f08c379a00000000000000000000000000000000000000000000000000000000081526004018080602001828103825260218152602001806116c96021913960400191505060405180910390fd5b61140b8260008361153d565b611476816040518060600160405280602281526020016115e9602291396000808673ffffffffffffffffffffffffffffffffffffffff1673ffffffffffffffffffffffffffffffffffffffff168152602001908152602001600020546110709092919063ffffffff16565b6000808473ffffffffffffffffffffffffffffffffffffffff1673ffffffffffffffffffffffffffffffffffffffff168152602001908152602001600020819055506114cd8160025461154290919063ffffffff16565b600281905550600073ffffffffffffffffffffffffffffffffffffffff168273ffffffffffffffffffffffffffffffffffffffff167fddf252ad1be2c89b69c2b068fc378daa952ba7f163c4a11628f55a4df523b3ef836040518082815260200191505060405180910390a35050565b505050565b6000828211156115ba576040517f08c379a000000000000000000000000000000000000000000000000000000000815260040180806020018281038252601e8152602001807f536166654d6174683a207375627472616374696f6e206f766572666c6f77000081525060200191505060405180910390fd5b81830390509291505056fe45524332303a207472616e7366657220746f20746865207a65726f206164647265737345524332303a206275726e20616d6f756e7420657863656564732062616c616e636545524332303a20617070726f766520746f20746865207a65726f206164647265737345524332303a207472616e7366657220616d6f756e7420657863656564732062616c616e63654f6e6c792074686520636f6e7472616374206f776e65722063616e204d696e7420546f6b656e734f6e6c792074686520636f6e7472616374206f776e65722063616e204275726e20546f6b656e7345524332303a207472616e7366657220616d6f756e74206578636565647320616c6c6f77616e636545524332303a206275726e2066726f6d20746865207a65726f206164647265737345524332303a207472616e736665722066726f6d20746865207a65726f206164647265737345524332303a20617070726f76652066726f6d20746865207a65726f206164647265737345524332303a2064656372656173656420616c6c6f77616e63652062656c6f77207a65726fa2646970667358221220373224cc144aea0f0c94e2f311bbcc0dd4391432e0a195dfada92bddcf26ecdd64736f6c63430007060033",
  "immutableReferences": {},
  "source": "// SPDX-License-Identifier: MIT\n// Bridge between ethereum and verus\n\npragma solidity >=0.4.20;\npragma experimental ABIEncoderV2;\n\nimport \"./Token.sol\";\nimport \"../Libraries/VerusConstants.sol\";\nimport \"../Libraries/VerusObjects.sol\";\nimport \"./VerusSerializer.sol\";\n\ncontract TokenManager {\n    event TokenCreated(address tokenAddress);\n    VerusSerializer verusSerializer;\n    uint256 constant TICKER_LENGTH_MAX = 4;\n\n    //array of contracts address mapped to the token name\n    struct hostedToken {\n        address erc20ContractAddress;\n        bool VerusOwned;\n        bool isRegistered;\n    }\n\n    struct deployTokens {\n        address iaddress;\n        address eth_contract;\n        bool mapped;\n        string name;\n        string ticker;\n    }\n\n    mapping(address => hostedToken) public verusToERC20mapping;\n\n    address verusBridgeContract;\n\n    constructor(\n        address verusSerializerAddress,\n        deployTokens[] memory tokensToLaunch\n    ) {\n        verusBridgeContract = address(0);\n        verusSerializer = VerusSerializer(verusSerializerAddress);\n        launchTokens(tokensToLaunch);\n    }\n\n    function convertFromVerusNumber(uint256 a, uint8 decimals)\n        public\n        pure\n        returns (uint256)\n    {\n        uint8 power = 10; //default value for 18\n        uint256 c = a;\n        if (decimals > 8) {\n            power = decimals - 8; // number of decimals in verus\n            c = a * (10**power);\n        } else if (decimals < 8) {\n            power = 8 - decimals; // number of decimals in verus\n            c = a / (10**power);\n        }\n\n        return c;\n    }\n\n    function setVerusBridgeContract(address _verusBridgeContract) public {\n        require(\n            verusBridgeContract == address(0),\n            \"verusBridgeContract Address has already been set.\"\n        );\n        verusBridgeContract = _verusBridgeContract;\n    }\n\n    function isVerusBridgeContract() private view returns (bool) {\n        if (verusBridgeContract == address(0)) return true;\n        else return msg.sender == verusBridgeContract;\n    }\n\n    //Tokens that are being exported from the eth blockchain are either destroyed or held until imported\n    function exportERC20Tokens(address _iaddress, uint256 _tokenAmount) public {\n        require(\n            isVerusBridgeContract(),\n            \"Call can only be made from Verus Bridge Contract\"\n        );\n        //check that the erc20 token is registered with the tokenManager\n        require(verusToERC20mapping[_iaddress].isRegistered, \"Token has not been registered yet\");\n\n        Token token = Token(verusToERC20mapping[_iaddress].erc20ContractAddress);\n\n        //transfer the tokens to the contract address\n        uint256 allowedTokens = token.allowance(msg.sender, address(this));\n        require(\n            allowedTokens >= _tokenAmount,              //values in wei\n            \"Not enough tokens have been approved\"\n        ); \n        //if its not approved it wont work\n        token.transferFrom(msg.sender, address(this), _tokenAmount);\n\n        if (verusToERC20mapping[_iaddress].VerusOwned) {\n\n            require(token.balanceOf(address(this)) >= _tokenAmount,\n                \"Tokens didnt transfer\"\n            );\n            token.burn(_tokenAmount);\n\n        } else {\n            //the contract stores the token\n        }\n    }\n\n    function importERC20Tokens(\n        address _iaddress,\n        uint64 _tokenAmount,\n        address _destination\n    ) public {\n        require(\n            isVerusBridgeContract(),\n            \"Call can only be made from Verus Bridge Contract\"\n        );\n        address contractAddress;\n        // if the token has not been previously created then it must be deployed\n\n        // if token that has been sent from verus is not registered on ETH burn the tokens\n        if (verusToERC20mapping[_iaddress].isRegistered) {\n            contractAddress = verusToERC20mapping[_iaddress]\n                .erc20ContractAddress;\n\n            Token token = Token(contractAddress);\n            uint256 processedTokenAmount = convertFromVerusNumber(\n                _tokenAmount,\n                token.decimals()\n            );\n            //if the token has been created by this contract then burn the token\n            if (verusToERC20mapping[_iaddress].VerusOwned) {\n\n                token.mint(address(_destination), processedTokenAmount);\n\n            } else {\n                //transfer from the contract\n                token.transfer(address(_destination), processedTokenAmount);\n            }\n        }\n    }\n\n    function getTokenERC20(address VRSCAddress) public view returns (Token) {\n        hostedToken memory internalToken = verusToERC20mapping[VRSCAddress];\n        require(internalToken.isRegistered, \"The token is not registered\");\n        Token token = Token(internalToken.erc20ContractAddress);\n        return token;\n    }\n\n    function getSymbol(string memory _text)\n        private\n        pure\n        returns (string memory)\n    {\n        bytes memory copy = new bytes(TICKER_LENGTH_MAX);\n        bytes memory textAsBytes = bytes(_text);\n        uint256 max = (\n            textAsBytes.length > TICKER_LENGTH_MAX\n                ? TICKER_LENGTH_MAX\n                : uint8(textAsBytes.length)\n        ) + 31;\n        for (uint256 i = 32; i <= max; i += 32) {\n            assembly {\n                mstore(add(copy, i), mload(add(textAsBytes, i)))\n            }\n        }\n        return string(copy);\n    }\n\n    function sha256d(bytes32 _bytes) internal pure returns (bytes32) {\n        return sha256(abi.encodePacked(sha256(abi.encodePacked(_bytes))));\n    }\n\n    function sha256d(string memory _string) internal pure returns (bytes32) {\n        return sha256(abi.encodePacked(sha256(abi.encodePacked(_string))));\n    }\n\n    function sha256d(bytes memory _bytes) internal pure returns (bytes32) {\n        return sha256(abi.encodePacked(sha256(abi.encodePacked(_bytes))));\n    }\n\n    function _toLower(string memory str) internal pure returns (string memory) {\n        bytes memory bStr = bytes(str);\n        bytes memory bLower = new bytes(bStr.length);\n        for (uint256 i = 0; i < bStr.length; i++) {\n            // Uppercase character...\n            if ((uint8(bStr[i]) >= 65) && (uint8(bStr[i]) <= 90)) {\n                // So we add 32 to make it lowercase\n                bLower[i] = bytes1(uint8(bStr[i]) + 32);\n            } else {\n                bLower[i] = bStr[i];\n            }\n        }\n        return string(bLower);\n    }\n\n    function getIAddress(VerusObjects.CcurrencyDefinition memory _ccd) public pure returns (address){\n\n        if(_ccd.parent == 0x0000000000000000000000000000000000000000) {\n            return address(ripemd160(abi.encodePacked(sha256(abi.encodePacked(sha256d(_toLower(_ccd.name)))))));\n        }\n        else {\n            return address(ripemd160(abi.encodePacked(sha256(abi.encodePacked(sha256d(abi.encodePacked(_ccd.parent,sha256d(_toLower(_ccd.name)))))))));\n        }\n    }\n\n    function deployToken(bytes memory _serializedCcd) public returns (address) {\n        \n        require(isVerusBridgeContract(),\"Call can only be made from Verus Bridge Contract\");\n\n        VerusObjects.CcurrencyDefinition memory ccd = verusSerializer\n            .deSerializeCurrencyDefinition(_serializedCcd);\n        address destinationCurrencyID = getIAddress(ccd);\n\n        if (verusToERC20mapping[destinationCurrencyID].isRegistered)\n            return\n                verusToERC20mapping[destinationCurrencyID].erc20ContractAddress;\n\n        if (ccd.systemID != VerusConstants.VEth) {\n            //we are minting a new ERC20 token\n\n            return\n                recordCreatedToken(\n                    destinationCurrencyID,\n                    ccd.name,\n                    getSymbol(ccd.name)\n                );\n        } else {\n            // we are adding an existing token to the list\n\n            recordMappedToken(destinationCurrencyID, ccd.nativeCurrencyID);\n            // destinationToAddress[destinationCurrencyID] = ccd.nativeCurrencyID;\n            return ccd.nativeCurrencyID;\n        }\n    }\n\n    // Called from constructor to launch pre-defined currencies.\n    function launchTokens(deployTokens[] memory tokensToDeploy) private {\n        require(\n            isVerusBridgeContract(),\n            \"Call can only be made from Verus Bridge Contract\"\n        );\n\n        for (uint256 i = 0; i < tokensToDeploy.length; i++) {\n            if (tokensToDeploy[i].mapped) {\n                recordMappedToken(\n                    tokensToDeploy[i].iaddress,\n                    tokensToDeploy[i].eth_contract\n                );\n                // destinationToAddress[tokensToDeploy[i].verusID] = tokensToDeploy[i].eth_contract;\n            } else {\n                recordCreatedToken(\n                    tokensToDeploy[i].iaddress,\n                    tokensToDeploy[i].name,\n                    tokensToDeploy[i].ticker\n                );\n            }\n        }\n    }\n\n    function recordMappedToken(address _iaddress, address ethContractAddress)\n        private\n        returns (address)\n    {\n        verusToERC20mapping[_iaddress] = hostedToken(\n            address(ethContractAddress),\n            false,\n            true\n        );\n        return _iaddress;\n    }\n\n    function recordCreatedToken(\n        address _iaddress,\n        string memory name,\n        string memory ticker\n    ) private returns (address) {\n        Token t = new Token(name, ticker);\n        verusToERC20mapping[_iaddress] = hostedToken(address(t), true, true);\n        emit TokenCreated(address(t));\n        return address(t);\n    }\n\n}\n",
  "sourcePath": "/home/chris/Verus-Ethereum-contracts/contracts/VerusBridge/TokenManager.sol",
  "compiler": {
    "name": "solc",
    "version": "0.7.6+commit.7338295f.Emscripten.clang"
  },
  "schemaVersion": "3.4.4",
  "updatedAt": "2022-02-23T14:37:01.954Z",
  "networkType": "ethereum",
  "devdoc": {
    "kind": "dev",
    "methods": {},
    "version": 1
  },
  "userdoc": {
    "kind": "user",
    "methods": {},
    "version": 1
  }
}