{
  "contractName": "VerusNotarizer",
  "abi": [
    {
      "inputs": [
        {
          "internalType": "address",
          "name": "_verusBLAKE2bAddress",
          "type": "address"
        },
        {
          "internalType": "address",
          "name": "_verusSerializerAddress",
          "type": "address"
        },
        {
          "internalType": "address[]",
          "name": "_notaries",
          "type": "address[]"
        },
        {
          "internalType": "address[]",
          "name": "_notariesEthAddress",
          "type": "address[]"
        }
      ],
      "stateMutability": "nonpayable",
      "type": "constructor"
    },
    {
      "anonymous": false,
      "inputs": [
        {
          "indexed": false,
          "internalType": "address",
          "name": "newAddress",
          "type": "address"
        }
      ],
      "name": "Deprecate",
      "type": "event"
    },
    {
      "anonymous": false,
      "inputs": [
        {
          "components": [
            {
              "internalType": "uint32",
              "name": "version",
              "type": "uint32"
            },
            {
              "internalType": "uint32",
              "name": "flags",
              "type": "uint32"
            },
            {
              "components": [
                {
                  "internalType": "uint8",
                  "name": "destinationtype",
                  "type": "uint8"
                },
                {
                  "internalType": "bytes",
                  "name": "destinationaddress",
                  "type": "bytes"
                }
              ],
              "internalType": "struct VerusObjectsCommon.CTransferDestination",
              "name": "proposer",
              "type": "tuple"
            },
            {
              "internalType": "address",
              "name": "currencyid",
              "type": "address"
            },
            {
              "components": [
                {
                  "internalType": "uint16",
                  "name": "version",
                  "type": "uint16"
                },
                {
                  "internalType": "uint16",
                  "name": "flags",
                  "type": "uint16"
                },
                {
                  "internalType": "address",
                  "name": "currencyid",
                  "type": "address"
                },
                {
                  "internalType": "uint160[]",
                  "name": "currencies",
                  "type": "uint160[]"
                },
                {
                  "internalType": "int32[]",
                  "name": "weights",
                  "type": "int32[]"
                },
                {
                  "internalType": "int64[]",
                  "name": "reserves",
                  "type": "int64[]"
                },
                {
                  "internalType": "int64",
                  "name": "initialsupply",
                  "type": "int64"
                },
                {
                  "internalType": "int64",
                  "name": "emitted",
                  "type": "int64"
                },
                {
                  "internalType": "int64",
                  "name": "supply",
                  "type": "int64"
                },
                {
                  "internalType": "int64",
                  "name": "primarycurrencyout",
                  "type": "int64"
                },
                {
                  "internalType": "int64",
                  "name": "preconvertedout",
                  "type": "int64"
                },
                {
                  "internalType": "int64",
                  "name": "primarycurrencyfees",
                  "type": "int64"
                },
                {
                  "internalType": "int64",
                  "name": "primarycurrencyconversionfees",
                  "type": "int64"
                },
                {
                  "internalType": "int64[]",
                  "name": "reservein",
                  "type": "int64[]"
                },
                {
                  "internalType": "int64[]",
                  "name": "primarycurrencyin",
                  "type": "int64[]"
                },
                {
                  "internalType": "int64[]",
                  "name": "reserveout",
                  "type": "int64[]"
                },
                {
                  "internalType": "int64[]",
                  "name": "conversionprice",
                  "type": "int64[]"
                },
                {
                  "internalType": "int64[]",
                  "name": "viaconversionprice",
                  "type": "int64[]"
                },
                {
                  "internalType": "int64[]",
                  "name": "fees",
                  "type": "int64[]"
                },
                {
                  "internalType": "int32[]",
                  "name": "priorweights",
                  "type": "int32[]"
                },
                {
                  "internalType": "int64[]",
                  "name": "conversionfees",
                  "type": "int64[]"
                }
              ],
              "internalType": "struct VerusObjectsNotarization.CCoinbaseCurrencyState",
              "name": "currencystate",
              "type": "tuple"
            },
            {
              "internalType": "uint32",
              "name": "notarizationheight",
              "type": "uint32"
            },
            {
              "components": [
                {
                  "internalType": "bytes32",
                  "name": "hash",
                  "type": "bytes32"
                },
                {
                  "internalType": "uint32",
                  "name": "n",
                  "type": "uint32"
                }
              ],
              "internalType": "struct VerusObjectsNotarization.CUTXORef",
              "name": "prevnotarization",
              "type": "tuple"
            },
            {
              "internalType": "bytes32",
              "name": "hashprevnotarization",
              "type": "bytes32"
            },
            {
              "internalType": "uint32",
              "name": "prevheight",
              "type": "uint32"
            },
            {
              "components": [
                {
                  "internalType": "address",
                  "name": "currencyid",
                  "type": "address"
                },
                {
                  "components": [
                    {
                      "internalType": "uint16",
                      "name": "version",
                      "type": "uint16"
                    },
                    {
                      "internalType": "uint16",
                      "name": "flags",
                      "type": "uint16"
                    },
                    {
                      "internalType": "address",
                      "name": "currencyid",
                      "type": "address"
                    },
                    {
                      "internalType": "uint160[]",
                      "name": "currencies",
                      "type": "uint160[]"
                    },
                    {
                      "internalType": "int32[]",
                      "name": "weights",
                      "type": "int32[]"
                    },
                    {
                      "internalType": "int64[]",
                      "name": "reserves",
                      "type": "int64[]"
                    },
                    {
                      "internalType": "int64",
                      "name": "initialsupply",
                      "type": "int64"
                    },
                    {
                      "internalType": "int64",
                      "name": "emitted",
                      "type": "int64"
                    },
                    {
                      "internalType": "int64",
                      "name": "supply",
                      "type": "int64"
                    },
                    {
                      "internalType": "int64",
                      "name": "primarycurrencyout",
                      "type": "int64"
                    },
                    {
                      "internalType": "int64",
                      "name": "preconvertedout",
                      "type": "int64"
                    },
                    {
                      "internalType": "int64",
                      "name": "primarycurrencyfees",
                      "type": "int64"
                    },
                    {
                      "internalType": "int64",
                      "name": "primarycurrencyconversionfees",
                      "type": "int64"
                    },
                    {
                      "internalType": "int64[]",
                      "name": "reservein",
                      "type": "int64[]"
                    },
                    {
                      "internalType": "int64[]",
                      "name": "primarycurrencyin",
                      "type": "int64[]"
                    },
                    {
                      "internalType": "int64[]",
                      "name": "reserveout",
                      "type": "int64[]"
                    },
                    {
                      "internalType": "int64[]",
                      "name": "conversionprice",
                      "type": "int64[]"
                    },
                    {
                      "internalType": "int64[]",
                      "name": "viaconversionprice",
                      "type": "int64[]"
                    },
                    {
                      "internalType": "int64[]",
                      "name": "fees",
                      "type": "int64[]"
                    },
                    {
                      "internalType": "int32[]",
                      "name": "priorweights",
                      "type": "int32[]"
                    },
                    {
                      "internalType": "int64[]",
                      "name": "conversionfees",
                      "type": "int64[]"
                    }
                  ],
                  "internalType": "struct VerusObjectsNotarization.CCoinbaseCurrencyState",
                  "name": "currencystate",
                  "type": "tuple"
                }
              ],
              "internalType": "struct VerusObjectsNotarization.CurrencyStates[]",
              "name": "currencystates",
              "type": "tuple[]"
            },
            {
              "components": [
                {
                  "internalType": "int16",
                  "name": "version",
                  "type": "int16"
                },
                {
                  "internalType": "int16",
                  "name": "cprtype",
                  "type": "int16"
                },
                {
                  "internalType": "address",
                  "name": "systemid",
                  "type": "address"
                },
                {
                  "internalType": "uint32",
                  "name": "rootheight",
                  "type": "uint32"
                },
                {
                  "internalType": "bytes32",
                  "name": "stateroot",
                  "type": "bytes32"
                },
                {
                  "internalType": "bytes32",
                  "name": "blockhash",
                  "type": "bytes32"
                },
                {
                  "internalType": "bytes32",
                  "name": "compactpower",
                  "type": "bytes32"
                }
              ],
              "internalType": "struct VerusObjectsNotarization.CProofRoot[]",
              "name": "proofroots",
              "type": "tuple[]"
            },
            {
              "components": [
                {
                  "internalType": "string",
                  "name": "networkaddress",
                  "type": "string"
                },
                {
                  "internalType": "address",
                  "name": "nodeidentity",
                  "type": "address"
                }
              ],
              "internalType": "struct VerusObjectsNotarization.CNodeData[]",
              "name": "nodes",
              "type": "tuple[]"
            }
          ],
          "indexed": false,
          "internalType": "struct VerusObjectsNotarization.CPBaaSNotarization",
          "name": "",
          "type": "tuple"
        },
        {
          "indexed": false,
          "internalType": "uint32",
          "name": "notarizedDataHeight",
          "type": "uint32"
        }
      ],
      "name": "NewBlock",
      "type": "event"
    },
    {
      "inputs": [
        {
          "internalType": "uint256",
          "name": "",
          "type": "uint256"
        }
      ],
      "name": "blockHeights",
      "outputs": [
        {
          "internalType": "uint32",
          "name": "",
          "type": "uint32"
        }
      ],
      "stateMutability": "view",
      "type": "function",
      "constant": true
    },
    {
      "inputs": [],
      "name": "deprecated",
      "outputs": [
        {
          "internalType": "bool",
          "name": "",
          "type": "bool"
        }
      ],
      "stateMutability": "view",
      "type": "function",
      "constant": true
    },
    {
      "inputs": [
        {
          "internalType": "address",
          "name": "",
          "type": "address"
        }
      ],
      "name": "komodoNotaries",
      "outputs": [
        {
          "internalType": "bool",
          "name": "",
          "type": "bool"
        }
      ],
      "stateMutability": "view",
      "type": "function",
      "constant": true
    },
    {
      "inputs": [],
      "name": "lastBlockHeight",
      "outputs": [
        {
          "internalType": "uint32",
          "name": "",
          "type": "uint32"
        }
      ],
      "stateMutability": "view",
      "type": "function",
      "constant": true
    },
    {
      "inputs": [
        {
          "internalType": "uint32",
          "name": "",
          "type": "uint32"
        }
      ],
      "name": "notarizedProofRoots",
      "outputs": [
        {
          "internalType": "int16",
          "name": "version",
          "type": "int16"
        },
        {
          "internalType": "int16",
          "name": "cprtype",
          "type": "int16"
        },
        {
          "internalType": "address",
          "name": "systemid",
          "type": "address"
        },
        {
          "internalType": "uint32",
          "name": "rootheight",
          "type": "uint32"
        },
        {
          "internalType": "bytes32",
          "name": "stateroot",
          "type": "bytes32"
        },
        {
          "internalType": "bytes32",
          "name": "blockhash",
          "type": "bytes32"
        },
        {
          "internalType": "bytes32",
          "name": "compactpower",
          "type": "bytes32"
        }
      ],
      "stateMutability": "view",
      "type": "function",
      "constant": true
    },
    {
      "inputs": [
        {
          "internalType": "uint32",
          "name": "",
          "type": "uint32"
        }
      ],
      "name": "notarizedStateRoots",
      "outputs": [
        {
          "internalType": "bytes32",
          "name": "",
          "type": "bytes32"
        }
      ],
      "stateMutability": "view",
      "type": "function",
      "constant": true
    },
    {
      "inputs": [
        {
          "internalType": "address",
          "name": "",
          "type": "address"
        }
      ],
      "name": "notaryAddressMapping",
      "outputs": [
        {
          "internalType": "address",
          "name": "",
          "type": "address"
        }
      ],
      "stateMutability": "view",
      "type": "function",
      "constant": true
    },
    {
      "inputs": [
        {
          "internalType": "address",
          "name": "",
          "type": "address"
        }
      ],
      "name": "poolAvailable",
      "outputs": [
        {
          "internalType": "uint32",
          "name": "",
          "type": "uint32"
        }
      ],
      "stateMutability": "view",
      "type": "function",
      "constant": true
    },
    {
      "inputs": [],
      "name": "upgradedAddress",
      "outputs": [
        {
          "internalType": "address",
          "name": "",
          "type": "address"
        }
      ],
      "stateMutability": "view",
      "type": "function",
      "constant": true
    },
    {
      "inputs": [],
      "name": "getNotaries",
      "outputs": [
        {
          "internalType": "address[]",
          "name": "",
          "type": "address[]"
        }
      ],
      "stateMutability": "view",
      "type": "function",
      "constant": true
    },
    {
      "inputs": [
        {
          "internalType": "address",
          "name": "_notary",
          "type": "address"
        }
      ],
      "name": "isNotary",
      "outputs": [
        {
          "internalType": "bool",
          "name": "",
          "type": "bool"
        }
      ],
      "stateMutability": "view",
      "type": "function",
      "constant": true
    },
    {
      "inputs": [],
      "name": "currentNotariesRequired",
      "outputs": [
        {
          "internalType": "uint8",
          "name": "",
          "type": "uint8"
        }
      ],
      "stateMutability": "view",
      "type": "function",
      "constant": true
    },
    {
      "inputs": [
        {
          "internalType": "bytes32",
          "name": "_notarizedDataHash",
          "type": "bytes32"
        },
        {
          "internalType": "bytes32[]",
          "name": "_rs",
          "type": "bytes32[]"
        },
        {
          "internalType": "bytes32[]",
          "name": "_ss",
          "type": "bytes32[]"
        },
        {
          "internalType": "uint8[]",
          "name": "_vs",
          "type": "uint8[]"
        }
      ],
      "name": "isNotarized",
      "outputs": [
        {
          "internalType": "bool",
          "name": "",
          "type": "bool"
        }
      ],
      "stateMutability": "view",
      "type": "function",
      "constant": true
    },
    {
      "inputs": [
        {
          "components": [
            {
              "internalType": "uint32",
              "name": "version",
              "type": "uint32"
            },
            {
              "internalType": "uint32",
              "name": "flags",
              "type": "uint32"
            },
            {
              "components": [
                {
                  "internalType": "uint8",
                  "name": "destinationtype",
                  "type": "uint8"
                },
                {
                  "internalType": "bytes",
                  "name": "destinationaddress",
                  "type": "bytes"
                }
              ],
              "internalType": "struct VerusObjectsCommon.CTransferDestination",
              "name": "proposer",
              "type": "tuple"
            },
            {
              "internalType": "address",
              "name": "currencyid",
              "type": "address"
            },
            {
              "components": [
                {
                  "internalType": "uint16",
                  "name": "version",
                  "type": "uint16"
                },
                {
                  "internalType": "uint16",
                  "name": "flags",
                  "type": "uint16"
                },
                {
                  "internalType": "address",
                  "name": "currencyid",
                  "type": "address"
                },
                {
                  "internalType": "uint160[]",
                  "name": "currencies",
                  "type": "uint160[]"
                },
                {
                  "internalType": "int32[]",
                  "name": "weights",
                  "type": "int32[]"
                },
                {
                  "internalType": "int64[]",
                  "name": "reserves",
                  "type": "int64[]"
                },
                {
                  "internalType": "int64",
                  "name": "initialsupply",
                  "type": "int64"
                },
                {
                  "internalType": "int64",
                  "name": "emitted",
                  "type": "int64"
                },
                {
                  "internalType": "int64",
                  "name": "supply",
                  "type": "int64"
                },
                {
                  "internalType": "int64",
                  "name": "primarycurrencyout",
                  "type": "int64"
                },
                {
                  "internalType": "int64",
                  "name": "preconvertedout",
                  "type": "int64"
                },
                {
                  "internalType": "int64",
                  "name": "primarycurrencyfees",
                  "type": "int64"
                },
                {
                  "internalType": "int64",
                  "name": "primarycurrencyconversionfees",
                  "type": "int64"
                },
                {
                  "internalType": "int64[]",
                  "name": "reservein",
                  "type": "int64[]"
                },
                {
                  "internalType": "int64[]",
                  "name": "primarycurrencyin",
                  "type": "int64[]"
                },
                {
                  "internalType": "int64[]",
                  "name": "reserveout",
                  "type": "int64[]"
                },
                {
                  "internalType": "int64[]",
                  "name": "conversionprice",
                  "type": "int64[]"
                },
                {
                  "internalType": "int64[]",
                  "name": "viaconversionprice",
                  "type": "int64[]"
                },
                {
                  "internalType": "int64[]",
                  "name": "fees",
                  "type": "int64[]"
                },
                {
                  "internalType": "int32[]",
                  "name": "priorweights",
                  "type": "int32[]"
                },
                {
                  "internalType": "int64[]",
                  "name": "conversionfees",
                  "type": "int64[]"
                }
              ],
              "internalType": "struct VerusObjectsNotarization.CCoinbaseCurrencyState",
              "name": "currencystate",
              "type": "tuple"
            },
            {
              "internalType": "uint32",
              "name": "notarizationheight",
              "type": "uint32"
            },
            {
              "components": [
                {
                  "internalType": "bytes32",
                  "name": "hash",
                  "type": "bytes32"
                },
                {
                  "internalType": "uint32",
                  "name": "n",
                  "type": "uint32"
                }
              ],
              "internalType": "struct VerusObjectsNotarization.CUTXORef",
              "name": "prevnotarization",
              "type": "tuple"
            },
            {
              "internalType": "bytes32",
              "name": "hashprevnotarization",
              "type": "bytes32"
            },
            {
              "internalType": "uint32",
              "name": "prevheight",
              "type": "uint32"
            },
            {
              "components": [
                {
                  "internalType": "address",
                  "name": "currencyid",
                  "type": "address"
                },
                {
                  "components": [
                    {
                      "internalType": "uint16",
                      "name": "version",
                      "type": "uint16"
                    },
                    {
                      "internalType": "uint16",
                      "name": "flags",
                      "type": "uint16"
                    },
                    {
                      "internalType": "address",
                      "name": "currencyid",
                      "type": "address"
                    },
                    {
                      "internalType": "uint160[]",
                      "name": "currencies",
                      "type": "uint160[]"
                    },
                    {
                      "internalType": "int32[]",
                      "name": "weights",
                      "type": "int32[]"
                    },
                    {
                      "internalType": "int64[]",
                      "name": "reserves",
                      "type": "int64[]"
                    },
                    {
                      "internalType": "int64",
                      "name": "initialsupply",
                      "type": "int64"
                    },
                    {
                      "internalType": "int64",
                      "name": "emitted",
                      "type": "int64"
                    },
                    {
                      "internalType": "int64",
                      "name": "supply",
                      "type": "int64"
                    },
                    {
                      "internalType": "int64",
                      "name": "primarycurrencyout",
                      "type": "int64"
                    },
                    {
                      "internalType": "int64",
                      "name": "preconvertedout",
                      "type": "int64"
                    },
                    {
                      "internalType": "int64",
                      "name": "primarycurrencyfees",
                      "type": "int64"
                    },
                    {
                      "internalType": "int64",
                      "name": "primarycurrencyconversionfees",
                      "type": "int64"
                    },
                    {
                      "internalType": "int64[]",
                      "name": "reservein",
                      "type": "int64[]"
                    },
                    {
                      "internalType": "int64[]",
                      "name": "primarycurrencyin",
                      "type": "int64[]"
                    },
                    {
                      "internalType": "int64[]",
                      "name": "reserveout",
                      "type": "int64[]"
                    },
                    {
                      "internalType": "int64[]",
                      "name": "conversionprice",
                      "type": "int64[]"
                    },
                    {
                      "internalType": "int64[]",
                      "name": "viaconversionprice",
                      "type": "int64[]"
                    },
                    {
                      "internalType": "int64[]",
                      "name": "fees",
                      "type": "int64[]"
                    },
                    {
                      "internalType": "int32[]",
                      "name": "priorweights",
                      "type": "int32[]"
                    },
                    {
                      "internalType": "int64[]",
                      "name": "conversionfees",
                      "type": "int64[]"
                    }
                  ],
                  "internalType": "struct VerusObjectsNotarization.CCoinbaseCurrencyState",
                  "name": "currencystate",
                  "type": "tuple"
                }
              ],
              "internalType": "struct VerusObjectsNotarization.CurrencyStates[]",
              "name": "currencystates",
              "type": "tuple[]"
            },
            {
              "components": [
                {
                  "internalType": "int16",
                  "name": "version",
                  "type": "int16"
                },
                {
                  "internalType": "int16",
                  "name": "cprtype",
                  "type": "int16"
                },
                {
                  "internalType": "address",
                  "name": "systemid",
                  "type": "address"
                },
                {
                  "internalType": "uint32",
                  "name": "rootheight",
                  "type": "uint32"
                },
                {
                  "internalType": "bytes32",
                  "name": "stateroot",
                  "type": "bytes32"
                },
                {
                  "internalType": "bytes32",
                  "name": "blockhash",
                  "type": "bytes32"
                },
                {
                  "internalType": "bytes32",
                  "name": "compactpower",
                  "type": "bytes32"
                }
              ],
              "internalType": "struct VerusObjectsNotarization.CProofRoot[]",
              "name": "proofroots",
              "type": "tuple[]"
            },
            {
              "components": [
                {
                  "internalType": "string",
                  "name": "networkaddress",
                  "type": "string"
                },
                {
                  "internalType": "address",
                  "name": "nodeidentity",
                  "type": "address"
                }
              ],
              "internalType": "struct VerusObjectsNotarization.CNodeData[]",
              "name": "nodes",
              "type": "tuple[]"
            }
          ],
          "internalType": "struct VerusObjectsNotarization.CPBaaSNotarization",
          "name": "_pbaasNotarization",
          "type": "tuple"
        },
        {
          "internalType": "uint8[]",
          "name": "_vs",
          "type": "uint8[]"
        },
        {
          "internalType": "bytes32[]",
          "name": "_rs",
          "type": "bytes32[]"
        },
        {
          "internalType": "bytes32[]",
          "name": "_ss",
          "type": "bytes32[]"
        },
        {
          "internalType": "uint32[]",
          "name": "blockheights",
          "type": "uint32[]"
        },
        {
          "internalType": "address[]",
          "name": "notaryAddress",
          "type": "address[]"
        }
      ],
      "name": "setLatestData",
      "outputs": [
        {
          "internalType": "bool",
          "name": "output",
          "type": "bool"
        }
      ],
      "stateMutability": "nonpayable",
      "type": "function"
    },
    {
      "inputs": [
        {
          "internalType": "bytes32",
          "name": "_h",
          "type": "bytes32"
        },
        {
          "internalType": "uint8",
          "name": "_v",
          "type": "uint8"
        },
        {
          "internalType": "bytes32",
          "name": "_r",
          "type": "bytes32"
        },
        {
          "internalType": "bytes32",
          "name": "_s",
          "type": "bytes32"
        }
      ],
      "name": "recoverSigner",
      "outputs": [
        {
          "internalType": "address",
          "name": "",
          "type": "address"
        }
      ],
      "stateMutability": "pure",
      "type": "function",
      "constant": true
    },
    {
      "inputs": [],
      "name": "numNotarizedBlocks",
      "outputs": [
        {
          "internalType": "uint256",
          "name": "",
          "type": "uint256"
        }
      ],
      "stateMutability": "view",
      "type": "function",
      "constant": true
    },
    {
      "inputs": [],
      "name": "getLastProofRoot",
      "outputs": [
        {
          "components": [
            {
              "internalType": "int16",
              "name": "version",
              "type": "int16"
            },
            {
              "internalType": "int16",
              "name": "cprtype",
              "type": "int16"
            },
            {
              "internalType": "address",
              "name": "systemid",
              "type": "address"
            },
            {
              "internalType": "uint32",
              "name": "rootheight",
              "type": "uint32"
            },
            {
              "internalType": "bytes32",
              "name": "stateroot",
              "type": "bytes32"
            },
            {
              "internalType": "bytes32",
              "name": "blockhash",
              "type": "bytes32"
            },
            {
              "internalType": "bytes32",
              "name": "compactpower",
              "type": "bytes32"
            }
          ],
          "internalType": "struct VerusObjectsNotarization.CProofRoot",
          "name": "",
          "type": "tuple"
        }
      ],
      "stateMutability": "view",
      "type": "function",
      "constant": true
    },
    {
      "inputs": [
        {
          "internalType": "address",
          "name": "_upgradedAddress",
          "type": "address"
        },
        {
          "internalType": "bytes32",
          "name": "_addressHash",
          "type": "bytes32"
        },
        {
          "internalType": "uint8[]",
          "name": "_vs",
          "type": "uint8[]"
        },
        {
          "internalType": "bytes32[]",
          "name": "_rs",
          "type": "bytes32[]"
        },
        {
          "internalType": "bytes32[]",
          "name": "_ss",
          "type": "bytes32[]"
        }
      ],
      "name": "notarizedDeprecation",
      "outputs": [
        {
          "internalType": "bool",
          "name": "",
          "type": "bool"
        }
      ],
      "stateMutability": "view",
      "type": "function",
      "constant": true
    },
    {
      "inputs": [
        {
          "internalType": "address",
          "name": "_upgradedAddress",
          "type": "address"
        },
        {
          "internalType": "bytes32",
          "name": "_addressHash",
          "type": "bytes32"
        },
        {
          "internalType": "uint8[]",
          "name": "_vs",
          "type": "uint8[]"
        },
        {
          "internalType": "bytes32[]",
          "name": "_rs",
          "type": "bytes32[]"
        },
        {
          "internalType": "bytes32[]",
          "name": "_ss",
          "type": "bytes32[]"
        }
      ],
      "name": "deprecate",
      "outputs": [],
      "stateMutability": "nonpayable",
      "type": "function"
    }
  ],
  "bytecode": "0x6080604052600d600060196101000a81548160ff021916908360ff16021790555073367eaadd291e1976abc446a143f83c2d4d2c5a8460601b600360006101000a81548173ffffffffffffffffffffffffffffffffffffffff021916908360601c02179055503480156200007257600080fd5b50604051620044483803806200444883398181016040528101906200009891906200040b565b82600260006101000a81548173ffffffffffffffffffffffffffffffffffffffff021916908373ffffffffffffffffffffffffffffffffffffffff16021790555083600160006101000a81548173ffffffffffffffffffffffffffffffffffffffff021916908373ffffffffffffffffffffffffffffffffffffffff16021790555060008060046101000a81548160ff0219169083151502179055506000600b60006101000a81548160ff021916908360ff16021790555060008060006101000a81548163ffffffff021916908363ffffffff16021790555060005b825181101562000347576001600460008584815181106200019157fe5b602002602001015173ffffffffffffffffffffffffffffffffffffffff1673ffffffffffffffffffffffffffffffffffffffff16815260200190815260200160002060006101000a81548160ff021916908315150217905550818181518110620001f757fe5b6020026020010151600560008584815181106200021057fe5b602002602001015173ffffffffffffffffffffffffffffffffffffffff1673ffffffffffffffffffffffffffffffffffffffff16815260200190815260200160002060006101000a81548173ffffffffffffffffffffffffffffffffffffffff021916908373ffffffffffffffffffffffffffffffffffffffff16021790555060068382815181106200029f57fe5b60200260200101519080600181540180825580915050600190039060005260206000200160009091909190916101000a81548173ffffffffffffffffffffffffffffffffffffffff021916908373ffffffffffffffffffffffffffffffffffffffff160217905550600b600081819054906101000a900460ff168092919060010191906101000a81548160ff021916908360ff16021790555050808060010191505062000174565b50505050506200055c565b6000620003696200036384620004dd565b620004a9565b905080838252602082019050828560208602820111156200038957600080fd5b60005b85811015620003bd5781620003a28882620003c7565b8452602084019350602083019250506001810190506200038c565b5050509392505050565b600081519050620003d88162000542565b92915050565b600082601f830112620003f057600080fd5b81516200040284826020860162000352565b91505092915050565b600080600080608085870312156200042257600080fd5b60006200043287828801620003c7565b94505060206200044587828801620003c7565b935050604085015167ffffffffffffffff8111156200046357600080fd5b6200047187828801620003de565b925050606085015167ffffffffffffffff8111156200048f57600080fd5b6200049d87828801620003de565b91505092959194509250565b6000604051905081810181811067ffffffffffffffff82111715620004d357620004d262000540565b5b8060405250919050565b600067ffffffffffffffff821115620004fb57620004fa62000540565b5b602082029050602081019050919050565b6000620005198262000520565b9050919050565b600073ffffffffffffffffffffffffffffffffffffffff82169050919050565bfe5b6200054d816200050c565b81146200055957600080fd5b50565b613edc806200056c6000396000f3fe608060405234801561001057600080fd5b50600436106101215760003560e01c806390ab6442116100ad578063d45167d011610071578063d45167d01461035e578063d4e032331461038e578063e7b3c875146103ac578063ec48ae3c146103dc578063f13eed97146103fa57610121565b806390ab64421461027a578063aaf34b94146102aa578063add21b3b146102c8578063b43fe1de146102fe578063b59de7061461032e57610121565b806320cd6ba1116100f457806320cd6ba1146101c0578063250dea53146101de57806326976e3f1461020e5780634b60ae631461022c5780636e0808161461024a57610121565b80630bd4cec3146101265780630e136b19146101565780631305ea631461017457806317c86875146101a4575b600080fd5b610140600480360381019061013b91906123da565b61042a565b60405161014d91906137c4565b60405180910390f35b61015e61044d565b60405161016b9190613570565b60405180910390f35b61018e6004803603810190610189919061263a565b610460565b60405161019b9190613570565b60405180910390f35b6101be60048036038101906101b99190612403565b610d01565b005b6101c8610dae565b6040516101d591906137df565b60405180910390f35b6101f860048036038101906101f391906123da565b610e52565b6040516102059190613533565b60405180910390f35b610216610e85565b6040516102239190613533565b60405180910390f35b610234610eab565b60405161024191906137c4565b60405180910390f35b610264600480360381019061025f9190612753565b610ebf565b60405161027191906137c4565b60405180910390f35b610294600480360381019061028f91906124eb565b610ef9565b6040516102a19190613570565b60405180910390f35b6102b2610fee565b6040516102bf919061354e565b60405180910390f35b6102e260048036038101906102dd919061277c565b61107c565b6040516102f5979695949392919061360d565b60405180910390f35b61031860048036038101906103139190612403565b611108565b6040516103259190613570565b60405180910390f35b610348600480360381019061034391906123da565b6112bb565b6040516103559190613570565b60405180910390f35b61037860048036038101906103739190612596565b6112db565b6040516103859190613533565b60405180910390f35b61039661133b565b6040516103a3919061378e565b60405180910390f35b6103c660048036038101906103c1919061277c565b611457565b6040516103d3919061358b565b60405180910390f35b6103e461146f565b6040516103f191906137a9565b60405180910390f35b610414600480360381019061040f91906123da565b61147c565b6040516104219190613570565b60405180910390f35b60096020528060005260406000206000915054906101000a900463ffffffff1681565b600060049054906101000a900460ff1681565b60008060049054906101000a900460ff16156104b1576040517f08c379a00000000000000000000000000000000000000000000000000000000081526004016104a89061369c565b60405180910390fd5b835185511480156104c3575085518551145b610502576040517f08c379a00000000000000000000000000000000000000000000000000000000081526004016104f9906136dc565b60405180910390fd5b60008054906101000a900463ffffffff1663ffffffff168760a0015163ffffffff1611610564576040517f08c379a000000000000000000000000000000000000000000000000000000000815260040161055b906136fc565b60405180910390fd5b6000600260009054906101000a900473ffffffffffffffffffffffffffffffffffffffff1673ffffffffffffffffffffffffffffffffffffffff1663eba973e3896040518263ffffffff1660e01b81526004016105c1919061373c565b60006040518083038186803b1580156105d957600080fd5b505afa1580156105ed573d6000803e3d6000fd5b505050506040513d6000823e3d601f19601f8201168201806040525081019061061691906125f9565b90506000806000606060005b88518110156108a7576001600360009054906101000a900460601b73a6ef9ea235635e328124ff3429db9f9e91b64e2d600260009054906101000a900473ffffffffffffffffffffffffffffffffffffffff1673ffffffffffffffffffffffffffffffffffffffff1663cecb30438d868151811061069c57fe5b60200260200101516040518263ffffffff1660e01b81526004016106c091906137c4565b60006040518083038186803b1580156106d857600080fd5b505afa1580156106ec573d6000803e3d6000fd5b505050506040513d6000823e3d601f19601f8201168201806040525081019061071591906125f9565b8b858151811061072157fe5b60200260200101518a8051906020012060405160200161074191906134b0565b604051602081830303815290604052604051602001610765969594939291906134cb565b6040516020818303038152906040529150818051906020012094506107c88560048e848151811061079257fe5b6020026020010151038d84815181106107a757fe5b60200260200101518d85815181106107bb57fe5b60200260200101516112db565b9350600560008983815181106107da57fe5b602002602001015173ffffffffffffffffffffffffffffffffffffffff1673ffffffffffffffffffffffffffffffffffffffff16815260200190815260200160002060009054906101000a900473ffffffffffffffffffffffffffffffffffffffff1673ffffffffffffffffffffffffffffffffffffffff168473ffffffffffffffffffffffffffffffffffffffff1614156108795782806001019350505b600060199054906101000a900460ff1660ff168360ff161061089a576108a7565b8080600101915050610622565b506108b0610dae565b60ff168260ff1610610ced5760005b8c610120015151811015610a1757602060106001010160ff16602060106004600101010160ff168e610120015183815181106108f757fe5b602002602001015160200151602001511661ffff1614801561098a57506000600960008f6101200151848151811061092b57fe5b60200260200101516000015173ffffffffffffffffffffffffffffffffffffffff1673ffffffffffffffffffffffffffffffffffffffff16815260200190815260200160002060009054906101000a900463ffffffff1663ffffffff16145b15610a0a5743600960008f610120015184815181106109a557fe5b60200260200101516000015173ffffffffffffffffffffffffffffffffffffffff1673ffffffffffffffffffffffffffffffffffffffff16815260200190815260200160002060006101000a81548163ffffffff021916908363ffffffff1602179055505b80806001019150506108bf565b5060005b8c610140015151811015610c955773a6ef9ea235635e328124ff3429db9f9e91b64e2d73ffffffffffffffffffffffffffffffffffffffff168d61014001518281518110610a6557fe5b60200260200101516040015173ffffffffffffffffffffffffffffffffffffffff161415610c88578c61014001518181518110610a9e57fe5b602002602001015160800151600860008f60a0015163ffffffff1663ffffffff168152602001908152602001600020819055508c61014001518181518110610ae257fe5b6020026020010151600760008f60a0015163ffffffff1663ffffffff16815260200190815260200160002060008201518160000160006101000a81548161ffff021916908360010b61ffff16021790555060208201518160000160026101000a81548161ffff021916908360010b61ffff16021790555060408201518160000160046101000a81548173ffffffffffffffffffffffffffffffffffffffff021916908373ffffffffffffffffffffffffffffffffffffffff16021790555060608201518160000160186101000a81548163ffffffff021916908363ffffffff1602179055506080820151816001015560a0820151816002015560c08201518160030155905050600a8d60a0015190806001815401808255809150506001900390600052602060002090600891828204019190066004029091909190916101000a81548163ffffffff021916908363ffffffff1602179055508c60a0015163ffffffff1660008054906101000a900463ffffffff1663ffffffff161015610c87578c60a001516000806101000a81548163ffffffff021916908363ffffffff1602179055505b5b8080600101915050610a1b565b507fc9736e50581107bfa480a96311c69439859109d190da814a525c46e2b3c567ad8c60008054906101000a900463ffffffff16604051610cd792919061375e565b60405180910390a1600195505050505050610cf7565b6000955050505050505b9695505050505050565b610d0e8585858585611108565b15610da7576001600060046101000a81548160ff02191690831515021790555084600060056101000a81548173ffffffffffffffffffffffffffffffffffffffff021916908373ffffffffffffffffffffffffffffffffffffffff1602179055507fcc358699805e9a8b7f77b522628c7cb9abd07d9efb86b6fb616af1609036a99e85604051610d9e9190613533565b60405180910390a15b5050505050565b60006001600b60009054906101000a900460ff1660ff161480610de357506002600b60009054906101000a900460ff1660ff16145b15610df15760019050610e4f565b600060016002600b60009054906101000a900460ff1660ff1681610e1157fe5b040160ff169050600060199054906101000a900460ff1660ff16811115610e4a57600060199054906101000a900460ff16915050610e4f565b809150505b90565b60056020528060005260406000206000915054906101000a900473ffffffffffffffffffffffffffffffffffffffff1681565b600060059054906101000a900473ffffffffffffffffffffffffffffffffffffffff1681565b60008054906101000a900463ffffffff1681565b600a8181548110610ecf57600080fd5b9060005260206000209060089182820401919006600402915054906101000a900463ffffffff1681565b6000806000805b8651811015610fb857610f4e88868381518110610f1957fe5b6020026020010151898481518110610f2d57fe5b6020026020010151898581518110610f4157fe5b60200260200101516112db565b9250600460008473ffffffffffffffffffffffffffffffffffffffff1673ffffffffffffffffffffffffffffffffffffffff16815260200190815260200160002060009054906101000a900460ff1615610fab5781806001019250505b8080600101915050610f00565b506000610fc3610dae565b90508060ff168260ff1610610fde5760019350505050610fe6565b600093505050505b949350505050565b6060600680548060200260200160405190810160405280929190818152602001828054801561107257602002820191906000526020600020905b8160009054906101000a900473ffffffffffffffffffffffffffffffffffffffff1673ffffffffffffffffffffffffffffffffffffffff1681526020019060010190808311611028575b5050505050905090565b60076020528060005260406000206000915090508060000160009054906101000a900460010b908060000160029054906101000a900460010b908060000160049054906101000a900473ffffffffffffffffffffffffffffffffffffffff16908060000160189054906101000a900463ffffffff16908060010154908060020154908060030154905087565b60006111133361147c565b611152576040517f08c379a00000000000000000000000000000000000000000000000000000000081526004016111499061367c565b60405180910390fd5b6000600160009054906101000a900473ffffffffffffffffffffffffffffffffffffffff1673ffffffffffffffffffffffffffffffffffffffff16632cd0cff2886040516020016111a39190613495565b6040516020818303038152906040526040518263ffffffff1660e01b81526004016111ce91906135eb565b60206040518083038186803b1580156111e657600080fd5b505afa1580156111fa573d6000803e3d6000fd5b505050506040513d601f19601f8201168201806040525081019061121e91906124c2565b9050858114611262576040517f08c379a00000000000000000000000000000000000000000000000000000000081526004016112599061371c565b60405180910390fd5b61126e86858588610ef9565b6112ad576040517f08c379a00000000000000000000000000000000000000000000000000000000081526004016112a4906136bc565b60405180910390fd5b600191505095945050505050565b60046020528060005260406000206000915054906101000a900460ff1681565b6000806001868686866040516000815260200160405260405161130194939291906135a6565b6020604051602081039080840390855afa158015611323573d6000803e3d6000fd5b50505060206040510351905080915050949350505050565b6113436114ea565b600760008060009054906101000a900463ffffffff1663ffffffff1663ffffffff1681526020019081526020016000206040518060e00160405290816000820160009054906101000a900460010b60010b60010b81526020016000820160029054906101000a900460010b60010b60010b81526020016000820160049054906101000a900473ffffffffffffffffffffffffffffffffffffffff1673ffffffffffffffffffffffffffffffffffffffff1673ffffffffffffffffffffffffffffffffffffffff1681526020016000820160189054906101000a900463ffffffff1663ffffffff1663ffffffff1681526020016001820154815260200160028201548152602001600382015481525050905090565b60086020528060005260406000206000915090505481565b6000600a80549050905090565b600060011515600460008473ffffffffffffffffffffffffffffffffffffffff1673ffffffffffffffffffffffffffffffffffffffff16815260200190815260200160002060009054906101000a900460ff16151514156114e057600190506114e5565b600090505b919050565b6040518060e00160405280600060010b8152602001600060010b8152602001600073ffffffffffffffffffffffffffffffffffffffff168152602001600063ffffffff1681526020016000801916815260200160008019168152602001600080191681525090565b60006115656115608461382b565b6137fa565b9050808382526020820190508285602086028201111561158457600080fd5b60005b858110156115b4578161159a8882611a26565b845260208401935060208301925050600181019050611587565b5050509392505050565b60006115d16115cc84613857565b6137fa565b905080838252602082019050828560208602820111156115f057600080fd5b60005b8581101561162057816116068882611bdf565b8452602084019350602083019250506001810190506115f3565b5050509392505050565b600061163d61163884613883565b6137fa565b9050808382526020820190508285602086028201111561165c57600080fd5b60005b8581101561168c57816116728882611c72565b84526020840193506020830192505060018101905061165f565b5050509392505050565b60006116a96116a4846138af565b6137fa565b905080838252602082019050828560208602820111156116c857600080fd5b60005b858110156116f857816116de8882611c87565b8452602084019350602083019250506001810190506116cb565b5050509392505050565b6000611715611710846138db565b6137fa565b9050808382526020820190508260005b85811015611755578135850161173b8882611fb2565b845260208401935060208301925050600181019050611725565b5050509392505050565b600061177261176d84613907565b6137fa565b905080838252602082019050828560e086028201111561179157600080fd5b60005b858110156117c157816117a788826121ad565b845260208401935060e08301925050600181019050611794565b5050509392505050565b60006117de6117d984613933565b6137fa565b9050808382526020820190508260005b8581101561181e5781358501611804888261230d565b8452602084019350602083019250506001810190506117ee565b5050509392505050565b600061183b6118368461395f565b6137fa565b9050808382526020820190508285602086028201111561185a57600080fd5b60005b8581101561188a57816118708882612386565b84526020840193506020830192505060018101905061185d565b5050509392505050565b60006118a76118a28461398b565b6137fa565b905080838252602082019050828560208602820111156118c657600080fd5b60005b858110156118f657816118dc88826123b0565b8452602084019350602083019250506001810190506118c9565b5050509392505050565b600061191361190e846139b7565b6137fa565b9050808382526020820190508285602086028201111561193257600080fd5b60005b85811015611962578161194888826123c5565b845260208401935060208301925050600181019050611935565b5050509392505050565b600061197f61197a846139e3565b6137fa565b90508281526020810184848401111561199757600080fd5b6119a2848285613d07565b509392505050565b60006119bd6119b8846139e3565b6137fa565b9050828152602081018484840111156119d557600080fd5b6119e0848285613d16565b509392505050565b60006119fb6119f684613a13565b6137fa565b905082815260208101848484011115611a1357600080fd5b611a1e848285613d07565b509392505050565b600081359050611a3581613dc0565b92915050565b600082601f830112611a4c57600080fd5b8135611a5c848260208601611552565b91505092915050565b600082601f830112611a7657600080fd5b8135611a868482602086016115be565b91505092915050565b600082601f830112611aa057600080fd5b8135611ab084826020860161162a565b91505092915050565b600082601f830112611aca57600080fd5b8135611ada848260208601611696565b91505092915050565b600082601f830112611af457600080fd5b8135611b04848260208601611702565b91505092915050565b600082601f830112611b1e57600080fd5b8135611b2e84826020860161175f565b91505092915050565b600082601f830112611b4857600080fd5b8135611b588482602086016117cb565b91505092915050565b600082601f830112611b7257600080fd5b8135611b82848260208601611828565b91505092915050565b600082601f830112611b9c57600080fd5b8135611bac848260208601611894565b91505092915050565b600082601f830112611bc657600080fd5b8135611bd6848260208601611900565b91505092915050565b600081359050611bee81613dd7565b92915050565b600081519050611c0381613dd7565b92915050565b600082601f830112611c1a57600080fd5b8135611c2a84826020860161196c565b91505092915050565b600082601f830112611c4457600080fd5b8151611c548482602086016119aa565b91505092915050565b600081359050611c6c81613dee565b92915050565b600081359050611c8181613e05565b92915050565b600081359050611c9681613e1c565b92915050565b600082601f830112611cad57600080fd5b8135611cbd8482602086016119e8565b91505092915050565b60006102a08284031215611cd957600080fd5b611ce46102a06137fa565b90506000611cf484828501612371565b6000830152506020611d0884828501612371565b6020830152506040611d1c84828501611a26565b604083015250606082013567ffffffffffffffff811115611d3c57600080fd5b611d4884828501611b61565b606083015250608082013567ffffffffffffffff811115611d6857600080fd5b611d7484828501611a8f565b60808301525060a082013567ffffffffffffffff811115611d9457600080fd5b611da084828501611ab9565b60a08301525060c0611db484828501611c87565b60c08301525060e0611dc884828501611c87565b60e083015250610100611ddd84828501611c87565b61010083015250610120611df384828501611c87565b61012083015250610140611e0984828501611c87565b61014083015250610160611e1f84828501611c87565b61016083015250610180611e3584828501611c87565b610180830152506101a082013567ffffffffffffffff811115611e5757600080fd5b611e6384828501611ab9565b6101a0830152506101c082013567ffffffffffffffff811115611e8557600080fd5b611e9184828501611ab9565b6101c0830152506101e082013567ffffffffffffffff811115611eb357600080fd5b611ebf84828501611ab9565b6101e08301525061020082013567ffffffffffffffff811115611ee157600080fd5b611eed84828501611ab9565b6102008301525061022082013567ffffffffffffffff811115611f0f57600080fd5b611f1b84828501611ab9565b6102208301525061024082013567ffffffffffffffff811115611f3d57600080fd5b611f4984828501611ab9565b6102408301525061026082013567ffffffffffffffff811115611f6b57600080fd5b611f7784828501611a8f565b6102608301525061028082013567ffffffffffffffff811115611f9957600080fd5b611fa584828501611ab9565b6102808301525092915050565b600060408284031215611fc457600080fd5b611fce60406137fa565b9050600082013567ffffffffffffffff811115611fea57600080fd5b611ff684828501611c9c565b600083015250602061200a84828501611a26565b60208301525092915050565b60006101a0828403121561202957600080fd5b6120346101806137fa565b90506000612044848285016123b0565b6000830152506020612058848285016123b0565b602083015250604082013567ffffffffffffffff81111561207857600080fd5b6120848482850161225d565b604083015250606061209884828501611a26565b606083015250608082013567ffffffffffffffff8111156120b857600080fd5b6120c484828501611cc6565b60808301525060a06120d8848285016123b0565b60a08301525060c06120ec848285016122c1565b60c08301525061010061210184828501611bdf565b60e083015250610120612116848285016123b0565b6101008301525061014082013567ffffffffffffffff81111561213857600080fd5b61214484828501611b37565b6101208301525061016082013567ffffffffffffffff81111561216657600080fd5b61217284828501611b0d565b6101408301525061018082013567ffffffffffffffff81111561219457600080fd5b6121a084828501611ae3565b6101608301525092915050565b600060e082840312156121bf57600080fd5b6121c960e06137fa565b905060006121d984828501611c5d565b60008301525060206121ed84828501611c5d565b602083015250604061220184828501611a26565b6040830152506060612215848285016123b0565b606083015250608061222984828501611bdf565b60808301525060a061223d84828501611bdf565b60a08301525060c061225184828501611bdf565b60c08301525092915050565b60006040828403121561226f57600080fd5b61227960406137fa565b90506000612289848285016123c5565b600083015250602082013567ffffffffffffffff8111156122a957600080fd5b6122b584828501611c09565b60208301525092915050565b6000604082840312156122d357600080fd5b6122dd60406137fa565b905060006122ed84828501611bdf565b6000830152506020612301848285016123b0565b60208301525092915050565b60006040828403121561231f57600080fd5b61232960406137fa565b9050600061233984828501611a26565b600083015250602082013567ffffffffffffffff81111561235957600080fd5b61236584828501611cc6565b60208301525092915050565b60008135905061238081613e33565b92915050565b60008135905061239581613e4a565b92915050565b6000813590506123aa81613e61565b92915050565b6000813590506123bf81613e78565b92915050565b6000813590506123d481613e8f565b92915050565b6000602082840312156123ec57600080fd5b60006123fa84828501611a26565b91505092915050565b600080600080600060a0868803121561241b57600080fd5b600061242988828901611a26565b955050602061243a88828901611bdf565b945050604086013567ffffffffffffffff81111561245757600080fd5b61246388828901611bb5565b935050606086013567ffffffffffffffff81111561248057600080fd5b61248c88828901611a65565b925050608086013567ffffffffffffffff8111156124a957600080fd5b6124b588828901611a65565b9150509295509295909350565b6000602082840312156124d457600080fd5b60006124e284828501611bf4565b91505092915050565b6000806000806080858703121561250157600080fd5b600061250f87828801611bdf565b945050602085013567ffffffffffffffff81111561252c57600080fd5b61253887828801611a65565b935050604085013567ffffffffffffffff81111561255557600080fd5b61256187828801611a65565b925050606085013567ffffffffffffffff81111561257e57600080fd5b61258a87828801611bb5565b91505092959194509250565b600080600080608085870312156125ac57600080fd5b60006125ba87828801611bdf565b94505060206125cb878288016123c5565b93505060406125dc87828801611bdf565b92505060606125ed87828801611bdf565b91505092959194509250565b60006020828403121561260b57600080fd5b600082015167ffffffffffffffff81111561262557600080fd5b61263184828501611c33565b91505092915050565b60008060008060008060c0878903121561265357600080fd5b600087013567ffffffffffffffff81111561266d57600080fd5b61267989828a01612016565b965050602087013567ffffffffffffffff81111561269657600080fd5b6126a289828a01611bb5565b955050604087013567ffffffffffffffff8111156126bf57600080fd5b6126cb89828a01611a65565b945050606087013567ffffffffffffffff8111156126e857600080fd5b6126f489828a01611a65565b935050608087013567ffffffffffffffff81111561271157600080fd5b61271d89828a01611b8b565b92505060a087013567ffffffffffffffff81111561273a57600080fd5b61274689828a01611a3b565b9150509295509295509295565b60006020828403121561276557600080fd5b60006127738482850161239b565b91505092915050565b60006020828403121561278e57600080fd5b600061279c848285016123b0565b91505092915050565b60006127b18383612845565b60208301905092915050565b60006127c98383612c56565b60208301905092915050565b60006127e18383612c65565b60208301905092915050565b60006127f983836130f2565b905092915050565b600061280d8383613250565b60e08301905092915050565b600061282583836133d8565b905092915050565b60006128398383613415565b60208301905092915050565b61284e81613c37565b82525050565b61285d81613c37565b82525050565b61287461286f82613c37565b613d49565b82525050565b600061288582613ab3565b61288f8185613b71565b935061289a83613a43565b8060005b838110156128cb5781516128b288826127a5565b97506128bd83613b16565b92505060018101905061289e565b5085935050505092915050565b60006128e382613abe565b6128ed8185613b82565b93506128f883613a53565b8060005b8381101561292957815161291088826127bd565b975061291b83613b23565b9250506001810190506128fc565b5085935050505092915050565b600061294182613ac9565b61294b8185613b93565b935061295683613a63565b8060005b8381101561298757815161296e88826127d5565b975061297983613b30565b92505060018101905061295a565b5085935050505092915050565b600061299f82613ad4565b6129a98185613ba4565b9350836020820285016129bb85613a73565b8060005b858110156129f757848403895281516129d885826127ed565b94506129e383613b3d565b925060208a019950506001810190506129bf565b50829750879550505050505092915050565b6000612a1482613adf565b612a1e8185613bb5565b9350612a2983613a83565b8060005b83811015612a5a578151612a418882612801565b9750612a4c83613b4a565b925050600181019050612a2d565b5085935050505092915050565b6000612a7282613aea565b612a7c8185613bc6565b935083602082028501612a8e85613a93565b8060005b85811015612aca5784840389528151612aab8582612819565b9450612ab683613b57565b925060208a01995050600181019050612a92565b50829750879550505050505092915050565b6000612ae782613af5565b612af18185613bd7565b9350612afc83613aa3565b8060005b83811015612b2d578151612b14888261282d565b9750612b1f83613b64565b925050600181019050612b00565b5085935050505092915050565b612b4381613c49565b82525050565b612b5a612b5582613c55565b613d5b565b82525050565b612b6981613c81565b82525050565b612b7881613c81565b82525050565b612b8f612b8a82613c81565b613d65565b82525050565b6000612ba082613b00565b612baa8185613be8565b9350612bba818560208601613d16565b612bc381613d95565b840191505092915050565b6000612bd982613b00565b612be38185613bf9565b9350612bf3818560208601613d16565b612bfc81613d95565b840191505092915050565b6000612c1282613b00565b612c1c8185613c0a565b9350612c2c818560208601613d16565b80840191505092915050565b612c4181613c8b565b82525050565b612c5081613c8b565b82525050565b612c5f81613c98565b82525050565b612c6e81613ca5565b82525050565b6000612c7f82613b0b565b612c898185613c15565b9350612c99818560208601613d16565b612ca281613d95565b840191505092915050565b6000612cba602983613c26565b91507f4f6e6c792061206e6f746172792063616e20646570726563617465207468697360008301527f20636f6e747261637400000000000000000000000000000000000000000000006020830152604082019050919050565b6000612d20601c83613c26565b91507f436f6e747261637420686173206265656e2064657072656361746564000000006000830152602082019050919050565b6000612d60603083613c26565b91507f4465707265636174696f6e20726571756972657320746865206164647265737360008301527f20746f206265206e6f746172697a6564000000000000000000000000000000006020830152604082019050919050565b6000612dc6602883613c26565b91507f5369676e617475726520617272617973206d757374206265206f66206571756160008301527f6c206c656e6774680000000000000000000000000000000000000000000000006020830152604082019050919050565b6000612e2c603683613c26565b91507f426c6f636b20486569676874206d75737420626520677265617465722074686160008301527f6e2063757272656e7420626c6f636b20686569676874000000000000000000006020830152604082019050919050565b6000612e92603483613c26565b91507f486173686564206164647265737320646f6573206e6f74206d6174636820616460008301527f647265737320686173682070617373656420696e0000000000000000000000006020830152604082019050919050565b60006102a083016000830151612f046000860182613424565b506020830151612f176020860182613424565b506040830151612f2a6040860182612845565b5060608301518482036060860152612f428282612adc565b91505060808301518482036080860152612f5c82826128d8565b91505060a083015184820360a0860152612f768282612936565b91505060c0830151612f8b60c0860182612c65565b5060e0830151612f9e60e0860182612c65565b50610100830151612fb3610100860182612c65565b50610120830151612fc8610120860182612c65565b50610140830151612fdd610140860182612c65565b50610160830151612ff2610160860182612c65565b50610180830151613007610180860182612c65565b506101a08301518482036101a08601526130218282612936565b9150506101c08301518482036101c086015261303d8282612936565b9150506101e08301518482036101e08601526130598282612936565b9150506102008301518482036102008601526130758282612936565b9150506102208301518482036102208601526130918282612936565b9150506102408301518482036102408601526130ad8282612936565b9150506102608301518482036102608601526130c982826128d8565b9150506102808301518482036102808601526130e58282612936565b9150508091505092915050565b6000604083016000830151848203600086015261310f8282612c74565b91505060208301516131246020860182612845565b508091505092915050565b60006101a0830160008301516131486000860182613442565b50602083015161315b6020860182613442565b5060408301518482036040860152613173828261336c565b91505060608301516131886060860182612845565b50608083015184820360808601526131a08282612eeb565b91505060a08301516131b560a0860182613442565b5060c08301516131c860c08601826133a9565b5060e08301516131dc610100860182612b60565b506101008301516131f1610120860182613442565b5061012083015184820361014086015261320b8282612a67565b9150506101408301518482036101608601526132278282612a09565b9150506101608301518482036101808601526132438282612994565b9150508091505092915050565b60e0820160008201516132666000850182612c38565b5060208201516132796020850182612c38565b50604082015161328c6040850182612845565b50606082015161329f6060850182613442565b5060808201516132b26080850182612b60565b5060a08201516132c560a0850182612b60565b5060c08201516132d860c0850182612b60565b50505050565b60e0820160008201516132f46000850182612c38565b5060208201516133076020850182612c38565b50604082015161331a6040850182612845565b50606082015161332d6060850182613442565b5060808201516133406080850182612b60565b5060a082015161335360a0850182612b60565b5060c082015161336660c0850182612b60565b50505050565b60006040830160008301516133846000860182613460565b506020830151848203602086015261339c8282612b95565b9150508091505092915050565b6040820160008201516133bf6000850182612b60565b5060208201516133d26020850182613442565b50505050565b60006040830160008301516133f06000860182612845565b50602083015184820360208601526134088282612eeb565b9150508091505092915050565b61341e81613cc0565b82525050565b61342d81613cb2565b82525050565b61343c81613ce0565b82525050565b61344b81613cea565b82525050565b61345a81613cea565b82525050565b61346981613cfa565b82525050565b61347881613cfa565b82525050565b61348f61348a82613cfa565b613d81565b82525050565b60006134a18284612863565b60148201915081905092915050565b60006134bc8284612b7e565b60208201915081905092915050565b60006134d7828961347e565b6001820191506134e78288612b49565b6014820191506134f78287612863565b6014820191506135078286612c07565b91506135138285612863565b6014820191506135238284612c07565b9150819050979650505050505050565b60006020820190506135486000830184612854565b92915050565b60006020820190508181036000830152613568818461287a565b905092915050565b60006020820190506135856000830184612b3a565b92915050565b60006020820190506135a06000830184612b6f565b92915050565b60006080820190506135bb6000830187612b6f565b6135c8602083018661346f565b6135d56040830185612b6f565b6135e26060830184612b6f565b95945050505050565b600060208201905081810360008301526136058184612bce565b905092915050565b600060e082019050613622600083018a612c47565b61362f6020830189612c47565b61363c6040830188612854565b6136496060830187613451565b6136566080830186612b6f565b61366360a0830185612b6f565b61367060c0830184612b6f565b98975050505050505050565b6000602082019050818103600083015261369581612cad565b9050919050565b600060208201905081810360008301526136b581612d13565b9050919050565b600060208201905081810360008301526136d581612d53565b9050919050565b600060208201905081810360008301526136f581612db9565b9050919050565b6000602082019050818103600083015261371581612e1f565b9050919050565b6000602082019050818103600083015261373581612e85565b9050919050565b60006020820190508181036000830152613756818461312f565b905092915050565b60006040820190508181036000830152613778818561312f565b90506137876020830184613451565b9392505050565b600060e0820190506137a360008301846132de565b92915050565b60006020820190506137be6000830184613433565b92915050565b60006020820190506137d96000830184613451565b92915050565b60006020820190506137f4600083018461346f565b92915050565b6000604051905081810181811067ffffffffffffffff8211171561382157613820613d93565b5b8060405250919050565b600067ffffffffffffffff82111561384657613845613d93565b5b602082029050602081019050919050565b600067ffffffffffffffff82111561387257613871613d93565b5b602082029050602081019050919050565b600067ffffffffffffffff82111561389e5761389d613d93565b5b602082029050602081019050919050565b600067ffffffffffffffff8211156138ca576138c9613d93565b5b602082029050602081019050919050565b600067ffffffffffffffff8211156138f6576138f5613d93565b5b602082029050602081019050919050565b600067ffffffffffffffff82111561392257613921613d93565b5b602082029050602081019050919050565b600067ffffffffffffffff82111561394e5761394d613d93565b5b602082029050602081019050919050565b600067ffffffffffffffff82111561397a57613979613d93565b5b602082029050602081019050919050565b600067ffffffffffffffff8211156139a6576139a5613d93565b5b602082029050602081019050919050565b600067ffffffffffffffff8211156139d2576139d1613d93565b5b602082029050602081019050919050565b600067ffffffffffffffff8211156139fe576139fd613d93565b5b601f19601f8301169050602081019050919050565b600067ffffffffffffffff821115613a2e57613a2d613d93565b5b601f19601f8301169050602081019050919050565b6000819050602082019050919050565b6000819050602082019050919050565b6000819050602082019050919050565b6000819050602082019050919050565b6000819050602082019050919050565b6000819050602082019050919050565b6000819050602082019050919050565b600081519050919050565b600081519050919050565b600081519050919050565b600081519050919050565b600081519050919050565b600081519050919050565b600081519050919050565b600081519050919050565b600081519050919050565b6000602082019050919050565b6000602082019050919050565b6000602082019050919050565b6000602082019050919050565b6000602082019050919050565b6000602082019050919050565b6000602082019050919050565b600082825260208201905092915050565b600082825260208201905092915050565b600082825260208201905092915050565b600082825260208201905092915050565b600082825260208201905092915050565b600082825260208201905092915050565b600082825260208201905092915050565b600082825260208201905092915050565b600082825260208201905092915050565b600081905092915050565b600082825260208201905092915050565b600082825260208201905092915050565b6000613c4282613cc0565b9050919050565b60008115159050919050565b60007fffffffffffffffffffffffffffffffffffffffff00000000000000000000000082169050919050565b6000819050919050565b60008160010b9050919050565b60008160030b9050919050565b60008160070b9050919050565b600061ffff82169050919050565b600073ffffffffffffffffffffffffffffffffffffffff82169050919050565b6000819050919050565b600063ffffffff82169050919050565b600060ff82169050919050565b82818337600083830152505050565b60005b83811015613d34578082015181840152602081019050613d19565b83811115613d43576000848401525b50505050565b6000613d5482613d6f565b9050919050565b6000819050919050565b6000819050919050565b6000613d7a82613db3565b9050919050565b6000613d8c82613da6565b9050919050565bfe5b6000601f19601f8301169050919050565b60008160f81b9050919050565b60008160601b9050919050565b613dc981613c37565b8114613dd457600080fd5b50565b613de081613c81565b8114613deb57600080fd5b50565b613df781613c8b565b8114613e0257600080fd5b50565b613e0e81613c98565b8114613e1957600080fd5b50565b613e2581613ca5565b8114613e3057600080fd5b50565b613e3c81613cb2565b8114613e4757600080fd5b50565b613e5381613cc0565b8114613e5e57600080fd5b50565b613e6a81613ce0565b8114613e7557600080fd5b50565b613e8181613cea565b8114613e8c57600080fd5b50565b613e9881613cfa565b8114613ea357600080fd5b5056fea26469706673582212205a090be2b538c909dd694be880170625e622c20b3f422d9b3f67bf7620aa47e764736f6c63430007060033",
  "immutableReferences": {},
  "source": "// SPDX-License-Identifier: MIT\n// Bridge between ethereum and verus\n\npragma solidity >=0.6.0 <0.9.0;\npragma experimental ABIEncoderV2;\n\nimport \"../Libraries/VerusConstants.sol\";\nimport \"../Libraries/VerusObjectsNotarization.sol\";\nimport \"../VerusBridge/VerusSerializer.sol\";\nimport \"../MMR/VerusBlake2b.sol\";\n\ncontract VerusNotarizer {\n\n    //last notarized blockheight\n    uint32 public lastBlockHeight;\n    //CurrencyState private lastCurrencyState;\n    //allows for the contract to be upgradable\n    bool public deprecated;\n    address public upgradedAddress;\n\n    //number of notaries required\n    uint8 requiredNotaries = 13;\n\n    uint8 constant FLAG_FRACTIONAL = 1;\n    uint8 constant FLAG_REFUNDING = 4;\n    uint8 constant FLAG_LAUNCHCONFIRMED = 0x10;\n    uint8 constant FLAG_LAUNCHCOMPLETEMARKER = 0x20;\n\n    VerusBlake2b blake2b;\n    VerusSerializer verusSerializer;\n    bytes20 vdxfcode = bytes20(0x367Eaadd291E1976ABc446A143f83c2D4D2C5a84);\n\n    //list of all notarizers mapped to allow for quick searching\n    mapping (address => bool) public komodoNotaries;\n    mapping (address => address) public notaryAddressMapping;\n    address[] private notaries;\n    //mapped blockdetails\n    mapping (uint32 => VerusObjectsNotarization.CProofRoot) public notarizedProofRoots;\n    mapping (uint32 => bytes32) public notarizedStateRoots;\n    \n    mapping (address => uint32) public poolAvailable;\n\n    uint32[] public blockHeights;\n    //used to record the number of notaries\n    uint8 private notaryCount;\n\n    // Notifies when the contract is deprecated\n    event Deprecate(address newAddress);\n\n    // Notifies when a new block hash is published\n    event NewBlock(VerusObjectsNotarization.CPBaaSNotarization,uint32 notarizedDataHeight);\n\n    constructor(address _verusBLAKE2bAddress,address _verusSerializerAddress,address[] memory _notaries,address[] memory _notariesEthAddress) public {\n        verusSerializer = VerusSerializer(_verusSerializerAddress);\n        blake2b = VerusBlake2b(_verusBLAKE2bAddress);\n        deprecated = false;\n        notaryCount = 0;\n        lastBlockHeight = 0;\n        //add in the owner as the first notary\n       // address msgSender = msg.sender;\n        for(uint i =0; i < _notaries.length; i++){\n            komodoNotaries[_notaries[i]] = true;\n            notaryAddressMapping[_notaries[i]] = _notariesEthAddress[i];\n            notaries.push(_notaries[i]);\n            notaryCount++;\n        }\n    }\n\n    modifier onlyNotary() {\n        address msgSender = msg.sender;\n        bytes memory errorMessage = abi.encodePacked(\"Caller is not a notary\",msgSender);\n        require(komodoNotaries[msgSender] == true, string(errorMessage));\n        _;\n    }\n    \n    function getNotaries() public view returns(address[] memory){\n        return notaries;\n    }\n        \n    function isNotary(address _notary) public view returns(bool) {\n        if(komodoNotaries[_notary] == true) return true;\n        else return false;\n    }\n\n    //this function allows for intially expanding out the number of notaries\n    function currentNotariesRequired() public view returns(uint8){\n        if(notaryCount == 1 || notaryCount == 2) return 1;\n        uint halfNotaryCount = (notaryCount/2) + 1;\n        if(halfNotaryCount > requiredNotaries) return requiredNotaries;\n        else return uint8(halfNotaryCount);\n    }\n\n    function isNotarized(bytes32 _notarizedDataHash,\n        bytes32[] memory _rs,\n        bytes32[] memory _ss,\n        uint8[] memory _vs) public view returns(bool){\n        \n        address signingAddress;\n        //total number of signatures that have been validated\n        uint8 numberOfSignatures = 0;\n\n        //loop through the arrays, check the following:\n        //does the hash in the hashedBlocks match the komodoBlockHash passed in\n        for(uint i = 0; i < _rs.length; i++){\n            //if the address is in the notary array increment the number of signatures\n            signingAddress = recoverSigner(_notarizedDataHash, _vs[i], _rs[i], _ss[i]);\n            if(komodoNotaries[signingAddress]) {\n                numberOfSignatures++;\n            }\n        }\n        uint8 _requiredNotaries = currentNotariesRequired();\n        if(numberOfSignatures >= _requiredNotaries){\n            return true;\n        } else return false;\n\n    }\n \n    function setLatestData(VerusObjectsNotarization.CPBaaSNotarization memory _pbaasNotarization,\n        uint8[] memory _vs,\n        bytes32[] memory _rs,\n        bytes32[] memory _ss,\n        uint32[] memory blockheights,\n        address[] memory notaryAddress\n        ) public returns(bool output) {\n\n        require(!deprecated,\"Contract has been deprecated\");\n        require((_rs.length == _ss.length) && (_rs.length == _vs.length),\"Signature arrays must be of equal length\");\n        require(_pbaasNotarization.notarizationheight > lastBlockHeight,\"Block Height must be greater than current block height\");\n\n        bytes memory serializedNotarisation = verusSerializer.serializeCPBaaSNotarization(_pbaasNotarization);\n        \n        //add in the extra fields for the hashing\n        //add in the other pieces for encoding\n        bytes32 hashedNotarization;\n        address signer;\n        uint8 numberOfSignatures = 0;\n        bytes memory toHash;\n\n        for(uint i=0; i < blockheights.length;i++){\n            //build the hashing sequence\n            toHash = abi.encodePacked(uint8(1),\n                vdxfcode,VerusConstants.VerusSystemId,\n                verusSerializer.serializeUint32(blockheights[i]),\n                notaryAddress[i],\n                abi.encodePacked(keccak256(serializedNotarisation)));\n            \n            hashedNotarization = keccak256(toHash);\n            \n            signer = recoverSigner(hashedNotarization, _vs[i]-4, _rs[i], _ss[i]);\n            if(signer == notaryAddressMapping[notaryAddress[i]]){\n                   numberOfSignatures++;\n            }\n            if(numberOfSignatures >= requiredNotaries){\n                break;\n            }\n        }\n        if (numberOfSignatures >= currentNotariesRequired()){\n            //valid notarization\n            //loop through the currencystates and confirm if the bridge is active\n            for(uint k= 0; k < _pbaasNotarization.currencystates.length; k++){\n                if (_pbaasNotarization.currencystates[k].currencystate.flags & \n                        (FLAG_FRACTIONAL + FLAG_REFUNDING + FLAG_LAUNCHCONFIRMED + FLAG_LAUNCHCOMPLETEMARKER) == \n                            (FLAG_FRACTIONAL + FLAG_LAUNCHCONFIRMED + FLAG_LAUNCHCOMPLETEMARKER)\n                    && poolAvailable[_pbaasNotarization.currencystates[k].currencyid] == 0) {\n                    poolAvailable[_pbaasNotarization.currencystates[k].currencyid] = uint32(block.number);\n                }\n            }\n\n            for(uint j = 0 ; j < _pbaasNotarization.proofroots.length;j++){\n                if(_pbaasNotarization.proofroots[j].systemid == VerusConstants.VerusCurrencyId){\n                    notarizedStateRoots[_pbaasNotarization.notarizationheight] =  _pbaasNotarization.proofroots[j].stateroot;       \n                    notarizedProofRoots[_pbaasNotarization.notarizationheight] = _pbaasNotarization.proofroots[j];\n                    blockHeights.push(_pbaasNotarization.notarizationheight);\n                    if(lastBlockHeight <_pbaasNotarization.notarizationheight){\n                        lastBlockHeight = _pbaasNotarization.notarizationheight;\n                    }\n                }\n            }\n            emit NewBlock(_pbaasNotarization, lastBlockHeight);\n            \n            return true;        \n        }\n      \n        return false;\n    }\n\n    function recoverSigner(bytes32 _h, uint8 _v, bytes32 _r, bytes32 _s) public pure returns (address) {\n        address addr = ecrecover(_h, _v, _r, _s);\n        return addr;\n    }\n\n    function numNotarizedBlocks() public view returns(uint){\n        return blockHeights.length;\n    }\n\n    function getLastProofRoot() public view returns(VerusObjectsNotarization.CProofRoot memory){\n        return notarizedProofRoots[lastBlockHeight];\n    }\n    \n    function notarizedDeprecation(address _upgradedAddress,bytes32 _addressHash,uint8[] memory _vs,bytes32[] memory _rs,bytes32[] memory _ss) public view returns(bool){\n        require(isNotary(msg.sender),\"Only a notary can deprecate this contract\");\n        bytes32 testingAddressHash = blake2b.createHash(abi.encodePacked(_upgradedAddress));\n        require(testingAddressHash == _addressHash,\"Hashed address does not match address hash passed in\");\n        require(isNotarized(_addressHash, _rs, _ss, _vs),\"Deprecation requires the address to be notarized\");\n        return(true);\n    }\n\n    function deprecate(address _upgradedAddress,bytes32 _addressHash,uint8[] memory _vs,bytes32[] memory _rs,bytes32[] memory _ss) public {\n        if(notarizedDeprecation(_upgradedAddress, _addressHash, _vs, _rs, _ss)){\n            deprecated = true;\n            upgradedAddress = _upgradedAddress;\n            Deprecate(_upgradedAddress);\n        }\n    }\n}\n",
  "sourcePath": "/home/chris/Verus-Ethereum-contracts/contracts/VerusNotarizer/VerusNotarizer.sol",
  "compiler": {
    "name": "solc",
    "version": "0.7.6+commit.7338295f.Emscripten.clang"
  },
  "schemaVersion": "3.4.4",
  "updatedAt": "2022-02-23T14:37:02.047Z",
  "networkType": "ethereum",
  "devdoc": {
    "kind": "dev",
    "methods": {},
    "version": 1
  },
  "userdoc": {
    "kind": "user",
    "methods": {},
    "version": 1
  }
}