{
  "contractName": "VerusBridge",
  "abi": [
    {
      "inputs": [
        {
          "internalType": "address",
          "name": "verusProofAddress",
          "type": "address"
        },
        {
          "internalType": "address",
          "name": "tokenManagerAddress",
          "type": "address"
        },
        {
          "internalType": "address",
          "name": "verusSerializerAddress",
          "type": "address"
        },
        {
          "internalType": "address",
          "name": "verusNotarizerAddress",
          "type": "address"
        },
        {
          "internalType": "address",
          "name": "verusCCEAddress",
          "type": "address"
        },
        {
          "internalType": "uint256",
          "name": "_poolSize",
          "type": "uint256"
        }
      ],
      "stateMutability": "nonpayable",
      "type": "constructor"
    },
    {
      "anonymous": false,
      "inputs": [
        {
          "indexed": false,
          "internalType": "address",
          "name": "newAddress",
          "type": "address"
        }
      ],
      "name": "Deprecate",
      "type": "event"
    },
    {
      "inputs": [
        {
          "internalType": "uint256",
          "name": "",
          "type": "uint256"
        },
        {
          "internalType": "uint256",
          "name": "",
          "type": "uint256"
        }
      ],
      "name": "_readyExports",
      "outputs": [
        {
          "internalType": "uint32",
          "name": "version",
          "type": "uint32"
        },
        {
          "components": [
            {
              "internalType": "address",
              "name": "currency",
              "type": "address"
            },
            {
              "internalType": "uint64",
              "name": "amount",
              "type": "uint64"
            }
          ],
          "internalType": "struct VerusObjects.CCurrencyValueMap",
          "name": "currencyvalue",
          "type": "tuple"
        },
        {
          "internalType": "uint32",
          "name": "flags",
          "type": "uint32"
        },
        {
          "internalType": "address",
          "name": "feecurrencyid",
          "type": "address"
        },
        {
          "internalType": "uint256",
          "name": "fees",
          "type": "uint256"
        },
        {
          "components": [
            {
              "internalType": "uint8",
              "name": "destinationtype",
              "type": "uint8"
            },
            {
              "internalType": "bytes",
              "name": "destinationaddress",
              "type": "bytes"
            }
          ],
          "internalType": "struct VerusObjectsCommon.CTransferDestination",
          "name": "destination",
          "type": "tuple"
        },
        {
          "internalType": "address",
          "name": "destcurrencyid",
          "type": "address"
        },
        {
          "internalType": "address",
          "name": "destsystemid",
          "type": "address"
        },
        {
          "internalType": "address",
          "name": "secondreserveid",
          "type": "address"
        }
      ],
      "stateMutability": "view",
      "type": "function",
      "constant": true
    },
    {
      "inputs": [
        {
          "internalType": "address",
          "name": "",
          "type": "address"
        }
      ],
      "name": "claimableFees",
      "outputs": [
        {
          "internalType": "uint256",
          "name": "",
          "type": "uint256"
        }
      ],
      "stateMutability": "view",
      "type": "function",
      "constant": true
    },
    {
      "inputs": [],
      "name": "deprecated",
      "outputs": [
        {
          "internalType": "bool",
          "name": "",
          "type": "bool"
        }
      ],
      "stateMutability": "view",
      "type": "function",
      "constant": true
    },
    {
      "inputs": [],
      "name": "ethHeld",
      "outputs": [
        {
          "internalType": "uint256",
          "name": "",
          "type": "uint256"
        }
      ],
      "stateMutability": "view",
      "type": "function",
      "constant": true
    },
    {
      "inputs": [],
      "name": "feesHeld",
      "outputs": [
        {
          "internalType": "uint256",
          "name": "",
          "type": "uint256"
        }
      ],
      "stateMutability": "view",
      "type": "function",
      "constant": true
    },
    {
      "inputs": [],
      "name": "firstBlock",
      "outputs": [
        {
          "internalType": "uint256",
          "name": "",
          "type": "uint256"
        }
      ],
      "stateMutability": "view",
      "type": "function",
      "constant": true
    },
    {
      "inputs": [],
      "name": "lastTxImportHeight",
      "outputs": [
        {
          "internalType": "uint256",
          "name": "",
          "type": "uint256"
        }
      ],
      "stateMutability": "view",
      "type": "function",
      "constant": true
    },
    {
      "inputs": [],
      "name": "lastimport",
      "outputs": [
        {
          "internalType": "uint256",
          "name": "height",
          "type": "uint256"
        },
        {
          "internalType": "bytes32",
          "name": "txid",
          "type": "bytes32"
        }
      ],
      "stateMutability": "view",
      "type": "function",
      "constant": true
    },
    {
      "inputs": [],
      "name": "poolSize",
      "outputs": [
        {
          "internalType": "uint256",
          "name": "",
          "type": "uint256"
        }
      ],
      "stateMutability": "view",
      "type": "function",
      "constant": true
    },
    {
      "inputs": [
        {
          "internalType": "bytes32",
          "name": "",
          "type": "bytes32"
        }
      ],
      "name": "processedTxids",
      "outputs": [
        {
          "internalType": "bool",
          "name": "",
          "type": "bool"
        }
      ],
      "stateMutability": "view",
      "type": "function",
      "constant": true
    },
    {
      "inputs": [
        {
          "internalType": "uint256",
          "name": "",
          "type": "uint256"
        }
      ],
      "name": "readyExportHashes",
      "outputs": [
        {
          "internalType": "bytes32",
          "name": "",
          "type": "bytes32"
        }
      ],
      "stateMutability": "view",
      "type": "function",
      "constant": true
    },
    {
      "inputs": [
        {
          "internalType": "uint256",
          "name": "",
          "type": "uint256"
        }
      ],
      "name": "readyExportsByBlock",
      "outputs": [
        {
          "internalType": "uint256",
          "name": "index",
          "type": "uint256"
        },
        {
          "internalType": "bool",
          "name": "created",
          "type": "bool"
        }
      ],
      "stateMutability": "view",
      "type": "function",
      "constant": true
    },
    {
      "inputs": [],
      "name": "upgradedAddress",
      "outputs": [
        {
          "internalType": "address",
          "name": "",
          "type": "address"
        }
      ],
      "stateMutability": "view",
      "type": "function",
      "constant": true
    },
    {
      "inputs": [
        {
          "internalType": "uint256",
          "name": "a",
          "type": "uint256"
        },
        {
          "internalType": "uint8",
          "name": "decimals",
          "type": "uint8"
        }
      ],
      "name": "convertFromVerusNumber",
      "outputs": [
        {
          "internalType": "uint256",
          "name": "",
          "type": "uint256"
        }
      ],
      "stateMutability": "pure",
      "type": "function",
      "constant": true
    },
    {
      "inputs": [
        {
          "internalType": "uint256",
          "name": "a",
          "type": "uint256"
        },
        {
          "internalType": "uint8",
          "name": "decimals",
          "type": "uint8"
        }
      ],
      "name": "convertToVerusNumber",
      "outputs": [
        {
          "internalType": "uint256",
          "name": "",
          "type": "uint256"
        }
      ],
      "stateMutability": "pure",
      "type": "function",
      "constant": true
    },
    {
      "inputs": [
        {
          "components": [
            {
              "internalType": "uint32",
              "name": "version",
              "type": "uint32"
            },
            {
              "components": [
                {
                  "internalType": "address",
                  "name": "currency",
                  "type": "address"
                },
                {
                  "internalType": "uint64",
                  "name": "amount",
                  "type": "uint64"
                }
              ],
              "internalType": "struct VerusObjects.CCurrencyValueMap",
              "name": "currencyvalue",
              "type": "tuple"
            },
            {
              "internalType": "uint32",
              "name": "flags",
              "type": "uint32"
            },
            {
              "internalType": "address",
              "name": "feecurrencyid",
              "type": "address"
            },
            {
              "internalType": "uint256",
              "name": "fees",
              "type": "uint256"
            },
            {
              "components": [
                {
                  "internalType": "uint8",
                  "name": "destinationtype",
                  "type": "uint8"
                },
                {
                  "internalType": "bytes",
                  "name": "destinationaddress",
                  "type": "bytes"
                }
              ],
              "internalType": "struct VerusObjectsCommon.CTransferDestination",
              "name": "destination",
              "type": "tuple"
            },
            {
              "internalType": "address",
              "name": "destcurrencyid",
              "type": "address"
            },
            {
              "internalType": "address",
              "name": "destsystemid",
              "type": "address"
            },
            {
              "internalType": "address",
              "name": "secondreserveid",
              "type": "address"
            }
          ],
          "internalType": "struct VerusObjects.CReserveTransfer",
          "name": "transfer",
          "type": "tuple"
        }
      ],
      "name": "export",
      "outputs": [],
      "stateMutability": "payable",
      "type": "function",
      "payable": true
    },
    {
      "inputs": [],
      "name": "getlastimportheight",
      "outputs": [
        {
          "internalType": "uint256",
          "name": "",
          "type": "uint256"
        }
      ],
      "stateMutability": "view",
      "type": "function",
      "constant": true
    },
    {
      "inputs": [
        {
          "internalType": "bytes32[]",
          "name": "_imports",
          "type": "bytes32[]"
        }
      ],
      "name": "checkImports",
      "outputs": [
        {
          "internalType": "bytes32[]",
          "name": "",
          "type": "bytes32[]"
        }
      ],
      "stateMutability": "view",
      "type": "function",
      "constant": true
    },
    {
      "inputs": [
        {
          "components": [
            {
              "internalType": "uint256",
              "name": "height",
              "type": "uint256"
            },
            {
              "internalType": "bytes32",
              "name": "txid",
              "type": "bytes32"
            },
            {
              "internalType": "uint256",
              "name": "txoutnum",
              "type": "uint256"
            },
            {
              "components": [
                {
                  "internalType": "uint16",
                  "name": "version",
                  "type": "uint16"
                },
                {
                  "internalType": "uint16",
                  "name": "flags",
                  "type": "uint16"
                },
                {
                  "internalType": "address",
                  "name": "sourcesystemid",
                  "type": "address"
                },
                {
                  "internalType": "bytes32",
                  "name": "hashtransfers",
                  "type": "bytes32"
                },
                {
                  "internalType": "uint32",
                  "name": "sourceheightstart",
                  "type": "uint32"
                },
                {
                  "internalType": "uint32",
                  "name": "sourceheightend",
                  "type": "uint32"
                },
                {
                  "internalType": "address",
                  "name": "destinationsystemid",
                  "type": "address"
                },
                {
                  "internalType": "address",
                  "name": "destinationcurrencyid",
                  "type": "address"
                },
                {
                  "internalType": "uint32",
                  "name": "numinputs",
                  "type": "uint32"
                },
                {
                  "components": [
                    {
                      "internalType": "address",
                      "name": "currency",
                      "type": "address"
                    },
                    {
                      "internalType": "uint64",
                      "name": "amount",
                      "type": "uint64"
                    }
                  ],
                  "internalType": "struct VerusObjects.CCurrencyValueMap[]",
                  "name": "totalamounts",
                  "type": "tuple[]"
                },
                {
                  "components": [
                    {
                      "internalType": "address",
                      "name": "currency",
                      "type": "address"
                    },
                    {
                      "internalType": "uint64",
                      "name": "amount",
                      "type": "uint64"
                    }
                  ],
                  "internalType": "struct VerusObjects.CCurrencyValueMap[]",
                  "name": "totalfees",
                  "type": "tuple[]"
                },
                {
                  "components": [
                    {
                      "internalType": "address",
                      "name": "currency",
                      "type": "address"
                    },
                    {
                      "internalType": "uint64",
                      "name": "amount",
                      "type": "uint64"
                    }
                  ],
                  "internalType": "struct VerusObjects.CCurrencyValueMap[]",
                  "name": "totalburned",
                  "type": "tuple[]"
                },
                {
                  "components": [
                    {
                      "internalType": "uint8",
                      "name": "destinationtype",
                      "type": "uint8"
                    },
                    {
                      "internalType": "bytes",
                      "name": "destinationaddress",
                      "type": "bytes"
                    }
                  ],
                  "internalType": "struct VerusObjectsCommon.CTransferDestination",
                  "name": "rewardaddress",
                  "type": "tuple"
                },
                {
                  "internalType": "int32",
                  "name": "firstinput",
                  "type": "int32"
                }
              ],
              "internalType": "struct VerusObjects.CCrossChainExport",
              "name": "exportinfo",
              "type": "tuple"
            },
            {
              "components": [
                {
                  "internalType": "uint8",
                  "name": "version",
                  "type": "uint8"
                },
                {
                  "internalType": "uint8",
                  "name": "typeC",
                  "type": "uint8"
                },
                {
                  "components": [
                    {
                      "internalType": "uint8",
                      "name": "branchType",
                      "type": "uint8"
                    },
                    {
                      "components": [
                        {
                          "internalType": "uint8",
                          "name": "CMerkleBranchBase",
                          "type": "uint8"
                        },
                        {
                          "internalType": "uint32",
                          "name": "nIndex",
                          "type": "uint32"
                        },
                        {
                          "internalType": "uint32",
                          "name": "nSize",
                          "type": "uint32"
                        },
                        {
                          "internalType": "bytes32[]",
                          "name": "branch",
                          "type": "bytes32[]"
                        }
                      ],
                      "internalType": "struct VerusObjects.CMerkleBranch",
                      "name": "proofSequence",
                      "type": "tuple"
                    }
                  ],
                  "internalType": "struct VerusObjects.CTXProof[]",
                  "name": "txproof",
                  "type": "tuple[]"
                },
                {
                  "components": [
                    {
                      "internalType": "uint8",
                      "name": "elType",
                      "type": "uint8"
                    },
                    {
                      "internalType": "uint8",
                      "name": "elIdx",
                      "type": "uint8"
                    },
                    {
                      "internalType": "bytes",
                      "name": "elVchObj",
                      "type": "bytes"
                    },
                    {
                      "components": [
                        {
                          "internalType": "uint8",
                          "name": "branchType",
                          "type": "uint8"
                        },
                        {
                          "components": [
                            {
                              "internalType": "uint8",
                              "name": "CMerkleBranchBase",
                              "type": "uint8"
                            },
                            {
                              "internalType": "uint32",
                              "name": "nIndex",
                              "type": "uint32"
                            },
                            {
                              "internalType": "uint32",
                              "name": "nSize",
                              "type": "uint32"
                            },
                            {
                              "internalType": "bytes32[]",
                              "name": "branch",
                              "type": "bytes32[]"
                            }
                          ],
                          "internalType": "struct VerusObjects.CMerkleBranch",
                          "name": "proofSequence",
                          "type": "tuple"
                        }
                      ],
                      "internalType": "struct VerusObjects.CTXProof[]",
                      "name": "elProof",
                      "type": "tuple[]"
                    }
                  ],
                  "internalType": "struct VerusObjects.CComponents[]",
                  "name": "components",
                  "type": "tuple[]"
                }
              ],
              "internalType": "struct VerusObjects.CPtransactionproof",
              "name": "partialtransactionproof",
              "type": "tuple"
            },
            {
              "components": [
                {
                  "internalType": "uint32",
                  "name": "version",
                  "type": "uint32"
                },
                {
                  "components": [
                    {
                      "internalType": "address",
                      "name": "currency",
                      "type": "address"
                    },
                    {
                      "internalType": "uint64",
                      "name": "amount",
                      "type": "uint64"
                    }
                  ],
                  "internalType": "struct VerusObjects.CCurrencyValueMap",
                  "name": "currencyvalue",
                  "type": "tuple"
                },
                {
                  "internalType": "uint32",
                  "name": "flags",
                  "type": "uint32"
                },
                {
                  "internalType": "address",
                  "name": "feecurrencyid",
                  "type": "address"
                },
                {
                  "internalType": "uint256",
                  "name": "fees",
                  "type": "uint256"
                },
                {
                  "components": [
                    {
                      "internalType": "uint8",
                      "name": "destinationtype",
                      "type": "uint8"
                    },
                    {
                      "internalType": "bytes",
                      "name": "destinationaddress",
                      "type": "bytes"
                    }
                  ],
                  "internalType": "struct VerusObjectsCommon.CTransferDestination",
                  "name": "destination",
                  "type": "tuple"
                },
                {
                  "internalType": "address",
                  "name": "destcurrencyid",
                  "type": "address"
                },
                {
                  "internalType": "address",
                  "name": "destsystemid",
                  "type": "address"
                },
                {
                  "internalType": "address",
                  "name": "secondreserveid",
                  "type": "address"
                }
              ],
              "internalType": "struct VerusObjects.CReserveTransfer[]",
              "name": "transfers",
              "type": "tuple[]"
            }
          ],
          "internalType": "struct VerusObjects.CReserveTransferImport[]",
          "name": "_imports",
          "type": "tuple[]"
        }
      ],
      "name": "submitImports",
      "outputs": [],
      "stateMutability": "nonpayable",
      "type": "function"
    },
    {
      "inputs": [
        {
          "components": [
            {
              "internalType": "uint256",
              "name": "height",
              "type": "uint256"
            },
            {
              "internalType": "bytes32",
              "name": "txid",
              "type": "bytes32"
            },
            {
              "internalType": "uint256",
              "name": "txoutnum",
              "type": "uint256"
            },
            {
              "components": [
                {
                  "internalType": "uint16",
                  "name": "version",
                  "type": "uint16"
                },
                {
                  "internalType": "uint16",
                  "name": "flags",
                  "type": "uint16"
                },
                {
                  "internalType": "address",
                  "name": "sourcesystemid",
                  "type": "address"
                },
                {
                  "internalType": "bytes32",
                  "name": "hashtransfers",
                  "type": "bytes32"
                },
                {
                  "internalType": "uint32",
                  "name": "sourceheightstart",
                  "type": "uint32"
                },
                {
                  "internalType": "uint32",
                  "name": "sourceheightend",
                  "type": "uint32"
                },
                {
                  "internalType": "address",
                  "name": "destinationsystemid",
                  "type": "address"
                },
                {
                  "internalType": "address",
                  "name": "destinationcurrencyid",
                  "type": "address"
                },
                {
                  "internalType": "uint32",
                  "name": "numinputs",
                  "type": "uint32"
                },
                {
                  "components": [
                    {
                      "internalType": "address",
                      "name": "currency",
                      "type": "address"
                    },
                    {
                      "internalType": "uint64",
                      "name": "amount",
                      "type": "uint64"
                    }
                  ],
                  "internalType": "struct VerusObjects.CCurrencyValueMap[]",
                  "name": "totalamounts",
                  "type": "tuple[]"
                },
                {
                  "components": [
                    {
                      "internalType": "address",
                      "name": "currency",
                      "type": "address"
                    },
                    {
                      "internalType": "uint64",
                      "name": "amount",
                      "type": "uint64"
                    }
                  ],
                  "internalType": "struct VerusObjects.CCurrencyValueMap[]",
                  "name": "totalfees",
                  "type": "tuple[]"
                },
                {
                  "components": [
                    {
                      "internalType": "address",
                      "name": "currency",
                      "type": "address"
                    },
                    {
                      "internalType": "uint64",
                      "name": "amount",
                      "type": "uint64"
                    }
                  ],
                  "internalType": "struct VerusObjects.CCurrencyValueMap[]",
                  "name": "totalburned",
                  "type": "tuple[]"
                },
                {
                  "components": [
                    {
                      "internalType": "uint8",
                      "name": "destinationtype",
                      "type": "uint8"
                    },
                    {
                      "internalType": "bytes",
                      "name": "destinationaddress",
                      "type": "bytes"
                    }
                  ],
                  "internalType": "struct VerusObjectsCommon.CTransferDestination",
                  "name": "rewardaddress",
                  "type": "tuple"
                },
                {
                  "internalType": "int32",
                  "name": "firstinput",
                  "type": "int32"
                }
              ],
              "internalType": "struct VerusObjects.CCrossChainExport",
              "name": "exportinfo",
              "type": "tuple"
            },
            {
              "components": [
                {
                  "internalType": "uint8",
                  "name": "version",
                  "type": "uint8"
                },
                {
                  "internalType": "uint8",
                  "name": "typeC",
                  "type": "uint8"
                },
                {
                  "components": [
                    {
                      "internalType": "uint8",
                      "name": "branchType",
                      "type": "uint8"
                    },
                    {
                      "components": [
                        {
                          "internalType": "uint8",
                          "name": "CMerkleBranchBase",
                          "type": "uint8"
                        },
                        {
                          "internalType": "uint32",
                          "name": "nIndex",
                          "type": "uint32"
                        },
                        {
                          "internalType": "uint32",
                          "name": "nSize",
                          "type": "uint32"
                        },
                        {
                          "internalType": "bytes32[]",
                          "name": "branch",
                          "type": "bytes32[]"
                        }
                      ],
                      "internalType": "struct VerusObjects.CMerkleBranch",
                      "name": "proofSequence",
                      "type": "tuple"
                    }
                  ],
                  "internalType": "struct VerusObjects.CTXProof[]",
                  "name": "txproof",
                  "type": "tuple[]"
                },
                {
                  "components": [
                    {
                      "internalType": "uint8",
                      "name": "elType",
                      "type": "uint8"
                    },
                    {
                      "internalType": "uint8",
                      "name": "elIdx",
                      "type": "uint8"
                    },
                    {
                      "internalType": "bytes",
                      "name": "elVchObj",
                      "type": "bytes"
                    },
                    {
                      "components": [
                        {
                          "internalType": "uint8",
                          "name": "branchType",
                          "type": "uint8"
                        },
                        {
                          "components": [
                            {
                              "internalType": "uint8",
                              "name": "CMerkleBranchBase",
                              "type": "uint8"
                            },
                            {
                              "internalType": "uint32",
                              "name": "nIndex",
                              "type": "uint32"
                            },
                            {
                              "internalType": "uint32",
                              "name": "nSize",
                              "type": "uint32"
                            },
                            {
                              "internalType": "bytes32[]",
                              "name": "branch",
                              "type": "bytes32[]"
                            }
                          ],
                          "internalType": "struct VerusObjects.CMerkleBranch",
                          "name": "proofSequence",
                          "type": "tuple"
                        }
                      ],
                      "internalType": "struct VerusObjects.CTXProof[]",
                      "name": "elProof",
                      "type": "tuple[]"
                    }
                  ],
                  "internalType": "struct VerusObjects.CComponents[]",
                  "name": "components",
                  "type": "tuple[]"
                }
              ],
              "internalType": "struct VerusObjects.CPtransactionproof",
              "name": "partialtransactionproof",
              "type": "tuple"
            },
            {
              "components": [
                {
                  "internalType": "uint32",
                  "name": "version",
                  "type": "uint32"
                },
                {
                  "components": [
                    {
                      "internalType": "address",
                      "name": "currency",
                      "type": "address"
                    },
                    {
                      "internalType": "uint64",
                      "name": "amount",
                      "type": "uint64"
                    }
                  ],
                  "internalType": "struct VerusObjects.CCurrencyValueMap",
                  "name": "currencyvalue",
                  "type": "tuple"
                },
                {
                  "internalType": "uint32",
                  "name": "flags",
                  "type": "uint32"
                },
                {
                  "internalType": "address",
                  "name": "feecurrencyid",
                  "type": "address"
                },
                {
                  "internalType": "uint256",
                  "name": "fees",
                  "type": "uint256"
                },
                {
                  "components": [
                    {
                      "internalType": "uint8",
                      "name": "destinationtype",
                      "type": "uint8"
                    },
                    {
                      "internalType": "bytes",
                      "name": "destinationaddress",
                      "type": "bytes"
                    }
                  ],
                  "internalType": "struct VerusObjectsCommon.CTransferDestination",
                  "name": "destination",
                  "type": "tuple"
                },
                {
                  "internalType": "address",
                  "name": "destcurrencyid",
                  "type": "address"
                },
                {
                  "internalType": "address",
                  "name": "destsystemid",
                  "type": "address"
                },
                {
                  "internalType": "address",
                  "name": "secondreserveid",
                  "type": "address"
                }
              ],
              "internalType": "struct VerusObjects.CReserveTransfer[]",
              "name": "transfers",
              "type": "tuple[]"
            }
          ],
          "internalType": "struct VerusObjects.CReserveTransferImport",
          "name": "_import",
          "type": "tuple"
        }
      ],
      "name": "_createImports",
      "outputs": [
        {
          "internalType": "bool",
          "name": "",
          "type": "bool"
        }
      ],
      "stateMutability": "nonpayable",
      "type": "function"
    },
    {
      "inputs": [
        {
          "internalType": "uint256",
          "name": "_blockNumber",
          "type": "uint256"
        }
      ],
      "name": "getReadyExportsByBlock",
      "outputs": [
        {
          "components": [
            {
              "internalType": "uint256",
              "name": "position",
              "type": "uint256"
            },
            {
              "internalType": "uint256",
              "name": "blockHeight",
              "type": "uint256"
            },
            {
              "internalType": "bytes32",
              "name": "exportHash",
              "type": "bytes32"
            },
            {
              "components": [
                {
                  "internalType": "uint32",
                  "name": "version",
                  "type": "uint32"
                },
                {
                  "components": [
                    {
                      "internalType": "address",
                      "name": "currency",
                      "type": "address"
                    },
                    {
                      "internalType": "uint64",
                      "name": "amount",
                      "type": "uint64"
                    }
                  ],
                  "internalType": "struct VerusObjects.CCurrencyValueMap",
                  "name": "currencyvalue",
                  "type": "tuple"
                },
                {
                  "internalType": "uint32",
                  "name": "flags",
                  "type": "uint32"
                },
                {
                  "internalType": "address",
                  "name": "feecurrencyid",
                  "type": "address"
                },
                {
                  "internalType": "uint256",
                  "name": "fees",
                  "type": "uint256"
                },
                {
                  "components": [
                    {
                      "internalType": "uint8",
                      "name": "destinationtype",
                      "type": "uint8"
                    },
                    {
                      "internalType": "bytes",
                      "name": "destinationaddress",
                      "type": "bytes"
                    }
                  ],
                  "internalType": "struct VerusObjectsCommon.CTransferDestination",
                  "name": "destination",
                  "type": "tuple"
                },
                {
                  "internalType": "address",
                  "name": "destcurrencyid",
                  "type": "address"
                },
                {
                  "internalType": "address",
                  "name": "destsystemid",
                  "type": "address"
                },
                {
                  "internalType": "address",
                  "name": "secondreserveid",
                  "type": "address"
                }
              ],
              "internalType": "struct VerusObjects.CReserveTransfer[]",
              "name": "transfers",
              "type": "tuple[]"
            }
          ],
          "internalType": "struct VerusObjects.CReserveTransferSet",
          "name": "",
          "type": "tuple"
        }
      ],
      "stateMutability": "view",
      "type": "function",
      "constant": true
    },
    {
      "inputs": [
        {
          "internalType": "uint256",
          "name": "_startBlock",
          "type": "uint256"
        },
        {
          "internalType": "uint256",
          "name": "_endBlock",
          "type": "uint256"
        }
      ],
      "name": "getReadyExportsByRange",
      "outputs": [
        {
          "components": [
            {
              "internalType": "uint256",
              "name": "position",
              "type": "uint256"
            },
            {
              "internalType": "uint256",
              "name": "blockHeight",
              "type": "uint256"
            },
            {
              "internalType": "bytes32",
              "name": "exportHash",
              "type": "bytes32"
            },
            {
              "components": [
                {
                  "internalType": "uint32",
                  "name": "version",
                  "type": "uint32"
                },
                {
                  "components": [
                    {
                      "internalType": "address",
                      "name": "currency",
                      "type": "address"
                    },
                    {
                      "internalType": "uint64",
                      "name": "amount",
                      "type": "uint64"
                    }
                  ],
                  "internalType": "struct VerusObjects.CCurrencyValueMap",
                  "name": "currencyvalue",
                  "type": "tuple"
                },
                {
                  "internalType": "uint32",
                  "name": "flags",
                  "type": "uint32"
                },
                {
                  "internalType": "address",
                  "name": "feecurrencyid",
                  "type": "address"
                },
                {
                  "internalType": "uint256",
                  "name": "fees",
                  "type": "uint256"
                },
                {
                  "components": [
                    {
                      "internalType": "uint8",
                      "name": "destinationtype",
                      "type": "uint8"
                    },
                    {
                      "internalType": "bytes",
                      "name": "destinationaddress",
                      "type": "bytes"
                    }
                  ],
                  "internalType": "struct VerusObjectsCommon.CTransferDestination",
                  "name": "destination",
                  "type": "tuple"
                },
                {
                  "internalType": "address",
                  "name": "destcurrencyid",
                  "type": "address"
                },
                {
                  "internalType": "address",
                  "name": "destsystemid",
                  "type": "address"
                },
                {
                  "internalType": "address",
                  "name": "secondreserveid",
                  "type": "address"
                }
              ],
              "internalType": "struct VerusObjects.CReserveTransfer[]",
              "name": "transfers",
              "type": "tuple[]"
            }
          ],
          "internalType": "struct VerusObjects.CReserveTransferSet[]",
          "name": "",
          "type": "tuple[]"
        }
      ],
      "stateMutability": "view",
      "type": "function",
      "constant": true
    },
    {
      "inputs": [],
      "name": "claimFees",
      "outputs": [
        {
          "internalType": "uint256",
          "name": "",
          "type": "uint256"
        }
      ],
      "stateMutability": "nonpayable",
      "type": "function"
    }
  ],
  "bytecode": "0x60806040526000600560146101000a81548160ff0219169083151502179055506000600755600060085560006009556000600a553480156200004057600080fd5b506040516200621c3803806200621c833981810160405281019062000066919062000244565b33600560006101000a81548173ffffffffffffffffffffffffffffffffffffffff021916908373ffffffffffffffffffffffffffffffffffffffff16021790555085600260006101000a81548173ffffffffffffffffffffffffffffffffffffffff021916908373ffffffffffffffffffffffffffffffffffffffff160217905550846000806101000a81548173ffffffffffffffffffffffffffffffffffffffff021916908373ffffffffffffffffffffffffffffffffffffffff16021790555083600160006101000a81548173ffffffffffffffffffffffffffffffffffffffff021916908373ffffffffffffffffffffffffffffffffffffffff16021790555082600360006101000a81548173ffffffffffffffffffffffffffffffffffffffff021916908373ffffffffffffffffffffffffffffffffffffffff16021790555081600460006101000a81548173ffffffffffffffffffffffffffffffffffffffff021916908373ffffffffffffffffffffffffffffffffffffffff160217905550806009819055506000600e600001819055506000801b600e600101819055505050505050506200034c565b600081519050620002278162000318565b92915050565b6000815190506200023e8162000332565b92915050565b60008060008060008060c087890312156200025e57600080fd5b60006200026e89828a0162000216565b96505060206200028189828a0162000216565b95505060406200029489828a0162000216565b9450506060620002a789828a0162000216565b9350506080620002ba89828a0162000216565b92505060a0620002cd89828a016200022d565b9150509295509295509295565b6000620002e782620002ee565b9050919050565b600073ffffffffffffffffffffffffffffffffffffffff82169050919050565b6000819050919050565b6200032381620002da565b81146200032f57600080fd5b50565b6200033d816200030e565b81146200034957600080fd5b50565b615ec0806200035c6000396000f3fe6080604052600436106101405760003560e01c80637e0b2492116100b6578063d294f0931161006f578063d294f093146104a9578063d5b91a92146104d4578063e45b909d14610511578063e4804abc1461054e578063e4f30a9f1461058b578063f76b96bb146105b657610140565b80637e0b2492146103675780637e3e661b146103a457806388b2621b146103e95780639deae28414610405578063b85c0acb1461042e578063c17a4eef1461046b57610140565b806332db77231161010857806332db77231461024057806338eb07e11461027d5780633f067b20146102ba57806342ce5011146102e55780634ec18db9146103105780635f2edcbe1461033b57610140565b80630e136b1914610145578063231b02681461017057806326976e3f1461019b5780632a9e72a6146101c6578063327d426314610203575b600080fd5b34801561015157600080fd5b5061015a6105e1565b6040516101679190615626565b60405180910390f35b34801561017c57600080fd5b506101856105f4565b60405161019291906156e4565b60405180910390f35b3480156101a757600080fd5b506101b06105fa565b6040516101bd91906154d7565b60405180910390f35b3480156101d257600080fd5b506101ed60048036038101906101e891906144ea565b610620565b6040516101fa91906156c2565b60405180910390f35b34801561020f57600080fd5b5061022a60048036038101906102259190614394565b610a13565b6040516102379190615626565b60405180910390f35b34801561024c57600080fd5b5061026760048036038101906102629190614468565b610a33565b6040516102749190615626565b60405180910390f35b34801561028957600080fd5b506102a4600480360381019061029f9190614578565b61100b565b6040516102b191906156e4565b60405180910390f35b3480156102c657600080fd5b506102cf61106a565b6040516102dc91906156e4565b60405180910390f35b3480156102f157600080fd5b506102fa611070565b60405161030791906156e4565b60405180910390f35b34801561031c57600080fd5b50610325611076565b60405161033291906156e4565b60405180910390f35b34801561034757600080fd5b5061035061107c565b60405161035e929190615728565b60405180910390f35b34801561037357600080fd5b5061038e60048036038101906103899190614297565b61108e565b60405161039b91906156e4565b60405180910390f35b3480156103b057600080fd5b506103cb60048036038101906103c6919061453c565b6110a6565b6040516103e099989796959493929190615751565b60405180910390f35b61040360048036038101906103fe91906144a9565b611318565b005b34801561041157600080fd5b5061042c6004803603810190610427919061432a565b611c9e565b005b34801561043a57600080fd5b50610455600480360381019061045091906142e9565b611cd8565b60405161046291906155b2565b60405180910390f35b34801561047757600080fd5b50610492600480360381019061048d91906144ea565b611dc3565b6040516104a09291906156ff565b60405180910390f35b3480156104b557600080fd5b506104be611df4565b6040516104cb91906156e4565b60405180910390f35b3480156104e057600080fd5b506104fb60048036038101906104f69190614578565b611ee4565b60405161050891906156e4565b60405180910390f35b34801561051d57600080fd5b50610538600480360381019061053391906144ea565b611f43565b6040516105459190615641565b60405180910390f35b34801561055a57600080fd5b506105756004803603810190610570919061453c565b611f67565b60405161058291906155d4565b60405180910390f35b34801561059757600080fd5b506105a0612096565b6040516105ad91906156e4565b60405180910390f35b3480156105c257600080fd5b506105cb6120a0565b6040516105d891906156e4565b60405180910390f35b600560149054906101000a900460ff1681565b600a5481565b600660009054906101000a900473ffffffffffffffffffffffffffffffffffffffff1681565b610628612cf6565b60006011600084815260200190815260200160002060000154905060006040518060800160405280838152602001858152602001600b848154811061066957fe5b90600052602060002001548152602001600d848154811061068657fe5b90600052602060002001805480602002602001604051908101604052809291908181526020016000905b82821015610a005783829060005260206000209060090201604051806101200160405290816000820160009054906101000a900463ffffffff1663ffffffff1663ffffffff168152602001600182016040518060400160405290816000820160009054906101000a900473ffffffffffffffffffffffffffffffffffffffff1673ffffffffffffffffffffffffffffffffffffffff1673ffffffffffffffffffffffffffffffffffffffff1681526020016000820160149054906101000a900467ffffffffffffffff1667ffffffffffffffff1667ffffffffffffffff168152505081526020016002820160009054906101000a900463ffffffff1663ffffffff1663ffffffff1681526020016002820160049054906101000a900473ffffffffffffffffffffffffffffffffffffffff1673ffffffffffffffffffffffffffffffffffffffff1673ffffffffffffffffffffffffffffffffffffffff16815260200160038201548152602001600482016040518060400160405290816000820160009054906101000a900460ff1660ff1660ff168152602001600182018054600181600116156101000203166002900480601f0160208091040260200160405190810160405280929190818152602001828054600181600116156101000203166002900480156108e25780601f106108b7576101008083540402835291602001916108e2565b820191906000526020600020905b8154815290600101906020018083116108c557829003601f168201915b50505050508152505081526020016006820160009054906101000a900473ffffffffffffffffffffffffffffffffffffffff1673ffffffffffffffffffffffffffffffffffffffff1673ffffffffffffffffffffffffffffffffffffffff1681526020016007820160009054906101000a900473ffffffffffffffffffffffffffffffffffffffff1673ffffffffffffffffffffffffffffffffffffffff1673ffffffffffffffffffffffffffffffffffffffff1681526020016008820160009054906101000a900473ffffffffffffffffffffffffffffffffffffffff1673ffffffffffffffffffffffffffffffffffffffff1673ffffffffffffffffffffffffffffffffffffffff1681525050815260200190600101906106b0565b5050505081525090508092505050919050565b60106020528060005260406000206000915054906101000a900460ff1681565b6000806000836080015160600151600081518110610a4d57fe5b602002602001015160400151905060208101519150600115156010600084815260200190815260200160002060009054906101000a900460ff1615151415610a9a57600092505050611006565b6000600260009054906101000a900473ffffffffffffffffffffffffffffffffffffffff1673ffffffffffffffffffffffffffffffffffffffff16630cd5756d866040518263ffffffff1660e01b8152600401610af791906156a0565b60206040518083038186803b158015610b0f57600080fd5b505afa158015610b23573d6000803e3d6000fd5b505050506040513d601f19601f82011682018060405250810190610b47919061436b565b905080610b5057fe5b60016010600085815260200190815260200160002060006101000a81548160ff02191690831515021790555084600001516013541015610b965784600001516013819055505b600080600090505b8660a0015151811015610ffc57610bdf8760a001518281518110610bbe57fe5b6020026020010151602001516020015167ffffffffffffffff166012611ee4565b915061200063ffffffff166120008860a001518381518110610bfd57fe5b6020026020010151604001511663ffffffff1614610dc6577367460c2f56774ed27eeb8685f29f6cec0b090b0073ffffffffffffffffffffffffffffffffffffffff168760a001518281518110610c5057fe5b6020026020010151602001516000015173ffffffffffffffffffffffffffffffffffffffff161415610ccc5747821115610c8657fe5b610cb782610cb28960a001518481518110610c9d57fe5b602002602001015160a00151602001516120a6565b6120b4565b81600860008282540392505081905550610dc1565b60008054906101000a900473ffffffffffffffffffffffffffffffffffffffff1673ffffffffffffffffffffffffffffffffffffffff1663abe900e48860a001518381518110610d1857fe5b602002602001015160200151600001518960a001518481518110610d3857fe5b60200260200101516020015160200151610d708b60a001518681518110610d5b57fe5b602002602001015160a00151602001516120a6565b6040518463ffffffff1660e01b8152600401610d8e9392919061557b565b600060405180830381600087803b158015610da857600080fd5b505af1158015610dbc573d6000803e3d6000fd5b505050505b610ec4565b600660ff1660068860a001518381518110610ddd57fe5b602002602001015160a00151600001511660ff161415610ec35760008054906101000a900473ffffffffffffffffffffffffffffffffffffffff1673ffffffffffffffffffffffffffffffffffffffff16633cd6ee6d8860a001518381518110610e4357fe5b602002602001015160a00151602001516040518263ffffffff1660e01b8152600401610e6f919061565c565b602060405180830381600087803b158015610e8957600080fd5b505af1158015610e9d573d6000803e3d6000fd5b505050506040513d601f19601f82011682018060405250810190610ec191906142c0565b505b5b60008760a001518281518110610ed657fe5b602002602001015160800151118015610f4957507367460c2f56774ed27eeb8685f29f6cec0b090b0073ffffffffffffffffffffffffffffffffffffffff168760a001518281518110610f2557fe5b60200260200101516060015173ffffffffffffffffffffffffffffffffffffffff16145b15610fef578660a001518181518110610f5e57fe5b602002602001015160800151601260003373ffffffffffffffffffffffffffffffffffffffff1673ffffffffffffffffffffffffffffffffffffffff1681526020019081526020016000205401601260003373ffffffffffffffffffffffffffffffffffffffff1673ffffffffffffffffffffffffffffffffffffffff168152602001908152602001600020819055505b8080600101915050610b9e565b5060019450505050505b919050565b600080600a9050600084905060088460ff161115611040576008840391508160ff16600a0a858161103857fe5b04905061105f565b60088460ff16101561105e578360080391508160ff16600a0a850290505b5b809250505092915050565b60075481565b60085481565b60095481565b600e8060000154908060010154905082565b60126020528060005260406000206000915090505481565b600d82815481106110b657600080fd5b9060005260206000200181815481106110ce57600080fd5b9060005260206000209060090201600091509150508060000160009054906101000a900463ffffffff1690806001016040518060400160405290816000820160009054906101000a900473ffffffffffffffffffffffffffffffffffffffff1673ffffffffffffffffffffffffffffffffffffffff1673ffffffffffffffffffffffffffffffffffffffff1681526020016000820160149054906101000a900467ffffffffffffffff1667ffffffffffffffff1667ffffffffffffffff1681525050908060020160009054906101000a900463ffffffff16908060020160049054906101000a900473ffffffffffffffffffffffffffffffffffffffff1690806003015490806004016040518060400160405290816000820160009054906101000a900460ff1660ff1660ff168152602001600182018054600181600116156101000203166002900480601f0160208091040260200160405190810160405280929190818152602001828054600181600116156101000203166002900480156112985780601f1061126d57610100808354040283529160200191611298565b820191906000526020600020905b81548152906001019060200180831161127b57829003601f168201915b505050505081525050908060060160009054906101000a900473ffffffffffffffffffffffffffffffffffffffff16908060070160009054906101000a900473ffffffffffffffffffffffffffffffffffffffff16908060080160009054906101000a900473ffffffffffffffffffffffffffffffffffffffff16905089565b600560149054906101000a900460ff161561132f57fe5b6000655af3107a400090506000621e848090506011600043815260200190815260200160002060010160009054906101000a900460ff1615611415576000601160004381526020019081526020016000206000015490508360c0015173ffffffffffffffffffffffffffffffffffffffff16600d82815481106113ae57fe5b906000526020600020016000815481106113c457fe5b906000526020600020906009020160060160009054906101000a900473ffffffffffffffffffffffffffffffffffffffff1673ffffffffffffffffffffffffffffffffffffffff161461141357fe5b505b61142783608001518460600151612116565b1561144457621e84806009600082825403925050819055506117fb565b73a6ef9ea235635e328124ff3429db9f9e91b64e2d73ffffffffffffffffffffffffffffffffffffffff16836060015173ffffffffffffffffffffffffffffffffffffffff1614806114d957507367460c2f56774ed27eeb8685f29f6cec0b090b0073ffffffffffffffffffffffffffffffffffffffff16836060015173ffffffffffffffffffffffffffffffffffffffff16145b6114df57fe5b73a6ef9ea235635e328124ff3429db9f9e91b64e2d73ffffffffffffffffffffffffffffffffffffffff16836060015173ffffffffffffffffffffffffffffffffffffffff16141561178c5760008060009054906101000a900473ffffffffffffffffffffffffffffffffffffffff1673ffffffffffffffffffffffffffffffffffffffff1663f79338de85606001516040518263ffffffff1660e01b815260040161158b91906154d7565b60206040518083038186803b1580156115a357600080fd5b505afa1580156115b7573d6000803e3d6000fd5b505050506040513d601f19601f820116820180604052508101906115db91906143fe565b905060008173ffffffffffffffffffffffffffffffffffffffff1663dd62ed3e33306040518363ffffffff1660e01b815260040161161a9291906154f2565b60206040518083038186803b15801561163257600080fd5b505afa158015611646573d6000803e3d6000fd5b505050506040513d601f19601f8201168201806040525081019061166a9190614513565b9050611677836012611ee4565b81101561168057fe5b8173ffffffffffffffffffffffffffffffffffffffff166323b872dd33306116a9876012611ee4565b6040518463ffffffff1660e01b81526004016116c79392919061551b565b602060405180830381600087803b1580156116e157600080fd5b505af11580156116f5573d6000803e3d6000fd5b505050506040513d601f19601f82011682018060405250810190611719919061436b565b508173ffffffffffffffffffffffffffffffffffffffff166342966c68846040518263ffffffff1660e01b815260040161175391906156e4565b600060405180830381600087803b15801561176d57600080fd5b505af1158015611781573d6000803e3d6000fd5b5050505050506117fa565b7367460c2f56774ed27eeb8685f29f6cec0b090b0073ffffffffffffffffffffffffffffffffffffffff16836060015173ffffffffffffffffffffffffffffffffffffffff1614156117f9576003820291506117ed83608001516012611ee4565b82013410156117f857fe5b5b5b5b7367460c2f56774ed27eeb8685f29f6cec0b090b0073ffffffffffffffffffffffffffffffffffffffff1683602001516000015173ffffffffffffffffffffffffffffffffffffffff1614611c21573460076000828254019250508190555060008060009054906101000a900473ffffffffffffffffffffffffffffffffffffffff1673ffffffffffffffffffffffffffffffffffffffff1663f79338de8560200151600001516040518263ffffffff1660e01b81526004016118be91906154d7565b60206040518083038186803b1580156118d657600080fd5b505afa1580156118ea573d6000803e3d6000fd5b505050506040513d601f19601f8201168201806040525081019061190e91906143fe565b905060008173ffffffffffffffffffffffffffffffffffffffff1663dd62ed3e33306040518363ffffffff1660e01b815260040161194d9291906154f2565b60206040518083038186803b15801561196557600080fd5b505afa158015611979573d6000803e3d6000fd5b505050506040513d601f19601f8201168201806040525081019061199d9190614513565b90506000611a3a86602001516020015167ffffffffffffffff168473ffffffffffffffffffffffffffffffffffffffff1663313ce5676040518163ffffffff1660e01b815260040160206040518083038186803b1580156119fd57600080fd5b505afa158015611a11573d6000803e3d6000fd5b505050506040513d601f19601f82011682018060405250810190611a3591906145dd565b611ee4565b905080821015611a4657fe5b8273ffffffffffffffffffffffffffffffffffffffff166323b872dd3330846040518463ffffffff1660e01b8152600401611a839392919061551b565b602060405180830381600087803b158015611a9d57600080fd5b505af1158015611ab1573d6000803e3d6000fd5b505050506040513d601f19601f82011682018060405250810190611ad5919061436b565b508273ffffffffffffffffffffffffffffffffffffffff1663095ea7b360008054906101000a900473ffffffffffffffffffffffffffffffffffffffff16836040518363ffffffff1660e01b8152600401611b31929190615552565b602060405180830381600087803b158015611b4b57600080fd5b505af1158015611b5f573d6000803e3d6000fd5b505050506040513d601f19601f82011682018060405250810190611b83919061436b565b5060008054906101000a900473ffffffffffffffffffffffffffffffffffffffff1673ffffffffffffffffffffffffffffffffffffffff16639033ef3f876020015160000151836040518363ffffffff1660e01b8152600401611be7929190615552565b600060405180830381600087803b158015611c0157600080fd5b505af1158015611c15573d6000803e3d6000fd5b50505050505050611c90565b611c34655af3107a40003403601261100b565b83602001516020019067ffffffffffffffff16908167ffffffffffffffff168152505082602001516020015167ffffffffffffffff16600860008282540192505081905550655af3107a40006007600082825401925050819055505b611c9983612323565b505050565b60005b8151811015611cd457611cc6828281518110611cb957fe5b6020026020010151610a33565b508080600101915050611ca1565b5050565b60606000825167ffffffffffffffff81118015611cf457600080fd5b50604051908082528060200260200182016040528015611d235781602001602082028036833780820191505090505b509050600080600090505b8451811015611db8576001151560106000878481518110611d4b57fe5b6020026020010151815260200190815260200160002060009054906101000a900460ff16151514611dab57848181518110611d8257fe5b6020026020010151838381518110611d9657fe5b60200260200101818152505081806001019250505b8080600101915050611d2e565b508192505050919050565b60116020528060005260406000206000915090508060000154908060010160009054906101000a900460ff16905082565b6000600560149054906101000a900460ff1615611e0d57fe5b6000601260003373ffffffffffffffffffffffffffffffffffffffff1673ffffffffffffffffffffffffffffffffffffffff168152602001908152602001600020541115611e9f57611e9e601260003373ffffffffffffffffffffffffffffffffffffffff1673ffffffffffffffffffffffffffffffffffffffff16815260200190815260200160002054336120b4565b5b601260003373ffffffffffffffffffffffffffffffffffffffff1673ffffffffffffffffffffffffffffffffffffffff16815260200190815260200160002054905090565b600080600a9050600084905060088460ff161115611f12576008840391508160ff16600a0a85029050611f38565b60088460ff161015611f37578360080391508160ff16600a0a8581611f3357fe5b0490505b5b809250505092915050565b600b8181548110611f5357600080fd5b906000526020600020016000915090505481565b60606000600a54841015611f7b57600a5493505b60008490505b838111611fc5576011600082815260200190815260200160002060010160009054906101000a900460ff1615611fb8576001820191505b8080600101915050611f81565b5060008167ffffffffffffffff81118015611fdf57600080fd5b5060405190808252806020026020018201604052801561201957816020015b612006612cf6565b815260200190600190039081611ffe5790505b5090506000808690505b858111612089576011600082815260200190815260200160002060010160009054906101000a900460ff161561207c5761205c81610620565b83838151811061206857fe5b602002602001018190525081806001019250505b8080600101915050612023565b5081935050505092915050565b6000601354905090565b60135481565b600060148201519050919050565b600560149054906101000a900460ff16156120cb57fe5b8073ffffffffffffffffffffffffffffffffffffffff166108fc839081150290604051600060405180830381858888f19350505050158015612111573d6000803e3d6000fd5b505050565b6000600360009054906101000a900473ffffffffffffffffffffffffffffffffffffffff1673ffffffffffffffffffffffffffffffffffffffff16630bd4cec373ffece948b8a38bbcc813411d2597f7f8485a06896040518263ffffffff1660e01b815260040161218791906154d7565b60206040518083038186803b15801561219f57600080fd5b505afa1580156121b3573d6000803e3d6000fd5b505050506040513d601f19601f820116820180604052508101906121d791906145b4565b63ffffffff1660001080156122b557504363ffffffff16600360009054906101000a900473ffffffffffffffffffffffffffffffffffffffff1673ffffffffffffffffffffffffffffffffffffffff16630bd4cec373ffece948b8a38bbcc813411d2597f7f8485a06896040518263ffffffff1660e01b815260040161225d91906154d7565b60206040518083038186803b15801561227557600080fd5b505afa158015612289573d6000803e3d6000fd5b505050506040513d601f19601f820116820180604052508101906122ad91906145b4565b63ffffffff16105b156122c3576000905061231d565b73a6ef9ea235635e328124ff3429db9f9e91b64e2d73ffffffffffffffffffffffffffffffffffffffff168273ffffffffffffffffffffffffffffffffffffffff161461230c57fe5b82600954101561231857fe5b600190505b92915050565b60004390506000806011600084815260200190815260200160002060010160009054906101000a900460ff16156125f85760116000848152602001908152602001600020600001549150600d828154811061237a57fe5b9060005260206000200184908060018154018082558091505060019003906000526020600020906009020160009091909190915060008201518160000160006101000a81548163ffffffff021916908363ffffffff16021790555060208201518160010160008201518160000160006101000a81548173ffffffffffffffffffffffffffffffffffffffff021916908373ffffffffffffffffffffffffffffffffffffffff16021790555060208201518160000160146101000a81548167ffffffffffffffff021916908367ffffffffffffffff160217905550505060408201518160020160006101000a81548163ffffffff021916908363ffffffff16021790555060608201518160020160046101000a81548173ffffffffffffffffffffffffffffffffffffffff021916908373ffffffffffffffffffffffffffffffffffffffff1602179055506080820151816003015560a08201518160040160008201518160000160006101000a81548160ff021916908360ff1602179055506020820151816001019080519060200190612514929190612d21565b50505060c08201518160060160006101000a81548173ffffffffffffffffffffffffffffffffffffffff021916908373ffffffffffffffffffffffffffffffffffffffff16021790555060e08201518160070160006101000a81548173ffffffffffffffffffffffffffffffffffffffff021916908373ffffffffffffffffffffffffffffffffffffffff1602179055506101008201518160080160006101000a81548173ffffffffffffffffffffffffffffffffffffffff021916908373ffffffffffffffffffffffffffffffffffffffff160217905550505060009050612910565b600c84908060018154018082558091505060019003906000526020600020906009020160009091909190915060008201518160000160006101000a81548163ffffffff021916908363ffffffff16021790555060208201518160010160008201518160000160006101000a81548173ffffffffffffffffffffffffffffffffffffffff021916908373ffffffffffffffffffffffffffffffffffffffff16021790555060208201518160000160146101000a81548167ffffffffffffffff021916908367ffffffffffffffff160217905550505060408201518160020160006101000a81548163ffffffff021916908363ffffffff16021790555060608201518160020160046101000a81548173ffffffffffffffffffffffffffffffffffffffff021916908373ffffffffffffffffffffffffffffffffffffffff1602179055506080820151816003015560a08201518160040160008201518160000160006101000a81548160ff021916908360ff160217905550602082015181600101908051906020019061278a929190612d21565b50505060c08201518160060160006101000a81548173ffffffffffffffffffffffffffffffffffffffff021916908373ffffffffffffffffffffffffffffffffffffffff16021790555060e08201518160070160006101000a81548173ffffffffffffffffffffffffffffffffffffffff021916908373ffffffffffffffffffffffffffffffffffffffff1602179055506101008201518160080160006101000a81548173ffffffffffffffffffffffffffffffffffffffff021916908373ffffffffffffffffffffffffffffffffffffffff1602179055505050600d805490509150600d600c908060018154018082558091505060019003906000526020600020016000909190919091509080546128a4929190612daf565b50604051806040016040528083815260200160011515815250601160008581526020019081526020016000206000820151816000015560208201518160010160006101000a81548160ff021916908315150217905550905050600c600061290b919061312f565b600190505b6000600360009054906101000a900473ffffffffffffffffffffffffffffffffffffffff1673ffffffffffffffffffffffffffffffffffffffff16630bd4cec373ffece948b8a38bbcc813411d2597f7f8485a06896040518263ffffffff1660e01b815260040161298191906154d7565b60206040518083038186803b15801561299957600080fd5b505afa1580156129ad573d6000803e3d6000fd5b505050506040513d601f19601f820116820180604052508101906129d191906145b4565b63ffffffff166000108015612aaf57504363ffffffff16600360009054906101000a900473ffffffffffffffffffffffffffffffffffffffff1673ffffffffffffffffffffffffffffffffffffffff16630bd4cec373ffece948b8a38bbcc813411d2597f7f8485a06896040518263ffffffff1660e01b8152600401612a5791906154d7565b60206040518083038186803b158015612a6f57600080fd5b505afa158015612a83573d6000803e3d6000fd5b505050506040513d601f19601f82011682018060405250810190612aa791906145b4565b63ffffffff16105b90506000600160009054906101000a900473ffffffffffffffffffffffffffffffffffffffff1673ffffffffffffffffffffffffffffffffffffffff16636003992a600460009054906101000a900473ffffffffffffffffffffffffffffffffffffffff1673ffffffffffffffffffffffffffffffffffffffff1663bb6ff4b6600d8881548110612b3c57fe5b90600052602060002001866040518363ffffffff1660e01b8152600401612b649291906155f6565b600060405180830381600087803b158015612b7e57600080fd5b505af1158015612b92573d6000803e3d6000fd5b505050506040513d6000823e3d601f19601f82011682018060405250810190612bbb9190614427565b6040518263ffffffff1660e01b8152600401612bd7919061567e565b60006040518083038186803b158015612bef57600080fd5b505afa158015612c03573d6000803e3d6000fd5b505050506040513d6000823e3d601f19601f82011682018060405250810190612c2c91906143bd565b90506000806000801b905060008614612c5d57600b6001870381548110612c4f57fe5b906000526020600020015490505b8281604051602001612c709291906154af565b6040516020818303038152906040528051906020012091508415612cbc57600b829080600181540180825580915050600190039060005260206000200160009091909190915055612cd9565b81600b8781548110612cca57fe5b90600052602060002001819055505b6000600a541415612cec5786600a819055505b5050505050505050565b6040518060800160405280600081526020016000815260200160008019168152602001606081525090565b828054600181600116156101000203166002900490600052602060002090601f016020900481019282612d575760008555612d9e565b82601f10612d7057805160ff1916838001178555612d9e565b82800160010185558215612d9e579182015b82811115612d9d578251825591602001919060010190612d82565b5b509050612dab9190613153565b5090565b82805482825590600052602060002090600902810192821561311e5760005260206000209160090282015b8281111561311d5782826000820160009054906101000a900463ffffffff168160000160006101000a81548163ffffffff021916908363ffffffff16021790555060018201816001016000820160009054906101000a900473ffffffffffffffffffffffffffffffffffffffff168160000160006101000a81548173ffffffffffffffffffffffffffffffffffffffff021916908373ffffffffffffffffffffffffffffffffffffffff1602179055506000820160149054906101000a900467ffffffffffffffff168160000160146101000a81548167ffffffffffffffff021916908367ffffffffffffffff16021790555050506002820160009054906101000a900463ffffffff168160020160006101000a81548163ffffffff021916908363ffffffff1602179055506002820160049054906101000a900473ffffffffffffffffffffffffffffffffffffffff168160020160046101000a81548173ffffffffffffffffffffffffffffffffffffffff021916908373ffffffffffffffffffffffffffffffffffffffff1602179055506003820154816003015560048201816004016000820160009054906101000a900460ff168160000160006101000a81548160ff021916908360ff16021790555060018201816001019080546001816001161561010002031660029004612fd4929190613170565b5050506006820160009054906101000a900473ffffffffffffffffffffffffffffffffffffffff168160060160006101000a81548173ffffffffffffffffffffffffffffffffffffffff021916908373ffffffffffffffffffffffffffffffffffffffff1602179055506007820160009054906101000a900473ffffffffffffffffffffffffffffffffffffffff168160070160006101000a81548173ffffffffffffffffffffffffffffffffffffffff021916908373ffffffffffffffffffffffffffffffffffffffff1602179055506008820160009054906101000a900473ffffffffffffffffffffffffffffffffffffffff168160080160006101000a81548173ffffffffffffffffffffffffffffffffffffffff021916908373ffffffffffffffffffffffffffffffffffffffff160217905550505091600901919060090190612dda565b5b50905061312b9190613205565b5090565b50805460008255600902906000526020600020908101906131509190613205565b50565b5b8082111561316c576000816000905550600101613154565b5090565b828054600181600116156101000203166002900490600052602060002090601f0160209004810192826131a657600085556131f4565b82601f106131b757805485556131f4565b828001600101855582156131f457600052602060002091601f016020900482015b828111156131f35782548255916001019190600101906131d8565b5b5090506132019190613153565b5090565b5b8082111561335e57600080820160006101000a81549063ffffffff021916905560018201600080820160006101000a81549073ffffffffffffffffffffffffffffffffffffffff02191690556000820160146101000a81549067ffffffffffffffff021916905550506002820160006101000a81549063ffffffff02191690556002820160046101000a81549073ffffffffffffffffffffffffffffffffffffffff0219169055600382016000905560048201600080820160006101000a81549060ff02191690556001820160006132de9190613362565b50506006820160006101000a81549073ffffffffffffffffffffffffffffffffffffffff02191690556007820160006101000a81549073ffffffffffffffffffffffffffffffffffffffff02191690556008820160006101000a81549073ffffffffffffffffffffffffffffffffffffffff021916905550600901613206565b5090565b50805460018160011615610100020316600290046000825580601f1061338857506133a7565b601f0160209004906000526020600020908101906133a69190613153565b5b50565b60006133bd6133b884615817565b6157e6565b905080838252602082019050828560208602820111156133dc57600080fd5b60005b8581101561340c57816133f28882613843565b8452602084019350602083019250506001810190506133df565b5050509392505050565b600061342961342484615843565b6157e6565b9050808382526020820190508260005b85811015613469578135850161344f8882613900565b845260208401935060208301925050600181019050613439565b5050509392505050565b60006134866134818461586f565b6157e6565b905080838252602082019050828560408602820111156134a557600080fd5b60005b858110156134d557816134bb8882613cf8565b8452602084019350604083019250506001810190506134a8565b5050509392505050565b60006134f26134ed8461586f565b6157e6565b9050808382526020820190508285604086028201111561351157600080fd5b60005b8581101561354157816135278882613d44565b845260208401935060408301925050600181019050613514565b5050509392505050565b600061355e6135598461589b565b6157e6565b9050808382526020820190508260005b8581101561359e57813585016135848882613ec0565b84526020840193506020830192505060018101905061356e565b5050509392505050565b60006135bb6135b6846158c7565b6157e6565b9050808382526020820190508260005b858110156135fb57813585016135e18882613fa4565b8452602084019350602083019250506001810190506135cb565b5050509392505050565b6000613618613613846158f3565b6157e6565b9050808382526020820190508260005b85811015613658578135850161363e8882614099565b845260208401935060208301925050600181019050613628565b5050509392505050565b60006136756136708461591f565b6157e6565b90508281526020810184848401111561368d57600080fd5b613698848285615c82565b509392505050565b60006136b36136ae8461591f565b6157e6565b9050828152602081018484840111156136cb57600080fd5b6136d6848285615c91565b509392505050565b6000813590506136ed81615da4565b92915050565b60008151905061370281615da4565b92915050565b600082601f83011261371957600080fd5b81356137298482602086016133aa565b91505092915050565b600082601f83011261374357600080fd5b8135613753848260208601613416565b91505092915050565b600082601f83011261376d57600080fd5b813561377d848260208601613473565b91505092915050565b600082601f83011261379757600080fd5b81516137a78482602086016134df565b91505092915050565b600082601f8301126137c157600080fd5b81356137d184826020860161354b565b91505092915050565b600082601f8301126137eb57600080fd5b81356137fb8482602086016135a8565b91505092915050565b600082601f83011261381557600080fd5b8135613825848260208601613605565b91505092915050565b60008151905061383d81615dbb565b92915050565b60008135905061385281615dd2565b92915050565b60008151905061386781615dd2565b92915050565b600082601f83011261387e57600080fd5b813561388e848260208601613662565b91505092915050565b600082601f8301126138a857600080fd5b81516138b88482602086016136a0565b91505092915050565b6000815190506138d081615de9565b92915050565b6000813590506138e581615e00565b92915050565b6000815190506138fa81615e00565b92915050565b60006080828403121561391257600080fd5b61391c60806157e6565b9050600061392c8482850161426d565b60008301525060206139408482850161426d565b602083015250604082013567ffffffffffffffff81111561396057600080fd5b61396c8482850161386d565b604083015250606082013567ffffffffffffffff81111561398c57600080fd5b61399884828501613804565b60608301525092915050565b60006101c082840312156139b757600080fd5b6139c26101c06157e6565b905060006139d2848285016141c5565b60008301525060206139e6848285016141c5565b60208301525060406139fa848285016136de565b6040830152506060613a0e84828501613843565b6060830152506080613a2284828501614219565b60808301525060a0613a3684828501614219565b60a08301525060c0613a4a848285016136de565b60c08301525060e0613a5e848285016136de565b60e083015250610100613a7384828501614219565b6101008301525061012082013567ffffffffffffffff811115613a9557600080fd5b613aa18482850161375c565b6101208301525061014082013567ffffffffffffffff811115613ac357600080fd5b613acf8482850161375c565b6101408301525061016082013567ffffffffffffffff811115613af157600080fd5b613afd8482850161375c565b6101608301525061018082013567ffffffffffffffff811115613b1f57600080fd5b613b2b848285016140fd565b610180830152506101a0613b41848285016138d6565b6101a08301525092915050565b60006101c08284031215613b6157600080fd5b613b6c6101c06157e6565b90506000613b7c848285016141da565b6000830152506020613b90848285016141da565b6020830152506040613ba4848285016136f3565b6040830152506060613bb884828501613858565b6060830152506080613bcc8482850161422e565b60808301525060a0613be08482850161422e565b60a08301525060c0613bf4848285016136f3565b60c08301525060e0613c08848285016136f3565b60e083015250610100613c1d8482850161422e565b6101008301525061012082015167ffffffffffffffff811115613c3f57600080fd5b613c4b84828501613786565b6101208301525061014082015167ffffffffffffffff811115613c6d57600080fd5b613c7984828501613786565b6101408301525061016082015167ffffffffffffffff811115613c9b57600080fd5b613ca784828501613786565b6101608301525061018082015167ffffffffffffffff811115613cc957600080fd5b613cd584828501614161565b610180830152506101a0613ceb848285016138eb565b6101a08301525092915050565b600060408284031215613d0a57600080fd5b613d1460406157e6565b90506000613d24848285016136de565b6000830152506020613d3884828501614243565b60208301525092915050565b600060408284031215613d5657600080fd5b613d6060406157e6565b90506000613d70848285016136f3565b6000830152506020613d8484828501614258565b60208301525092915050565b600060808284031215613da257600080fd5b613dac60806157e6565b90506000613dbc8482850161426d565b6000830152506020613dd084828501614219565b6020830152506040613de484828501614219565b604083015250606082013567ffffffffffffffff811115613e0457600080fd5b613e1084828501613708565b60608301525092915050565b600060808284031215613e2e57600080fd5b613e3860806157e6565b90506000613e488482850161426d565b6000830152506020613e5c8482850161426d565b602083015250604082013567ffffffffffffffff811115613e7c57600080fd5b613e8884828501613804565b604083015250606082013567ffffffffffffffff811115613ea857600080fd5b613eb484828501613732565b60608301525092915050565b600060c08284031215613ed257600080fd5b613edc60c06157e6565b90506000613eec848285016141ef565b6000830152506020613f0084828501613843565b6020830152506040613f14848285016141ef565b604083015250606082013567ffffffffffffffff811115613f3457600080fd5b613f40848285016139a4565b606083015250608082013567ffffffffffffffff811115613f6057600080fd5b613f6c84828501613e1c565b60808301525060a082013567ffffffffffffffff811115613f8c57600080fd5b613f98848285016137da565b60a08301525092915050565b60006101408284031215613fb757600080fd5b613fc26101206157e6565b90506000613fd284828501614219565b6000830152506020613fe684828501613cf8565b6020830152506060613ffa84828501614219565b604083015250608061400e848285016136de565b60608301525060a0614022848285016141ef565b60808301525060c082013567ffffffffffffffff81111561404257600080fd5b61404e848285016140fd565b60a08301525060e0614062848285016136de565b60c083015250610100614077848285016136de565b60e08301525061012061408c848285016136de565b6101008301525092915050565b6000604082840312156140ab57600080fd5b6140b560406157e6565b905060006140c58482850161426d565b600083015250602082013567ffffffffffffffff8111156140e557600080fd5b6140f184828501613d90565b60208301525092915050565b60006040828403121561410f57600080fd5b61411960406157e6565b905060006141298482850161426d565b600083015250602082013567ffffffffffffffff81111561414957600080fd5b6141558482850161386d565b60208301525092915050565b60006040828403121561417357600080fd5b61417d60406157e6565b9050600061418d84828501614282565b600083015250602082015167ffffffffffffffff8111156141ad57600080fd5b6141b984828501613897565b60208301525092915050565b6000813590506141d481615e17565b92915050565b6000815190506141e981615e17565b92915050565b6000813590506141fe81615e2e565b92915050565b60008151905061421381615e2e565b92915050565b60008135905061422881615e45565b92915050565b60008151905061423d81615e45565b92915050565b60008135905061425281615e5c565b92915050565b60008151905061426781615e5c565b92915050565b60008135905061427c81615e73565b92915050565b60008151905061429181615e73565b92915050565b6000602082840312156142a957600080fd5b60006142b7848285016136de565b91505092915050565b6000602082840312156142d257600080fd5b60006142e0848285016136f3565b91505092915050565b6000602082840312156142fb57600080fd5b600082013567ffffffffffffffff81111561431557600080fd5b61432184828501613708565b91505092915050565b60006020828403121561433c57600080fd5b600082013567ffffffffffffffff81111561435657600080fd5b614362848285016137b0565b91505092915050565b60006020828403121561437d57600080fd5b600061438b8482850161382e565b91505092915050565b6000602082840312156143a657600080fd5b60006143b484828501613843565b91505092915050565b6000602082840312156143cf57600080fd5b600082015167ffffffffffffffff8111156143e957600080fd5b6143f584828501613897565b91505092915050565b60006020828403121561441057600080fd5b600061441e848285016138c1565b91505092915050565b60006020828403121561443957600080fd5b600082015167ffffffffffffffff81111561445357600080fd5b61445f84828501613b4e565b91505092915050565b60006020828403121561447a57600080fd5b600082013567ffffffffffffffff81111561449457600080fd5b6144a084828501613ec0565b91505092915050565b6000602082840312156144bb57600080fd5b600082013567ffffffffffffffff8111156144d557600080fd5b6144e184828501613fa4565b91505092915050565b6000602082840312156144fc57600080fd5b600061450a848285016141ef565b91505092915050565b60006020828403121561452557600080fd5b600061453384828501614204565b91505092915050565b6000806040838503121561454f57600080fd5b600061455d858286016141ef565b925050602061456e858286016141ef565b9150509250929050565b6000806040838503121561458b57600080fd5b6000614599858286016141ef565b92505060206145aa8582860161426d565b9150509250929050565b6000602082840312156145c657600080fd5b60006145d48482850161422e565b91505092915050565b6000602082840312156145ef57600080fd5b60006145fd84828501614282565b91505092915050565b60006146128383614a38565b60208301905092915050565b600061462a8383614bae565b905092915050565b600061463e8383614e9e565b60408301905092915050565b600061465683836150a0565b905092915050565b600061466a8383615166565b905092915050565b600061467e838361522c565b905092915050565b60006146928383615337565b905092915050565b6146a381615c4c565b82525050565b6146b281615b9c565b82525050565b6146c181615b9c565b82525050565b60006146d2826159d9565b6146dc8185615a8c565b93506146e78361594f565b8060005b838110156147185781516146ff8882614606565b975061470a83615a31565b9250506001810190506146eb565b5085935050505092915050565b6000614730826159d9565b61473a8185615a9d565b93506147458361594f565b8060005b8381101561477657815161475d8882614606565b975061476883615a31565b925050600181019050614749565b5085935050505092915050565b600061478e826159e4565b6147988185615aae565b9350836020820285016147aa8561595f565b8060005b858110156147e657848403895281516147c7858261461e565b94506147d283615a3e565b925060208a019950506001810190506147ae565b50829750879550505050505092915050565b6000614803826159ef565b61480d8185615abf565b93506148188361596f565b8060005b838110156148495781516148308882614632565b975061483b83615a4b565b92505060018101905061481c565b5085935050505092915050565b6000614861826159fa565b61486b8185615ad0565b93508360208202850161487d8561597f565b8060005b858110156148b9578484038952815161489a858261464a565b94506148a583615a58565b925060208a01995050600181019050614881565b50829750879550505050505092915050565b60006148d682615a05565b6148e08185615ae1565b9350836020820285016148f28561598f565b8060005b8581101561492e578484038952815161490f858261465e565b945061491a83615a65565b925060208a019950506001810190506148f6565b50829750879550505050505092915050565b600061494b82615a10565b6149558185615af2565b9350836020820285016149678561599f565b8060005b858110156149a2578484038952816149838582614672565b945061498e83615a72565b925060208a0199505060018101905061496b565b50829750879550505050505092915050565b60006149bf82615a1b565b6149c98185615b03565b9350836020820285016149db856159b4565b8060005b85811015614a1757848403895281516149f88582614686565b9450614a0383615a7f565b925060208a019950506001810190506149df565b50829750879550505050505092915050565b614a3281615bae565b82525050565b614a4181615bba565b82525050565b614a5081615bba565b82525050565b614a67614a6282615bba565b615d60565b82525050565b6000614a7882615a26565b614a828185615b14565b9350614a92818560208601615c91565b614a9b81615d6c565b840191505092915050565b6000614ab182615a26565b614abb8185615b25565b9350614acb818560208601615c91565b614ad481615d6c565b840191505092915050565b6000614aea82615a26565b614af48185615b36565b9350614b04818560208601615c91565b80840191505092915050565b600081546001811660008114614b2d5760018114614b5357614b97565b607f6002830416614b3e8187615b14565b955060ff198316865260208601935050614b97565b60028204614b618187615b14565b9550614b6c856159c4565b60005b82811015614b8e57815481890152600182019150602081019050614b6f565b80880195505050505b505092915050565b614ba881615bd6565b82525050565b6000608083016000830151614bc660008601826154a0565b506020830151614bd960208601826154a0565b5060408301518482036040860152614bf18282614a6d565b91505060608301518482036060860152614c0b82826149b4565b9150508091505092915050565b60006101c083016000830151614c316000860182615437565b506020830151614c446020860182615437565b506040830151614c5760408601826146a9565b506060830151614c6a6060860182614a38565b506080830151614c7d6080860182615464565b5060a0830151614c9060a0860182615464565b5060c0830151614ca360c08601826146a9565b5060e0830151614cb660e08601826146a9565b50610100830151614ccb610100860182615464565b50610120830151848203610120860152614ce582826147f8565b915050610140830151848203610140860152614d0182826147f8565b915050610160830151848203610160860152614d1d82826147f8565b915050610180830151848203610180860152614d398282615374565b9150506101a0830151614d506101a0860182614b9f565b508091505092915050565b60006101c083016000830151614d746000860182615437565b506020830151614d876020860182615437565b506040830151614d9a60408601826146a9565b506060830151614dad6060860182614a38565b506080830151614dc06080860182615464565b5060a0830151614dd360a0860182615464565b5060c0830151614de660c08601826146a9565b5060e0830151614df960e08601826146a9565b50610100830151614e0e610100860182615464565b50610120830151848203610120860152614e2882826147f8565b915050610140830151848203610140860152614e4482826147f8565b915050610160830151848203610160860152614e6082826147f8565b915050610180830151848203610180860152614e7c8282615374565b9150506101a0830151614e936101a0860182614b9f565b508091505092915050565b604082016000820151614eb460008501826146a9565b506020820151614ec76020850182615482565b50505050565b604082016000820151614ee360008501826146a9565b506020820151614ef66020850182615482565b50505050565b604082016000808301549050614f1181615cc4565b614f1e60008601826146a9565b50614f2881615d2c565b614f356020860182615482565b5050505050565b6000608083016000830151614f5460008601826154a0565b506020830151614f676020860182615464565b506040830151614f7a6040860182615464565b5060608301518482036060860152614f9282826146c7565b9150508091505092915050565b6000608083016000830151614fb760008601826154a0565b506020830151614fca60208601826154a0565b5060408301518482036040860152614fe282826149b4565b91505060608301518482036060860152614ffc8282614783565b9150508091505092915050565b600060c0830160008301516150216000860182615446565b5060208301516150346020860182614a38565b5060408301516150476040860182615446565b506060830151848203606086015261505f8282614c18565b915050608083015184820360808601526150798282614f9f565b91505060a083015184820360a086015261509382826148cb565b9150508091505092915050565b60006080830160008301516150b86000860182615446565b5060208301516150cb6020860182615446565b5060408301516150de6040860182614a38565b50606083015184820360608601526150f682826148cb565b9150508091505092915050565b600060808301600083015161511b6000860182615446565b50602083015161512e6020860182615446565b5060408301516151416040860182614a38565b506060830151848203606086015261515982826148cb565b9150508091505092915050565b60006101408301600083015161517f6000860182615464565b5060208301516151926020860182614e9e565b5060408301516151a56060860182615464565b5060608301516151b860808601826146a9565b5060808301516151cb60a0860182615446565b5060a083015184820360c08601526151e38282615374565b91505060c08301516151f860e08601826146a9565b5060e083015161520c6101008601826146a9565b506101008301516152216101208601826146a9565b508091505092915050565b60006101408301600080840154905061524481615cf8565b6152516000870182615464565b50600184016152636020870182614efc565b506002840154905061527481615cf8565b6152816060870182615464565b5061528b81615d46565b61529860808701826146a9565b50600384015490506152a981615cde565b6152b660a0870182615446565b506004840185830360c08701526152cd83826153ee565b925050600684015490506152e081615cc4565b6152ed60e08701826146a9565b50600784015490506152fe81615cc4565b61530c6101008701826146a9565b506008840154905061531d81615cc4565b61532b6101208701826146a9565b50819250505092915050565b600060408301600083015161534f60008601826154a0565b50602083015184820360208601526153678282614f3c565b9150508091505092915050565b600060408301600083015161538c60008601826154a0565b50602083015184820360208601526153a48282614a6d565b9150508091505092915050565b60006040830160008301516153c960008601826154a0565b50602083015184820360208601526153e18282614a6d565b9150508091505092915050565b600060408301600080840154905061540581615d12565b61541260008701826154a0565b506001840185830360208701526154298382614b10565b925050819250505092915050565b61544081615be3565b82525050565b61544f81615c11565b82525050565b61545e81615c11565b82525050565b61546d81615c1b565b82525050565b61547c81615c1b565b82525050565b61548b81615c2b565b82525050565b61549a81615c2b565b82525050565b6154a981615c3f565b82525050565b60006154bb8285614adf565b91506154c78284614a56565b6020820191508190509392505050565b60006020820190506154ec60008301846146b8565b92915050565b6000604082019050615507600083018561469a565b61551460208301846146b8565b9392505050565b6000606082019050615530600083018661469a565b61553d60208301856146b8565b61554a6040830184615455565b949350505050565b600060408201905061556760008301856146b8565b6155746020830184615455565b9392505050565b600060608201905061559060008301866146b8565b61559d6020830185615491565b6155aa60408301846146b8565b949350505050565b600060208201905081810360008301526155cc8184614725565b905092915050565b600060208201905081810360008301526155ee8184614856565b905092915050565b600060408201905081810360008301526156108185614940565b905061561f6020830184614a29565b9392505050565b600060208201905061563b6000830184614a29565b92915050565b60006020820190506156566000830184614a47565b92915050565b600060208201905081810360008301526156768184614aa6565b905092915050565b600060208201905081810360008301526156988184614d5b565b905092915050565b600060208201905081810360008301526156ba8184615009565b905092915050565b600060208201905081810360008301526156dc8184615103565b905092915050565b60006020820190506156f96000830184615455565b92915050565b60006040820190506157146000830185615455565b6157216020830184614a29565b9392505050565b600060408201905061573d6000830185615455565b61574a6020830184614a47565b9392505050565b600061014082019050615767600083018c615473565b615774602083018b614ecd565b615781606083018a615473565b61578e60808301896146b8565b61579b60a0830188615455565b81810360c08301526157ad81876153b1565b90506157bc60e08301866146b8565b6157ca6101008301856146b8565b6157d86101208301846146b8565b9a9950505050505050505050565b6000604051905081810181811067ffffffffffffffff8211171561580d5761580c615d6a565b5b8060405250919050565b600067ffffffffffffffff82111561583257615831615d6a565b5b602082029050602081019050919050565b600067ffffffffffffffff82111561585e5761585d615d6a565b5b602082029050602081019050919050565b600067ffffffffffffffff82111561588a57615889615d6a565b5b602082029050602081019050919050565b600067ffffffffffffffff8211156158b6576158b5615d6a565b5b602082029050602081019050919050565b600067ffffffffffffffff8211156158e2576158e1615d6a565b5b602082029050602081019050919050565b600067ffffffffffffffff82111561590e5761590d615d6a565b5b602082029050602081019050919050565b600067ffffffffffffffff82111561593a57615939615d6a565b5b601f19601f8301169050602081019050919050565b6000819050602082019050919050565b6000819050602082019050919050565b6000819050602082019050919050565b6000819050602082019050919050565b6000819050602082019050919050565b60008190508160005260206000209050919050565b6000819050602082019050919050565b60008190508160005260206000209050919050565b600081519050919050565b600081519050919050565b600081519050919050565b600081519050919050565b600081519050919050565b600081549050919050565b600081519050919050565b600081519050919050565b6000602082019050919050565b6000602082019050919050565b6000602082019050919050565b6000602082019050919050565b6000602082019050919050565b6000600982019050919050565b6000602082019050919050565b600082825260208201905092915050565b600082825260208201905092915050565b600082825260208201905092915050565b600082825260208201905092915050565b600082825260208201905092915050565b600082825260208201905092915050565b600082825260208201905092915050565b600082825260208201905092915050565b600082825260208201905092915050565b600082825260208201905092915050565b600081905092915050565b600073ffffffffffffffffffffffffffffffffffffffff82169050919050565b6000819050919050565b600063ffffffff82169050919050565b600067ffffffffffffffff82169050919050565b600060ff82169050919050565b6000615ba782615bf1565b9050919050565b60008115159050919050565b6000819050919050565b6000615bcf82615b9c565b9050919050565b60008160030b9050919050565b600061ffff82169050919050565b600073ffffffffffffffffffffffffffffffffffffffff82169050919050565b6000819050919050565b600063ffffffff82169050919050565b600067ffffffffffffffff82169050919050565b600060ff82169050919050565b6000615c5782615c5e565b9050919050565b6000615c6982615c70565b9050919050565b6000615c7b82615bf1565b9050919050565b82818337600083830152505050565b60005b83811015615caf578082015181840152602081019050615c94565b83811115615cbe576000848401525b50505050565b6000615cd7615cd283615d7d565b615b41565b9050919050565b6000615cf1615cec83615d7d565b615b61565b9050919050565b6000615d0b615d0683615d7d565b615b6b565b9050919050565b6000615d25615d2083615d7d565b615b8f565b9050919050565b6000615d3f615d3a83615d8a565b615b7b565b9050919050565b6000615d59615d5483615d97565b615b41565b9050919050565b6000819050919050565bfe5b6000601f19601f8301169050919050565b60008160001c9050919050565b60008160a01c9050919050565b60008160201c9050919050565b615dad81615b9c565b8114615db857600080fd5b50565b615dc481615bae565b8114615dcf57600080fd5b50565b615ddb81615bba565b8114615de657600080fd5b50565b615df281615bc4565b8114615dfd57600080fd5b50565b615e0981615bd6565b8114615e1457600080fd5b50565b615e2081615be3565b8114615e2b57600080fd5b50565b615e3781615c11565b8114615e4257600080fd5b50565b615e4e81615c1b565b8114615e5957600080fd5b50565b615e6581615c2b565b8114615e7057600080fd5b50565b615e7c81615c3f565b8114615e8757600080fd5b5056fea2646970667358221220f4304bc602e225961c9b5bdc394688796391e36a81d8b924bc1b6f47cd8a8b3764736f6c63430007060033",
  "immutableReferences": {},
  "source": "// SPDX-License-Identifier: MIT\n// Bridge between ethereum and verus\n\npragma solidity >=0.6.0 <0.9.0;\npragma experimental ABIEncoderV2;\n\nimport \"../Libraries/VerusObjects.sol\";\nimport \"../Libraries/VerusObjectsCommon.sol\";\nimport \"../Libraries/VerusConstants.sol\";\nimport \"./TokenManager.sol\";\nimport \"../MMR/VerusProof.sol\";\nimport \"./Token.sol\";\nimport \"./VerusSerializer.sol\";\nimport \"../VerusNotarizer/VerusNotarizer.sol\";\nimport \"./VerusCrossChainExport.sol\";\n\ncontract VerusBridge {\n\n    //list of erc20 tokens that can be accessed,\n    //the contract must be able to mint and burn coins on the contract\n    //defines the tokenManager which creates the erc20\n    TokenManager tokenManager;\n    VerusSerializer verusSerializer;\n    VerusProof verusProof;\n    VerusNotarizer verusNotarizer;\n    VerusCrossChainExport verusCCE;\n\n    // THE CONTRACT OWNER NEEDS TO BE REPLACED BY A SET OF NOTARIES\n    address contractOwner;\n\n    bool public deprecated = false;     // indicates if the contract is deprecated\n    address public upgradedAddress;     // new contract, if this is deprecated\n\n    uint256 public feesHeld = 0;\n    uint256 public ethHeld = 0;\n    uint256 public poolSize = 0;\n\n    uint public firstBlock = 0;\n\n    // used to prove the transfers the index of this corresponds to the index of the \n    bytes32[] public readyExportHashes;\n\n    // DO NOT ADD ANY VARIABLES ABOVE THIS POINT\n    // used to store a list of currencies and an amount\n    VerusObjects.CReserveTransfer[] private _pendingExports;\n    \n    // stores the blockheight of each pending transfer\n    // the export set holds the summary of a set of exports\n    VerusObjects.CReserveTransfer[][] public _readyExports;\n    \n    //stores the index corresponds to the block\n    VerusObjects.LastImport public lastimport;\n    mapping (bytes32 => bool) public processedTxids;\n    mapping (uint => VerusObjects.blockCreated) public readyExportsByBlock;\n    mapping (address => uint256) public claimableFees;\n\n    uint public lastTxImportHeight;\n\n    event Deprecate(address newAddress);\n\n    uint32 constant CTRX_CURRENCY_EXPORT_FLAG = 0x2000;\n    uint8 constant DEST_REGISTERCURRENCY = 6;\n    \n    constructor(address verusProofAddress,\n        address tokenManagerAddress,\n        address verusSerializerAddress,\n        address verusNotarizerAddress,\n        address verusCCEAddress,\n        uint256 _poolSize) public {\n        contractOwner = msg.sender; \n        verusProof =  VerusProof(verusProofAddress);\n        tokenManager = TokenManager(tokenManagerAddress);\n        verusSerializer = VerusSerializer(verusSerializerAddress);\n        verusNotarizer = VerusNotarizer(verusNotarizerAddress);\n        verusCCE = VerusCrossChainExport(verusCCEAddress);\n        poolSize = _poolSize;\n        lastimport.height = 0;\n        lastimport.txid = 0x00000000000000000000000000000000;\n    }\n\n    function isPoolAvailable(uint256 _feesAmount,address _feeCurrencyID) private view returns(bool){\n\n        if(0 < verusNotarizer.poolAvailable(VerusConstants.VerusBridgeAddress) &&\n            verusNotarizer.poolAvailable(VerusConstants.VerusBridgeAddress) < uint32(block.number)) {\n            //the bridge has been activated\n            return false;\n        } else {\n            assert(_feeCurrencyID == VerusConstants.VerusCurrencyId);\n            assert(poolSize >= _feesAmount);\n            return true;\n        }\n    }\n\n    function convertFromVerusNumber(uint256 a,uint8 decimals) public pure returns (uint256) {\n         uint8 power = 10; //default value for 18\n         uint256 c = a;\n        if(decimals > 8 ) {\n            power = decimals - 8;// number of decimals in verus\n            c = a * (10 ** power);\n        }else if(decimals < 8){\n            power = 8 - decimals;// number of decimals in verus\n            c = a / (10 ** power);\n        }\n      \n        return c;\n    }\n\n    function convertToVerusNumber(uint256 a,uint8 decimals) public pure returns (uint256) {\n         uint8 power = 10; //default value for 18\n         uint256 c = a;\n        if (decimals > 8 ) {\n            power = decimals - 8;// number of decimals in verus\n            c = a / (10 ** power);\n        } else if (decimals < 8){\n            power = 8 - decimals;// number of decimals in verus\n            c = a * (10 ** power);\n        }\n\n        return c;\n    }\n \n    function export(VerusObjects.CReserveTransfer memory transfer) public payable {\n        assert(!deprecated);\n        uint256 requiredFees =  VerusConstants.transactionFee;\n        uint256 verusFees = VerusConstants.verusTransactionFee;\n\n        //TODO: We cant mix different transfer destinations together in the CCE assert on non same fields.\n        if (readyExportsByBlock[block.number].created)\n        {\n            uint exportIndex = readyExportsByBlock[block.number].index;\n\n            // QUESTION: what about reserve transfers that are import to source?\n            assert( _readyExports[exportIndex][0].destcurrencyid == transfer.destcurrencyid);\n        }\n\n        //if there is fees in the pool spend those and not the amount that\n        if (isPoolAvailable(transfer.fees,transfer.feecurrencyid)) {\n            poolSize -= VerusConstants.verusTransactionFee;\n        } else {\n            //if fees are being paid in verustest we need to take it from the msg sender\n            assert(transfer.feecurrencyid == VerusConstants.VerusCurrencyId || transfer.feecurrencyid == VerusConstants.VEth);\n            if(transfer.feecurrencyid == VerusConstants.VerusCurrencyId) {\n                \n                //burn the required amount of vrsctest from the user\n                Token token = tokenManager.getTokenERC20(transfer.feecurrencyid);\n                uint256 VRSTallowedTokens = token.allowance(msg.sender, address(this));\n                assert( VRSTallowedTokens >= convertFromVerusNumber(verusFees,18));\n                token.transferFrom(msg.sender,address(this), convertFromVerusNumber(verusFees,18)); \n                //transfer the tokens to this contract\n                token.burn(verusFees); \n\n            } else if(transfer.feecurrencyid == VerusConstants.VEth){\n                requiredFees = requiredFees * 3;\n                assert(msg.value >= requiredFees + convertFromVerusNumber(transfer.fees,18));    \n            }\n            //if the fees are being paid in veth then require the user to send it\n            //fees need to be paid for verus as well\n        }\n\n        if (transfer.currencyvalue.currency != VerusConstants.VEth) {\n            //check there are enough fees sent\n            feesHeld += msg.value;\n            //check that the token is registered\n            Token token = tokenManager.getTokenERC20(transfer.currencyvalue.currency);\n            uint256 allowedTokens = token.allowance(msg.sender,address(this));\n            uint256 tokenAmount = convertFromVerusNumber(transfer.currencyvalue.amount,token.decimals()); //convert to wei from verus satoshis\n            assert( allowedTokens >= tokenAmount);\n            //transfer the tokens to this contract\n            token.transferFrom(msg.sender,address(this),tokenAmount); \n            token.approve(address(tokenManager),tokenAmount);\n            //give an approval for the tokenmanagerinstance to spend the tokens\n            tokenManager.exportERC20Tokens(transfer.currencyvalue.currency, tokenAmount);  //total amount kept as wei until export to verus\n        } else {\n            //handle a vEth transfer\n            transfer.currencyvalue.amount = uint64(convertToVerusNumber(msg.value - VerusConstants.transactionFee,18));\n            ethHeld += transfer.currencyvalue.amount;  \n            feesHeld += VerusConstants.transactionFee;\n        }\n        _createExports(transfer);\n    }\n\n    function _createExports(VerusObjects.CReserveTransfer memory newTransaction) private {\n        uint currentHeight = block.number;\n        uint exportIndex;\n        bool newHash;\n\n        //check if the current block height has a set of transfers associated with it if so add to the existing array\n        if (readyExportsByBlock[currentHeight].created) {\n            //append to an existing array of transfers\n            exportIndex = readyExportsByBlock[currentHeight].index;\n            _readyExports[exportIndex].push(newTransaction);\n            newHash = false;\n        }\n        else {\n            _pendingExports.push(newTransaction);\n            exportIndex = _readyExports.length;\n            _readyExports.push(_pendingExports);\n            readyExportsByBlock[currentHeight] = VerusObjects.blockCreated(exportIndex, true);\n            delete _pendingExports;\n            newHash = true;\n        }\n       \n        // QUESTION: why such a complicated test to determine destination currency on Verus?\n        // likely better would be to have a bool of bridge ready\n        bool bridgeReady = (0 < verusNotarizer.poolAvailable(VerusConstants.VerusBridgeAddress) &&\n            verusNotarizer.poolAvailable(VerusConstants.VerusBridgeAddress) < uint32(block.number));\n\n        bytes memory serializedCCE = verusSerializer.serializeCCrossChainExport(verusCCE.generateCCE(_readyExports[exportIndex], bridgeReady));\n\n        bytes32 hashedCCE;\n        bytes32 lastCCEHash = 0;\n        if (exportIndex != 0) lastCCEHash = readyExportHashes[exportIndex -1];\n        hashedCCE = keccak256(abi.encodePacked(serializedCCE, lastCCEHash));\n\n        //add the hashed value\n        if (newHash) readyExportHashes.push(hashedCCE);\n        else readyExportHashes[exportIndex] = hashedCCE;\n\n        if (firstBlock == 0) firstBlock = currentHeight;\n    }\n\n    function getlastimportheight() public view returns(uint) {\n        return lastTxImportHeight;\n    }\n\n    /***\n     * Import from Verus functions\n     ***/\n    function checkImports(bytes32[] memory _imports) public view returns(bytes32[] memory) {\n        //loop through the transfers and return a list of unprocessed\n        bytes32[] memory txidList = new bytes32[](_imports.length);\n        uint iterator;\n        for(uint i = 0; i < _imports.length; i++){\n            if(processedTxids[_imports[i]] != true){\n                txidList[iterator] = _imports[i];\n                iterator++;\n            }\n        }\n        return txidList;\n    }\n\n    function submitImports(VerusObjects.CReserveTransferImport[] memory _imports) public {\n        //loop through the transfers and process\n        for(uint i = 0; i < _imports.length; i++){\n           _createImports(_imports[i]);\n        }\n    }\n\n    function bytesToAddress(bytes memory bys) private pure returns (address addr) {\n    assembly {\n      addr := mload(add(bys,20))\n    } \n}\n\n    function _createImports(VerusObjects.CReserveTransferImport memory _import) public returns(bool) {\n\n        bytes32 txidfound;\n        bytes memory sliced = _import.partialtransactionproof.components[0].elVchObj;\n\n        assembly {\n            txidfound := mload(add(sliced, 32))                                 // skip memory length (ETH encoded in an efficient 32 bytes ;) )\n        }\n        if (processedTxids[txidfound] == true) return false; \n\n        bool proven = verusProof.proveImports(_import);\n\n        assert(proven);\n        processedTxids[txidfound] = true;\n\n        if (lastTxImportHeight < _import.height)\n            lastTxImportHeight = _import.height;\n\n        uint256 amount;\n\n        // check the transfers were in the hash.\n        for(uint i = 0; i < _import.transfers.length; i++){\n            // handle eth transactions\n            amount = convertFromVerusNumber(uint256(_import.transfers[i].currencyvalue.amount),18);\n\n            // if the transfer does not have the EXPORT_CURRENCY flag set\n            if(_import.transfers[i].flags & CTRX_CURRENCY_EXPORT_FLAG != CTRX_CURRENCY_EXPORT_FLAG){\n\n                if(_import.transfers[i].currencyvalue.currency == VerusConstants.VEth) {\n                    // cast the destination as an ethAddress\n                    assert(amount <= address(this).balance);\n                    sendEth(amount,payable(bytesToAddress(_import.transfers[i].destination.destinationaddress)));\n                    ethHeld -= amount;\n            \n                } else {\n                    // handle erc20 transactions  \n                    // amount conversion is handled in token manager\n                    tokenManager.importERC20Tokens(_import.transfers[i].currencyvalue.currency,\n                        _import.transfers[i].currencyvalue.amount,\n                        bytesToAddress(_import.transfers[i].destination.destinationaddress));\n                }\n            } else if(_import.transfers[i].destination.destinationtype & DEST_REGISTERCURRENCY == DEST_REGISTERCURRENCY) {\n                     \n                tokenManager.deployToken(_import.transfers[i].destination.destinationaddress);\n                \n            }\n            //handle the distributions of the fees\n            //add them into the fees array to be claimed by the message sender\n            if(_import.transfers[i].fees > 0 && _import.transfers[i].feecurrencyid == VerusConstants.VEth){\n                claimableFees[msg.sender] = claimableFees[msg.sender] + _import.transfers[i].fees;\n            }\n        }\n        return true;\n    }\n    \n    function getReadyExportsByBlock(uint _blockNumber) public view returns(VerusObjects.CReserveTransferSet memory) {\n        //need a transferset for each position not each block\n        //retrieve a block get the indexes, create a transfer set for each index add those to the array\n        uint eIndex = readyExportsByBlock[_blockNumber].index;\n\n        VerusObjects.CReserveTransferSet memory output = VerusObjects.CReserveTransferSet(\n            eIndex,                     // position in array\n            _blockNumber,               // blockHeight\n            readyExportHashes[eIndex],  // cross chain export hash\n            _readyExports[eIndex]       // list of CReserveTransfers\n        );\n\n        return output;\n    }\n\n    function getReadyExportsByRange(uint _startBlock,uint _endBlock) public view returns(VerusObjects.CReserveTransferSet[] memory){\n        //calculate the size that the return array will be to initialise it\n        uint outputSize = 0;\n        if(_startBlock < firstBlock) _startBlock = firstBlock;\n        for(uint i = _startBlock; i <= _endBlock; i++){\n            if(readyExportsByBlock[i].created) outputSize += 1;\n        }\n\n        VerusObjects.CReserveTransferSet[] memory output = new VerusObjects.CReserveTransferSet[](outputSize);\n        uint outputPosition = 0;\n        for (uint blockNumber = _startBlock; blockNumber <= _endBlock; blockNumber++){\n            if (readyExportsByBlock[blockNumber].created) {\n                output[outputPosition] = getReadyExportsByBlock(blockNumber);\n                outputPosition++;\n            }\n        }\n        return output;        \n    }\n \n    function sendEth(uint256 _ethAmount, address payable _ethAddress) private {\n        assert(!deprecated);\n        //do we take fees here????\n        \n        _ethAddress.transfer(_ethAmount);\n    }\n   \n    function claimFees() public returns(uint256) {\n        assert(!deprecated);\n        if(claimableFees[msg.sender] > 0 ){\n            sendEth(claimableFees[msg.sender],msg.sender);\n        }\n        return claimableFees[msg.sender];\n    }\n/*\n    function deprecate(address _upgradedAddress,bytes32 _addressHash,uint8[] memory _vs,bytes32[] memory _rs,bytes32[] memory _ss) public{\n        if(verusNotarizer.notarizedDeprecation(_upgradedAddress, _addressHash, _vs, _rs, _ss)){\n            deprecated = true;\n            upgradedAddress = _upgradedAddress;\n            Deprecate(_upgradedAddress);\n        }\n    }\n*/\n\n}\n",
  "sourcePath": "/home/chris/Verus-Ethereum-contracts/contracts/VerusBridge/VerusBridge.sol",
  "compiler": {
    "name": "solc",
    "version": "0.7.6+commit.7338295f.Emscripten.clang"
  },
  "schemaVersion": "3.4.4",
  "updatedAt": "2022-02-23T14:37:02.137Z",
  "networkType": "ethereum",
  "devdoc": {
    "kind": "dev",
    "methods": {},
    "version": 1
  },
  "userdoc": {
    "kind": "user",
    "methods": {},
    "version": 1
  }
}